{
  "address": "0x339B34965bD3A61025eEA3D5FDcADf75756cc0Db",
  "abi": [
    {
      "inputs": [
        {
          "internalType": "string",
          "name": "_name",
          "type": "string"
        },
        {
          "internalType": "string",
          "name": "_symbol",
          "type": "string"
        },
        {
          "internalType": "contract IERC20Upgradeable",
          "name": "_usx",
          "type": "address"
        },
        {
          "internalType": "address",
          "name": "_msdController",
          "type": "address"
        },
        {
          "internalType": "uint256",
          "name": "_mintCap",
          "type": "uint256"
        },
        {
          "internalType": "uint256",
          "name": "_initialUsrStartTime",
          "type": "uint256"
        },
        {
          "internalType": "uint256",
          "name": "_initialUsrEndTime",
          "type": "uint256"
        },
        {
          "internalType": "uint256",
          "name": "_initialUsr",
          "type": "uint256"
        },
        {
          "internalType": "uint256",
          "name": "_initialRate",
          "type": "uint256"
        }
      ],
      "stateMutability": "nonpayable",
      "type": "constructor"
    },
    {
      "anonymous": false,
      "inputs": [
        {
          "indexed": true,
          "internalType": "address",
          "name": "owner",
          "type": "address"
        },
        {
          "indexed": true,
          "internalType": "address",
          "name": "spender",
          "type": "address"
        },
        {
          "indexed": false,
          "internalType": "uint256",
          "name": "value",
          "type": "uint256"
        }
      ],
      "name": "Approval",
      "type": "event"
    },
    {
      "anonymous": false,
      "inputs": [
        {
          "indexed": true,
          "internalType": "uint256",
          "name": "deletedEpochId",
          "type": "uint256"
        }
      ],
      "name": "DeleteLastEpoch",
      "type": "event"
    },
    {
      "anonymous": false,
      "inputs": [
        {
          "indexed": true,
          "internalType": "address",
          "name": "sender",
          "type": "address"
        },
        {
          "indexed": true,
          "internalType": "address",
          "name": "owner",
          "type": "address"
        },
        {
          "indexed": false,
          "internalType": "uint256",
          "name": "assets",
          "type": "uint256"
        },
        {
          "indexed": false,
          "internalType": "uint256",
          "name": "shares",
          "type": "uint256"
        }
      ],
      "name": "Deposit",
      "type": "event"
    },
    {
      "anonymous": false,
      "inputs": [
        {
          "indexed": false,
          "internalType": "address",
          "name": "receiver",
          "type": "address"
        },
        {
          "indexed": false,
          "internalType": "uint256",
          "name": "assets",
          "type": "uint256"
        },
        {
          "indexed": false,
          "internalType": "uint256",
          "name": "shares",
          "type": "uint256"
        }
      ],
      "name": "DepositFinalized",
      "type": "event"
    },
    {
      "anonymous": false,
      "inputs": [],
      "name": "EIP712DomainChanged",
      "type": "event"
    },
    {
      "anonymous": false,
      "inputs": [
        {
          "indexed": false,
          "internalType": "uint8",
          "name": "version",
          "type": "uint8"
        }
      ],
      "name": "Initialized",
      "type": "event"
    },
    {
      "anonymous": false,
      "inputs": [
        {
          "indexed": true,
          "internalType": "uint256",
          "name": "oldMintCap",
          "type": "uint256"
        },
        {
          "indexed": true,
          "internalType": "uint256",
          "name": "newMintCap",
          "type": "uint256"
        }
      ],
      "name": "NewMintCap",
      "type": "event"
    },
    {
      "anonymous": false,
      "inputs": [
        {
          "indexed": true,
          "internalType": "uint256",
          "name": "epochId",
          "type": "uint256"
        },
        {
          "indexed": false,
          "internalType": "uint256",
          "name": "startTime",
          "type": "uint256"
        },
        {
          "indexed": false,
          "internalType": "uint256",
          "name": "endTime",
          "type": "uint256"
        },
        {
          "indexed": false,
          "internalType": "uint256",
          "name": "usr",
          "type": "uint256"
        },
        {
          "indexed": false,
          "internalType": "uint256",
          "name": "startRate",
          "type": "uint256"
        }
      ],
      "name": "NewUSRConfig",
      "type": "event"
    },
    {
      "anonymous": false,
      "inputs": [
        {
          "indexed": true,
          "internalType": "address",
          "name": "previousOwner",
          "type": "address"
        },
        {
          "indexed": true,
          "internalType": "address",
          "name": "newOwner",
          "type": "address"
        }
      ],
      "name": "OwnershipTransferStarted",
      "type": "event"
    },
    {
      "anonymous": false,
      "inputs": [
        {
          "indexed": true,
          "internalType": "address",
          "name": "previousOwner",
          "type": "address"
        },
        {
          "indexed": true,
          "internalType": "address",
          "name": "newOwner",
          "type": "address"
        }
      ],
      "name": "OwnershipTransferred",
      "type": "event"
    },
    {
      "anonymous": false,
      "inputs": [
        {
          "indexed": false,
          "internalType": "address",
          "name": "account",
          "type": "address"
        }
      ],
      "name": "Paused",
      "type": "event"
    },
    {
      "anonymous": false,
      "inputs": [
        {
          "indexed": true,
          "internalType": "bytes32",
          "name": "role",
          "type": "bytes32"
        },
        {
          "indexed": true,
          "internalType": "bytes32",
          "name": "previousAdminRole",
          "type": "bytes32"
        },
        {
          "indexed": true,
          "internalType": "bytes32",
          "name": "newAdminRole",
          "type": "bytes32"
        }
      ],
      "name": "RoleAdminChanged",
      "type": "event"
    },
    {
      "anonymous": false,
      "inputs": [
        {
          "indexed": true,
          "internalType": "bytes32",
          "name": "role",
          "type": "bytes32"
        },
        {
          "indexed": true,
          "internalType": "address",
          "name": "account",
          "type": "address"
        },
        {
          "indexed": true,
          "internalType": "address",
          "name": "sender",
          "type": "address"
        }
      ],
      "name": "RoleGranted",
      "type": "event"
    },
    {
      "anonymous": false,
      "inputs": [
        {
          "indexed": true,
          "internalType": "bytes32",
          "name": "role",
          "type": "bytes32"
        },
        {
          "indexed": true,
          "internalType": "address",
          "name": "account",
          "type": "address"
        },
        {
          "indexed": true,
          "internalType": "address",
          "name": "sender",
          "type": "address"
        }
      ],
      "name": "RoleRevoked",
      "type": "event"
    },
    {
      "anonymous": false,
      "inputs": [
        {
          "indexed": true,
          "internalType": "uint256",
          "name": "stakeAmount",
          "type": "uint256"
        }
      ],
      "name": "Stake",
      "type": "event"
    },
    {
      "anonymous": false,
      "inputs": [
        {
          "indexed": true,
          "internalType": "address",
          "name": "from",
          "type": "address"
        },
        {
          "indexed": true,
          "internalType": "address",
          "name": "to",
          "type": "address"
        },
        {
          "indexed": false,
          "internalType": "uint256",
          "name": "value",
          "type": "uint256"
        }
      ],
      "name": "Transfer",
      "type": "event"
    },
    {
      "anonymous": false,
      "inputs": [
        {
          "indexed": false,
          "internalType": "address",
          "name": "account",
          "type": "address"
        }
      ],
      "name": "Unpaused",
      "type": "event"
    },
    {
      "anonymous": false,
      "inputs": [
        {
          "indexed": true,
          "internalType": "uint256",
          "name": "unstakeAmount",
          "type": "uint256"
        }
      ],
      "name": "Unstake",
      "type": "event"
    },
    {
      "anonymous": false,
      "inputs": [
        {
          "indexed": true,
          "internalType": "uint256",
          "name": "epochId",
          "type": "uint256"
        },
        {
          "indexed": true,
          "internalType": "uint256",
          "name": "oldEndTime",
          "type": "uint256"
        },
        {
          "indexed": true,
          "internalType": "uint256",
          "name": "newEndTime",
          "type": "uint256"
        }
      ],
      "name": "UpdateEpochEndTime",
      "type": "event"
    },
    {
      "anonymous": false,
      "inputs": [
        {
          "indexed": true,
          "internalType": "address",
          "name": "sender",
          "type": "address"
        },
        {
          "indexed": true,
          "internalType": "address",
          "name": "receiver",
          "type": "address"
        },
        {
          "indexed": true,
          "internalType": "address",
          "name": "owner",
          "type": "address"
        },
        {
          "indexed": false,
          "internalType": "uint256",
          "name": "assets",
          "type": "uint256"
        },
        {
          "indexed": false,
          "internalType": "uint256",
          "name": "shares",
          "type": "uint256"
        }
      ],
      "name": "Withdraw",
      "type": "event"
    },
    {
      "anonymous": false,
      "inputs": [
        {
          "indexed": false,
          "internalType": "address",
          "name": "owner",
          "type": "address"
        },
        {
          "indexed": false,
          "internalType": "uint256",
          "name": "assets",
          "type": "uint256"
        },
        {
          "indexed": false,
          "internalType": "uint256",
          "name": "shares",
          "type": "uint256"
        }
      ],
      "name": "WithdrawalInitiated",
      "type": "event"
    },
    {
      "inputs": [],
      "name": "BRIDGER_ROLE",
      "outputs": [
        {
          "internalType": "bytes32",
          "name": "",
          "type": "bytes32"
        }
      ],
      "stateMutability": "view",
      "type": "function"
    },
    {
      "inputs": [],
      "name": "DEFAULT_ADMIN_ROLE",
      "outputs": [
        {
          "internalType": "bytes32",
          "name": "",
          "type": "bytes32"
        }
      ],
      "stateMutability": "view",
      "type": "function"
    },
    {
      "inputs": [],
      "name": "DOMAIN_SEPARATOR",
      "outputs": [
        {
          "internalType": "bytes32",
          "name": "",
          "type": "bytes32"
        }
      ],
      "stateMutability": "view",
      "type": "function"
    },
    {
      "inputs": [],
      "name": "PAUSER_ROLE",
      "outputs": [
        {
          "internalType": "bytes32",
          "name": "",
          "type": "bytes32"
        }
      ],
      "stateMutability": "view",
      "type": "function"
    },
    {
      "inputs": [
        {
          "internalType": "uint256",
          "name": "_newUsrStartTime",
          "type": "uint256"
        },
        {
          "internalType": "uint256",
          "name": "_newUsrEndTime",
          "type": "uint256"
        },
        {
          "internalType": "uint256",
          "name": "_newUsr",
          "type": "uint256"
        }
      ],
      "name": "_addNewUsrConfig",
      "outputs": [],
      "stateMutability": "nonpayable",
      "type": "function"
    },
    {
      "inputs": [],
      "name": "_deleteLastEpoch",
      "outputs": [],
      "stateMutability": "nonpayable",
      "type": "function"
    },
    {
      "inputs": [
        {
          "internalType": "uint256",
          "name": "_newMintCap",
          "type": "uint256"
        }
      ],
      "name": "_setMintCap",
      "outputs": [],
      "stateMutability": "nonpayable",
      "type": "function"
    },
    {
      "inputs": [
        {
          "internalType": "uint256",
          "name": "_newEpochEndTime",
          "type": "uint256"
        }
      ],
      "name": "_updateLastEpochEndTime",
      "outputs": [],
      "stateMutability": "nonpayable",
      "type": "function"
    },
    {
      "inputs": [],
      "name": "acceptOwnership",
      "outputs": [],
      "stateMutability": "nonpayable",
      "type": "function"
    },
    {
      "inputs": [
        {
          "internalType": "address",
          "name": "owner",
          "type": "address"
        },
        {
          "internalType": "address",
          "name": "spender",
          "type": "address"
        }
      ],
      "name": "allowance",
      "outputs": [
        {
          "internalType": "uint256",
          "name": "",
          "type": "uint256"
        }
      ],
      "stateMutability": "view",
      "type": "function"
    },
    {
      "inputs": [
        {
          "internalType": "address",
          "name": "spender",
          "type": "address"
        },
        {
          "internalType": "uint256",
          "name": "amount",
          "type": "uint256"
        }
      ],
      "name": "approve",
      "outputs": [
        {
          "internalType": "bool",
          "name": "",
          "type": "bool"
        }
      ],
      "stateMutability": "nonpayable",
      "type": "function"
    },
    {
      "inputs": [],
      "name": "asset",
      "outputs": [
        {
          "internalType": "address",
          "name": "",
          "type": "address"
        }
      ],
      "stateMutability": "view",
      "type": "function"
    },
    {
      "inputs": [
        {
          "internalType": "address",
          "name": "account",
          "type": "address"
        }
      ],
      "name": "balanceOf",
      "outputs": [
        {
          "internalType": "uint256",
          "name": "",
          "type": "uint256"
        }
      ],
      "stateMutability": "view",
      "type": "function"
    },
    {
      "inputs": [
        {
          "internalType": "uint256",
          "name": "shares",
          "type": "uint256"
        }
      ],
      "name": "convertToAssets",
      "outputs": [
        {
          "internalType": "uint256",
          "name": "",
          "type": "uint256"
        }
      ],
      "stateMutability": "view",
      "type": "function"
    },
    {
      "inputs": [
        {
          "internalType": "uint256",
          "name": "assets",
          "type": "uint256"
        }
      ],
      "name": "convertToShares",
      "outputs": [
        {
          "internalType": "uint256",
          "name": "",
          "type": "uint256"
        }
      ],
      "stateMutability": "view",
      "type": "function"
    },
    {
      "inputs": [],
      "name": "currentAPY",
      "outputs": [
        {
          "internalType": "uint256",
          "name": "_apy",
          "type": "uint256"
        },
        {
          "internalType": "uint256",
          "name": "_startTime",
          "type": "uint256"
        },
        {
          "internalType": "uint256",
          "name": "_endTime",
          "type": "uint256"
        }
      ],
      "stateMutability": "view",
      "type": "function"
    },
    {
      "inputs": [],
      "name": "currentRate",
      "outputs": [
        {
          "internalType": "uint256",
          "name": "_rate",
          "type": "uint256"
        }
      ],
      "stateMutability": "view",
      "type": "function"
    },
    {
      "inputs": [],
      "name": "currentUsr",
      "outputs": [
        {
          "internalType": "uint256",
          "name": "_usr",
          "type": "uint256"
        }
      ],
      "stateMutability": "view",
      "type": "function"
    },
    {
      "inputs": [],
      "name": "decimals",
      "outputs": [
        {
          "internalType": "uint8",
          "name": "",
          "type": "uint8"
        }
      ],
      "stateMutability": "pure",
      "type": "function"
    },
    {
      "inputs": [
        {
          "internalType": "address",
          "name": "spender",
          "type": "address"
        },
        {
          "internalType": "uint256",
          "name": "subtractedValue",
          "type": "uint256"
        }
      ],
      "name": "decreaseAllowance",
      "outputs": [
        {
          "internalType": "bool",
          "name": "",
          "type": "bool"
        }
      ],
      "stateMutability": "nonpayable",
      "type": "function"
    },
    {
      "inputs": [
        {
          "internalType": "uint256",
          "name": "assets",
          "type": "uint256"
        },
        {
          "internalType": "address",
          "name": "receiver",
          "type": "address"
        }
      ],
      "name": "deposit",
      "outputs": [
        {
          "internalType": "uint256",
          "name": "",
          "type": "uint256"
        }
      ],
      "stateMutability": "nonpayable",
      "type": "function"
    },
    {
      "inputs": [],
      "name": "eip712Domain",
      "outputs": [
        {
          "internalType": "bytes1",
          "name": "fields",
          "type": "bytes1"
        },
        {
          "internalType": "string",
          "name": "name",
          "type": "string"
        },
        {
          "internalType": "string",
          "name": "version",
          "type": "string"
        },
        {
          "internalType": "uint256",
          "name": "chainId",
          "type": "uint256"
        },
        {
          "internalType": "address",
          "name": "verifyingContract",
          "type": "address"
        },
        {
          "internalType": "bytes32",
          "name": "salt",
          "type": "bytes32"
        },
        {
          "internalType": "uint256[]",
          "name": "extensions",
          "type": "uint256[]"
        }
      ],
      "stateMutability": "view",
      "type": "function"
    },
    {
      "inputs": [
        {
          "internalType": "uint256",
          "name": "shares",
          "type": "uint256"
        },
        {
          "internalType": "address",
          "name": "receiver",
          "type": "address"
        }
      ],
      "name": "finalizeInboundTransferShares",
      "outputs": [],
      "stateMutability": "nonpayable",
      "type": "function"
    },
    {
      "inputs": [
        {
          "internalType": "uint256",
          "name": "_time",
          "type": "uint256"
        }
      ],
      "name": "getRateByTime",
      "outputs": [
        {
          "internalType": "uint256",
          "name": "_rate",
          "type": "uint256"
        }
      ],
      "stateMutability": "view",
      "type": "function"
    },
    {
      "inputs": [
        {
          "internalType": "bytes32",
          "name": "role",
          "type": "bytes32"
        }
      ],
      "name": "getRoleAdmin",
      "outputs": [
        {
          "internalType": "bytes32",
          "name": "",
          "type": "bytes32"
        }
      ],
      "stateMutability": "view",
      "type": "function"
    },
    {
      "inputs": [
        {
          "internalType": "bytes32",
          "name": "role",
          "type": "bytes32"
        },
        {
          "internalType": "uint256",
          "name": "index",
          "type": "uint256"
        }
      ],
      "name": "getRoleMember",
      "outputs": [
        {
          "internalType": "address",
          "name": "",
          "type": "address"
        }
      ],
      "stateMutability": "view",
      "type": "function"
    },
    {
      "inputs": [
        {
          "internalType": "bytes32",
          "name": "role",
          "type": "bytes32"
        }
      ],
      "name": "getRoleMemberCount",
      "outputs": [
        {
          "internalType": "uint256",
          "name": "",
          "type": "uint256"
        }
      ],
      "stateMutability": "view",
      "type": "function"
    },
    {
      "inputs": [
        {
          "internalType": "bytes32",
          "name": "role",
          "type": "bytes32"
        },
        {
          "internalType": "address",
          "name": "account",
          "type": "address"
        }
      ],
      "name": "grantRole",
      "outputs": [],
      "stateMutability": "nonpayable",
      "type": "function"
    },
    {
      "inputs": [
        {
          "internalType": "bytes32",
          "name": "role",
          "type": "bytes32"
        },
        {
          "internalType": "address",
          "name": "account",
          "type": "address"
        }
      ],
      "name": "hasRole",
      "outputs": [
        {
          "internalType": "bool",
          "name": "",
          "type": "bool"
        }
      ],
      "stateMutability": "view",
      "type": "function"
    },
    {
      "inputs": [
        {
          "internalType": "address",
          "name": "spender",
          "type": "address"
        },
        {
          "internalType": "uint256",
          "name": "addedValue",
          "type": "uint256"
        }
      ],
      "name": "increaseAllowance",
      "outputs": [
        {
          "internalType": "bool",
          "name": "",
          "type": "bool"
        }
      ],
      "stateMutability": "nonpayable",
      "type": "function"
    },
    {
      "inputs": [
        {
          "internalType": "string",
          "name": "_name",
          "type": "string"
        },
        {
          "internalType": "string",
          "name": "_symbol",
          "type": "string"
        },
        {
          "internalType": "contract IERC20Upgradeable",
          "name": "_usx",
          "type": "address"
        },
        {
          "internalType": "address",
          "name": "_msdController",
          "type": "address"
        },
        {
          "internalType": "uint256",
          "name": "_mintCap",
          "type": "uint256"
        },
        {
          "internalType": "uint256",
          "name": "_initialUsrStartTime",
          "type": "uint256"
        },
        {
          "internalType": "uint256",
          "name": "_initialUsrEndTime",
          "type": "uint256"
        },
        {
          "internalType": "uint256",
          "name": "_initialUsr",
          "type": "uint256"
        },
        {
          "internalType": "uint256",
          "name": "_initialRate",
          "type": "uint256"
        }
      ],
      "name": "initialize",
      "outputs": [],
      "stateMutability": "nonpayable",
      "type": "function"
    },
    {
      "inputs": [],
      "name": "lastEpochId",
      "outputs": [
        {
          "internalType": "uint256",
          "name": "",
          "type": "uint256"
        }
      ],
      "stateMutability": "view",
      "type": "function"
    },
    {
      "inputs": [
        {
          "internalType": "address",
          "name": "",
          "type": "address"
        }
      ],
      "name": "maxDeposit",
      "outputs": [
        {
          "internalType": "uint256",
          "name": "",
          "type": "uint256"
        }
      ],
      "stateMutability": "view",
      "type": "function"
    },
    {
      "inputs": [
        {
          "internalType": "address",
          "name": "",
          "type": "address"
        }
      ],
      "name": "maxMint",
      "outputs": [
        {
          "internalType": "uint256",
          "name": "",
          "type": "uint256"
        }
      ],
      "stateMutability": "view",
      "type": "function"
    },
    {
      "inputs": [
        {
          "internalType": "address",
          "name": "owner",
          "type": "address"
        }
      ],
      "name": "maxRedeem",
      "outputs": [
        {
          "internalType": "uint256",
          "name": "",
          "type": "uint256"
        }
      ],
      "stateMutability": "view",
      "type": "function"
    },
    {
      "inputs": [
        {
          "internalType": "address",
          "name": "owner",
          "type": "address"
        }
      ],
      "name": "maxWithdraw",
      "outputs": [
        {
          "internalType": "uint256",
          "name": "",
          "type": "uint256"
        }
      ],
      "stateMutability": "view",
      "type": "function"
    },
    {
      "inputs": [
        {
          "internalType": "uint256",
          "name": "shares",
          "type": "uint256"
        },
        {
          "internalType": "address",
          "name": "receiver",
          "type": "address"
        }
      ],
      "name": "mint",
      "outputs": [
        {
          "internalType": "uint256",
          "name": "",
          "type": "uint256"
        }
      ],
      "stateMutability": "nonpayable",
      "type": "function"
    },
    {
      "inputs": [],
      "name": "mintCap",
      "outputs": [
        {
          "internalType": "uint256",
          "name": "",
          "type": "uint256"
        }
      ],
      "stateMutability": "view",
      "type": "function"
    },
    {
      "inputs": [],
      "name": "msdController",
      "outputs": [
        {
          "internalType": "address",
          "name": "",
          "type": "address"
        }
      ],
      "stateMutability": "view",
      "type": "function"
    },
    {
      "inputs": [],
      "name": "name",
      "outputs": [
        {
          "internalType": "string",
          "name": "",
          "type": "string"
        }
      ],
      "stateMutability": "view",
      "type": "function"
    },
    {
      "inputs": [],
      "name": "nextAPY",
      "outputs": [
        {
          "internalType": "uint256",
          "name": "_apy",
          "type": "uint256"
        },
        {
          "internalType": "uint256",
          "name": "_startTime",
          "type": "uint256"
        },
        {
          "internalType": "uint256",
          "name": "_endTime",
          "type": "uint256"
        }
      ],
      "stateMutability": "view",
      "type": "function"
    },
    {
      "inputs": [
        {
          "internalType": "address",
          "name": "owner",
          "type": "address"
        }
      ],
      "name": "nonces",
      "outputs": [
        {
          "internalType": "uint256",
          "name": "",
          "type": "uint256"
        }
      ],
      "stateMutability": "view",
      "type": "function"
    },
    {
      "inputs": [
        {
          "internalType": "uint256",
          "name": "shares",
          "type": "uint256"
        },
        {
          "internalType": "address",
          "name": "owner",
          "type": "address"
        }
      ],
      "name": "outboundTransferShares",
      "outputs": [],
      "stateMutability": "nonpayable",
      "type": "function"
    },
    {
      "inputs": [],
      "name": "owner",
      "outputs": [
        {
          "internalType": "address",
          "name": "",
          "type": "address"
        }
      ],
      "stateMutability": "view",
      "type": "function"
    },
    {
      "inputs": [],
      "name": "pause",
      "outputs": [],
      "stateMutability": "nonpayable",
      "type": "function"
    },
    {
      "inputs": [],
      "name": "paused",
      "outputs": [
        {
          "internalType": "bool",
          "name": "",
          "type": "bool"
        }
      ],
      "stateMutability": "view",
      "type": "function"
    },
    {
      "inputs": [],
      "name": "pendingOwner",
      "outputs": [
        {
          "internalType": "address",
          "name": "",
          "type": "address"
        }
      ],
      "stateMutability": "view",
      "type": "function"
    },
    {
      "inputs": [
        {
          "internalType": "address",
          "name": "owner",
          "type": "address"
        },
        {
          "internalType": "address",
          "name": "spender",
          "type": "address"
        },
        {
          "internalType": "uint256",
          "name": "value",
          "type": "uint256"
        },
        {
          "internalType": "uint256",
          "name": "deadline",
          "type": "uint256"
        },
        {
          "internalType": "uint8",
          "name": "v",
          "type": "uint8"
        },
        {
          "internalType": "bytes32",
          "name": "r",
          "type": "bytes32"
        },
        {
          "internalType": "bytes32",
          "name": "s",
          "type": "bytes32"
        }
      ],
      "name": "permit",
      "outputs": [],
      "stateMutability": "nonpayable",
      "type": "function"
    },
    {
      "inputs": [
        {
          "internalType": "uint256",
          "name": "assets",
          "type": "uint256"
        }
      ],
      "name": "previewDeposit",
      "outputs": [
        {
          "internalType": "uint256",
          "name": "",
          "type": "uint256"
        }
      ],
      "stateMutability": "view",
      "type": "function"
    },
    {
      "inputs": [
        {
          "internalType": "uint256",
          "name": "shares",
          "type": "uint256"
        }
      ],
      "name": "previewMint",
      "outputs": [
        {
          "internalType": "uint256",
          "name": "",
          "type": "uint256"
        }
      ],
      "stateMutability": "view",
      "type": "function"
    },
    {
      "inputs": [
        {
          "internalType": "uint256",
          "name": "shares",
          "type": "uint256"
        }
      ],
      "name": "previewRedeem",
      "outputs": [
        {
          "internalType": "uint256",
          "name": "",
          "type": "uint256"
        }
      ],
      "stateMutability": "view",
      "type": "function"
    },
    {
      "inputs": [
        {
          "internalType": "uint256",
          "name": "assets",
          "type": "uint256"
        }
      ],
      "name": "previewWithdraw",
      "outputs": [
        {
          "internalType": "uint256",
          "name": "",
          "type": "uint256"
        }
      ],
      "stateMutability": "view",
      "type": "function"
    },
    {
      "inputs": [
        {
          "internalType": "uint256",
          "name": "shares",
          "type": "uint256"
        },
        {
          "internalType": "address",
          "name": "receiver",
          "type": "address"
        },
        {
          "internalType": "address",
          "name": "owner",
          "type": "address"
        }
      ],
      "name": "redeem",
      "outputs": [
        {
          "internalType": "uint256",
          "name": "",
          "type": "uint256"
        }
      ],
      "stateMutability": "nonpayable",
      "type": "function"
    },
    {
      "inputs": [],
      "name": "renounceOwnership",
      "outputs": [],
      "stateMutability": "nonpayable",
      "type": "function"
    },
    {
      "inputs": [
        {
          "internalType": "bytes32",
          "name": "role",
          "type": "bytes32"
        },
        {
          "internalType": "address",
          "name": "account",
          "type": "address"
        }
      ],
      "name": "renounceRole",
      "outputs": [],
      "stateMutability": "nonpayable",
      "type": "function"
    },
    {
      "inputs": [
        {
          "internalType": "bytes32",
          "name": "role",
          "type": "bytes32"
        },
        {
          "internalType": "address",
          "name": "account",
          "type": "address"
        }
      ],
      "name": "revokeRole",
      "outputs": [],
      "stateMutability": "nonpayable",
      "type": "function"
    },
    {
      "inputs": [
        {
          "internalType": "bytes4",
          "name": "interfaceId",
          "type": "bytes4"
        }
      ],
      "name": "supportsInterface",
      "outputs": [
        {
          "internalType": "bool",
          "name": "",
          "type": "bool"
        }
      ],
      "stateMutability": "view",
      "type": "function"
    },
    {
      "inputs": [],
      "name": "symbol",
      "outputs": [
        {
          "internalType": "string",
          "name": "",
          "type": "string"
        }
      ],
      "stateMutability": "view",
      "type": "function"
    },
    {
      "inputs": [],
      "name": "totalAssets",
      "outputs": [
        {
          "internalType": "uint256",
          "name": "",
          "type": "uint256"
        }
      ],
      "stateMutability": "view",
      "type": "function"
    },
    {
      "inputs": [],
      "name": "totalMint",
      "outputs": [
        {
          "internalType": "uint256",
          "name": "",
          "type": "uint256"
        }
      ],
      "stateMutability": "view",
      "type": "function"
    },
    {
      "inputs": [],
      "name": "totalStaked",
      "outputs": [
        {
          "internalType": "uint256",
          "name": "",
          "type": "uint256"
        }
      ],
      "stateMutability": "view",
      "type": "function"
    },
    {
      "inputs": [],
      "name": "totalSupply",
      "outputs": [
        {
          "internalType": "uint256",
          "name": "",
          "type": "uint256"
        }
      ],
      "stateMutability": "view",
      "type": "function"
    },
    {
      "inputs": [],
      "name": "totalUnstaked",
      "outputs": [
        {
          "internalType": "uint256",
          "name": "",
          "type": "uint256"
        }
      ],
      "stateMutability": "view",
      "type": "function"
    },
    {
      "inputs": [
        {
          "internalType": "address",
          "name": "to",
          "type": "address"
        },
        {
          "internalType": "uint256",
          "name": "amount",
          "type": "uint256"
        }
      ],
      "name": "transfer",
      "outputs": [
        {
          "internalType": "bool",
          "name": "",
          "type": "bool"
        }
      ],
      "stateMutability": "nonpayable",
      "type": "function"
    },
    {
      "inputs": [
        {
          "internalType": "address",
          "name": "from",
          "type": "address"
        },
        {
          "internalType": "address",
          "name": "to",
          "type": "address"
        },
        {
          "internalType": "uint256",
          "name": "amount",
          "type": "uint256"
        }
      ],
      "name": "transferFrom",
      "outputs": [
        {
          "internalType": "bool",
          "name": "",
          "type": "bool"
        }
      ],
      "stateMutability": "nonpayable",
      "type": "function"
    },
    {
      "inputs": [
        {
          "internalType": "address",
          "name": "newOwner",
          "type": "address"
        }
      ],
      "name": "transferOwnership",
      "outputs": [],
      "stateMutability": "nonpayable",
      "type": "function"
    },
    {
      "inputs": [],
      "name": "unpause",
      "outputs": [],
      "stateMutability": "nonpayable",
      "type": "function"
    },
    {
      "inputs": [
        {
          "internalType": "uint256",
          "name": "",
          "type": "uint256"
        }
      ],
      "name": "usrConfigs",
      "outputs": [
        {
          "internalType": "uint256",
          "name": "startTime",
          "type": "uint256"
        },
        {
          "internalType": "uint256",
          "name": "endTime",
          "type": "uint256"
        },
        {
          "internalType": "uint256",
          "name": "usr",
          "type": "uint256"
        },
        {
          "internalType": "uint256",
          "name": "startRate",
          "type": "uint256"
        }
      ],
      "stateMutability": "view",
      "type": "function"
    },
    {
      "inputs": [],
      "name": "usrConfigsLength",
      "outputs": [
        {
          "internalType": "uint256",
          "name": "",
          "type": "uint256"
        }
      ],
      "stateMutability": "view",
      "type": "function"
    },
    {
      "inputs": [
        {
          "internalType": "uint256",
          "name": "assets",
          "type": "uint256"
        },
        {
          "internalType": "address",
          "name": "receiver",
          "type": "address"
        },
        {
          "internalType": "address",
          "name": "owner",
          "type": "address"
        }
      ],
      "name": "withdraw",
      "outputs": [
        {
          "internalType": "uint256",
          "name": "",
          "type": "uint256"
        }
      ],
      "stateMutability": "nonpayable",
      "type": "function"
    }
  ],
  "transactionHash": "0x415b901a6c915b6cd55ab8480ef60b9963178bd81ed4d0e7dea37fa55c95eff0",
  "args": [
    "Saving USX",
    "sUSX",
    "0x641441c631e2F909700d2f41FD87F0aA6A6b4EDb",
    "0x38a5585d347E8DFc3965C1914498EAfbDeD7c5Ff",
    "4000000000000000000000000",
    1719489600,
    1726488000,
    "1000000004431822129783702592",
    "1000000000000000000000000000"
  ],
  "numDeployments": 2,
  "solcInputHash": "becfbd2258aebc46fc80347d4c3b345f",
  "bytecode": "0x60806040523480156200001157600080fd5b506040516200588638038062005886833981016040819052620000349162001134565b6200004789898989898989898962000056565b505050505050505050620012c2565b600054610100900460ff1615808015620000775750600054600160ff909116105b80620000a757506200009430620002d460201b62001d7f1760201c565b158015620000a7575060005460ff166001145b620001105760405162461bcd60e51b815260206004820152602e60248201527f496e697469616c697a61626c653a20636f6e747261637420697320616c72656160448201526d191e481a5b9a5d1a585b1a5e995960921b60648201526084015b60405180910390fd5b6000805460ff19166001179055801562000134576000805461ff0019166101001790555b6001600160a01b0388166200018c5760405162461bcd60e51b815260206004820152601460248201527f496e76616c696420555358206164647265737321000000000000000000000000604482015260640162000107565b6001600160a01b038716620001e45760405162461bcd60e51b815260206004820152601f60248201527f496e76616c6964204d534420436f6e74726f6c6c657220616464726573732100604482015260640162000107565b620001ee620002e3565b620001f86200034b565b62000202620003b1565b6200020d896200040d565b620002188862000497565b620002248a8a620004fe565b62000232858585856200056a565b61022c80546001600160a01b0319166001600160a01b03891617905561022f86905560405186906000907fd1213bd32c36531d10d742b4e9399fb34761d17ff26a0385a7622764a8194155908290a38015620002c8576000805461ff0019169055604051600181527f7f26b83ff96e1f2b6a682f133852f6798a09c465da95921460cefb38474024989060200160405180910390a15b50505050505050505050565b6001600160a01b03163b151590565b600054610100900460ff166200033f5760405162461bcd60e51b815260206004820152602b60248201526000805160206200584683398151915260448201526a6e697469616c697a696e6760a81b606482015260840162000107565b62000349620005e0565b565b600054610100900460ff16620003a75760405162461bcd60e51b815260206004820152602b60248201526000805160206200584683398151915260448201526a6e697469616c697a696e6760a81b606482015260840162000107565b6200034962000647565b600054610100900460ff16620003495760405162461bcd60e51b815260206004820152602b60248201526000805160206200584683398151915260448201526a6e697469616c697a696e6760a81b606482015260840162000107565b600054610100900460ff16620004695760405162461bcd60e51b815260206004820152602b60248201526000805160206200584683398151915260448201526a6e697469616c697a696e6760a81b606482015260840162000107565b6200049481604051806040016040528060018152602001603160f81b815250620006af60201b60201c565b50565b600054610100900460ff16620004f35760405162461bcd60e51b815260206004820152602b60248201526000805160206200584683398151915260448201526a6e697469616c697a696e6760a81b606482015260840162000107565b620004948162000749565b600054610100900460ff166200055a5760405162461bcd60e51b815260206004820152602b60248201526000805160206200584683398151915260448201526a6e697469616c697a696e6760a81b606482015260840162000107565b62000566828262000808565b5050565b600054610100900460ff16620005c65760405162461bcd60e51b815260206004820152602b60248201526000805160206200584683398151915260448201526a6e697469616c697a696e6760a81b606482015260840162000107565b600061022b55620005da8484848462000894565b50505050565b600054610100900460ff166200063c5760405162461bcd60e51b815260206004820152602b60248201526000805160206200584683398151915260448201526a6e697469616c697a696e6760a81b606482015260840162000107565b620003493362000a8b565b600054610100900460ff16620006a35760405162461bcd60e51b815260206004820152602b60248201526000805160206200584683398151915260448201526a6e697469616c697a696e6760a81b606482015260840162000107565b6033805460ff19169055565b600054610100900460ff166200070b5760405162461bcd60e51b815260206004820152602b60248201526000805160206200584683398151915260448201526a6e697469616c697a696e6760a81b606482015260840162000107565b8151620007219061012f90602085019062000fa2565b508051620007389061013090602084019062000fa2565b5050600061012d81905561012e5550565b600054610100900460ff16620007a55760405162461bcd60e51b815260206004820152602b60248201526000805160206200584683398151915260448201526a6e697469616c697a696e6760a81b606482015260840162000107565b600080620007b38362000b11565b9150915081620007c5576012620007c7565b805b61019480546001600160a01b039095166001600160a01b031960ff93909316600160a01b02929092166001600160a81b031990951694909417179092555050565b600054610100900460ff16620008645760405162461bcd60e51b815260206004820152602b60248201526000805160206200584683398151915260448201526a6e697469616c697a696e6760a81b606482015260840162000107565b8151620008799060fe90602085019062000fa2565b5080516200088f9060ff90602084019062000fa2565b505050565b838311620008e55760405162461bcd60e51b815260206004820152601960248201527f496e76616c6964206e65772075737220656e642074696d652100000000000000604482015260640162000107565b6b033b2e3c02dafeee38b7afa482101580156200090e57506b033b2e3d523e808a07fcdb1a8211155b6200095c5760405162461bcd60e51b815260206004820152601660248201527f496e76616c6964206e6577207573722076616c75652100000000000000000000604482015260640162000107565b60408051608081018252858152602081018581529181018481526060820184815261022a805460018082018355600083905294517fcca505edcd456b63fd0b198ec7cf976b40cd3558fe48a42b9f83b6a1ba5e0d2e60049092029182015594517fcca505edcd456b63fd0b198ec7cf976b40cd3558fe48a42b9f83b6a1ba5e0d2f86015591517fcca505edcd456b63fd0b198ec7cf976b40cd3558fe48a42b9f83b6a1ba5e0d30850155517fcca505edcd456b63fd0b198ec7cf976b40cd3558fe48a42b9f83b6a1ba5e0d3190930192909255905462000a3d9190620011fb565b6040805186815260208101869052908101849052606081018390527f46fd83a5199a61044b2e176effbf33c009efba3886afb62f6c19fe18f818ae199060800160405180910390a250505050565b62000aab600062000aa56101c6546001600160a01b031690565b62000bf6565b62000ad36000805160206200586683398151915262000aa56101c6546001600160a01b031690565b62000ae98162000c3460201b62001d8e1760201c565b62000af660008262000c5c565b62000494600080516020620058668339815191528262000c5c565b60408051600481526024810182526020810180516001600160e01b031663313ce56760e01b17905290516000918291829182916001600160a01b0387169162000b5a9162001221565b600060405180830381855afa9150503d806000811462000b97576040519150601f19603f3d011682016040523d82523d6000602084013e62000b9c565b606091505b509150915081801562000bb157506020815110155b1562000be95760008180602001905181019062000bcf91906200123f565b905060ff811162000be7576001969095509350505050565b505b5060009485945092505050565b62000c0d828262000c9a60201b62001da81760201c565b600082815260c9602090815260409091206200088f91839062001e0f62000d1e821b17901c565b6101f880546001600160a01b0319169055620004948162000d3e602090811b62001e2417901c565b62000c73828262000d9160201b62001e771760201c565b600082815260c9602090815260409091206200088f91839062001efd62000e35821b17901c565b60008281526097602090815260408083206001600160a01b038516845290915290205460ff1615620005665760008281526097602090815260408083206001600160a01b0385168085529252808320805460ff1916905551339285917ff6391f5c32d9c69d2a47ea670b442974b53935d1edc7fd64eb21e047a839171b9190a45050565b600062000d35836001600160a01b03841662000e4c565b90505b92915050565b6101c680546001600160a01b038381166001600160a01b0319831681179093556040519116919082907f8be0079c531659141344cd1fd0a4f28419497f9722a3daafe3b4186f6b6457e090600090a35050565b60008281526097602090815260408083206001600160a01b038516845290915290205460ff16620005665760008281526097602090815260408083206001600160a01b03851684529091529020805460ff1916600117905562000df13390565b6001600160a01b0316816001600160a01b0316837f2f8788117e7eff1d82e926ec794901d17c78024a50270940304540a733656f0d60405160405180910390a45050565b600062000d35836001600160a01b03841662000f50565b6000818152600183016020526040812054801562000f4557600062000e73600183620011fb565b855490915060009062000e8990600190620011fb565b905081811462000ef557600086600001828154811062000ead5762000ead62001259565b906000526020600020015490508087600001848154811062000ed35762000ed362001259565b6000918252602080832090910192909255918252600188019052604090208390555b855486908062000f095762000f096200126f565b60019003818190600052602060002001600090559055856001016000868152602001908152602001600020600090556001935050505062000d38565b600091505062000d38565b600081815260018301602052604081205462000f995750815460018181018455600084815260208082209093018490558454848252828601909352604090209190915562000d38565b50600062000d38565b82805462000fb09062001285565b90600052602060002090601f01602090048101928262000fd457600085556200101f565b82601f1062000fef57805160ff19168380011785556200101f565b828001600101855582156200101f579182015b828111156200101f57825182559160200191906001019062001002565b506200102d92915062001031565b5090565b5b808211156200102d576000815560010162001032565b634e487b7160e01b600052604160045260246000fd5b60005b838110156200107b57818101518382015260200162001061565b83811115620005da5750506000910152565b600082601f8301126200109f57600080fd5b81516001600160401b0380821115620010bc57620010bc62001048565b604051601f8301601f19908116603f01168101908282118183101715620010e757620010e762001048565b816040528381528660208588010111156200110157600080fd5b620011148460208301602089016200105e565b9695505050505050565b6001600160a01b03811681146200049457600080fd5b60008060008060008060008060006101208a8c0312156200115457600080fd5b89516001600160401b03808211156200116c57600080fd5b6200117a8d838e016200108d565b9a5060208c01519150808211156200119157600080fd5b50620011a08c828d016200108d565b98505060408a0151620011b3816200111e565b60608b0151909750620011c6816200111e565b8096505060808a0151945060a08a0151935060c08a0151925060e08a015191506101008a015190509295985092959850929598565b6000828210156200121c57634e487b7160e01b600052601160045260246000fd5b500390565b60008251620012358184602087016200105e565b9190910192915050565b6000602082840312156200125257600080fd5b5051919050565b634e487b7160e01b600052603260045260246000fd5b634e487b7160e01b600052603160045260246000fd5b600181811c908216806200129a57607f821691505b60208210811415620012bc57634e487b7160e01b600052602260045260246000fd5b50919050565b61457480620012d26000396000f3fe608060405234801561001057600080fd5b50600436106104125760003560e01c806379ba509711610220578063c43b540f11610130578063dd62ed3e116100b8578063ef8b30f711610087578063ef8b30f7146107ff578063f2fde38b146108c6578063f58978cc146108d9578063f9f8bdb7146108ec578063fa31ddbc146108f457600080fd5b8063dd62ed3e14610884578063e30c397814610897578063e63ab1e9146108a9578063ec1e7271146108be57600080fd5b8063ce96cb77116100ff578063ce96cb7714610825578063d291c52014610838578063d505accf1461084b578063d547741f1461085e578063d905777e1461087157600080fd5b8063c43b540f146107e2578063c63d75b6146107ec578063c6e6f592146107ff578063ca15c8731461081257600080fd5b806394bf804d116101b3578063a457c2d711610182578063a457c2d714610783578063a9059cbb14610796578063b3d7f6b9146107a9578063b460af94146107bc578063ba087652146107cf57600080fd5b806394bf804d1461075857806395d89b411461076b5780639a79d32b14610773578063a217fddf1461077b57600080fd5b806384b0196e116101ef57806384b0196e146107055780638da5cb5b146107205780639010d07c1461073257806391d148541461074557600080fd5b806379ba5097146106d85780637ecebe00146106e0578063817b1cd2146106f35780638456cb59146106fd57600080fd5b806336568abe116103265780634cdad506116102ae5780636a2005b91161027d5780636a2005b9146106815780636e553f651461068a57806370a082311461069d578063715018a6146106c657806376c71ca1146106ce57600080fd5b80634cdad506146104b25780635235934d1461066457806359a7715a1461066e5780635c975abb1461067657600080fd5b80633f4ba83a116102f55780633f4ba83a146105ff578063402d267d14610607578063432a25911461061a57806349f76bcc1461062e5780634c38e1941461065157600080fd5b806336568abe1461058c57806338d52e0f1461059f57806339509351146105c55780633d75e451146105d857600080fd5b80630a28a477116103a9578063248a9ca311610378578063248a9ca31461052c5780632a66f9d61461054f5780632f2ff15d14610562578063313ce567146105755780633644e5151461058457600080fd5b80630a28a477146104eb57806318160ddd146104fe5780631be877a61461050657806323b872dd1461051957600080fd5b806306fdde03116103e557806306fdde031461049d57806307a2d13a146104b2578063088816ea146104c5578063095ea7b3146104d857600080fd5b806301e1d1141461041757806301ffc9a71461043257806302e31adb14610455578063030ca9c41461046a575b600080fd5b61041f6108fc565b6040519081526020015b60405180910390f35b610445610440366004613e5d565b610916565b6040519015158152602001610429565b610468610463366004613e9c565b610941565b005b61047d610478366004613ecc565b610a56565b604080519485526020850193909352918301526060820152608001610429565b6104a5610a91565b6040516104299190613f3d565b61041f6104c0366004613ecc565b610b23565b6104686104d3366004613f50565b610b30565b6104456104e6366004613f7c565b610c94565b61041f6104f9366004613ecc565b610cac565b60fd5461041f565b610468610514366004613e9c565b610cb9565b610445610527366004613fa8565b610e6b565b61041f61053a366004613ecc565b60009081526097602052604090206001015490565b61041f61055d366004613ecc565b610e91565b610468610570366004613e9c565b610e9e565b60405160128152602001610429565b61041f610ec8565b61046861059a366004613e9c565b610ed2565b610194546001600160a01b03165b6040516001600160a01b039091168152602001610429565b6104456105d3366004613f7c565b610f50565b61041f7fc809a7fd521f10cdc3c068621a1c61d5fd9bb3f1502a773e53811bc248d919a881565b610468610f72565b61041f610615366004613fe9565b610f84565b61022c546105ad906001600160a01b031681565b610636610fb8565b60408051938452602084019290925290820152606001610429565b61046861065f366004613ecc565b6110ca565b61041f61022e5481565b61041f6111f2565b60335460ff16610445565b61022a5461041f565b61041f610698366004613e9c565b61121a565b61041f6106ab366004613fe9565b6001600160a01b0316600090815260fb602052604090205490565b610468611251565b61041f61022f5481565b610468611263565b61041f6106ee366004613fe9565b6112de565b61041f61022d5481565b6104686112fd565b61070d61131d565b6040516104299796959493929190614006565b6101c6546001600160a01b03166105ad565b6105ad61074036600461409c565b6113bd565b610445610753366004613e9c565b6113d5565b61041f610766366004613e9c565b611400565b6104a561142f565b61063661143e565b61041f600081565b610445610791366004613f7c565b611500565b6104456107a4366004613f7c565b611586565b61041f6107b7366004613ecc565b611594565b61041f6107ca3660046140be565b6115a1565b61041f6107dd3660046140be565b6115dc565b61041f61022b5481565b61041f6107fa366004613fe9565b61160c565b61041f61080d366004613ecc565b61163d565b61041f610820366004613ecc565b61164a565b61041f610833366004613fe9565b611661565b610468610846366004613ecc565b611695565b610468610859366004614100565b611739565b61046861086c366004613e9c565b61189d565b61041f61087f366004613fe9565b6118c2565b61041f610892366004614177565b6118f7565b6101f8546001600160a01b03166105ad565b61041f60008051602061451f83398151915281565b610468611922565b6104686108d4366004613fe9565b611a24565b6104686108e7366004614248565b611a97565b61041f611cda565b61041f611ce9565b600061091161090a60fd5490565b6000611f12565b905090565b60006001600160e01b03198216635a05180f60e01b148061093b575061093b82611f3e565b92915050565b7fc809a7fd521f10cdc3c068621a1c61d5fd9bb3f1502a773e53811bc248d919a861096b81611f73565b600061097a61022b5442611f7d565b50905061022b5481111561098f5761022b8190555b6109988361160c565b8411156109ec5760405162461bcd60e51b815260206004820152601b60248201527f455243343632363a206d696e74206d6f7265207468616e206d6178000000000060448201526064015b60405180910390fd5b60006109f785611594565b9050610a04848287612097565b604080516001600160a01b0386168152602081018390529081018690527fe71b504f2da589f965e35af45fe26f526978ef331fac58260c9465c233e6a37d906060015b60405180910390a15050505050565b61022a8181548110610a6757600080fd5b60009182526020909120600490910201805460018201546002830154600390930154919350919084565b606060fe8054610aa0906142ff565b80601f0160208091040260200160405190810160405280929190818152602001828054610acc906142ff565b8015610b195780601f10610aee57610100808354040283529160200191610b19565b820191906000526020600020905b815481529060010190602001808311610afc57829003601f168201915b5050505050905090565b600061093b826000611f12565b610b386120e4565b6000610b4761022b5442611f7d565b50905061022b54811115610b5c5761022b8190555b42841015610bb85760405162461bcd60e51b815260206004820152602360248201527f4e6577207573722073746172742074696d652073686f756c64206265206c617460448201526265722160e81b60648201526084016109e3565b61022a805490600090610bcc60018461434a565b81548110610bdc57610bdc614361565b906000526020600020906004020160010154905080861015610c665760405162461bcd60e51b815260206004820152603860248201527f4e6577207573722073746172742074696d652073686f756c642062652067726560448201527f61746572207468616e206c61737420656e642074696d6521000000000000000060648201526084016109e3565b6000610c7c610c7660018561434a565b83611f7d565b915050610c8b8787878461213f565b50505050505050565b600033610ca2818585612328565b5060019392505050565b600061093b82600161244c565b7fc809a7fd521f10cdc3c068621a1c61d5fd9bb3f1502a773e53811bc248d919a8610ce381611f73565b6000610cf261022b5442611f7d565b50905061022b54811115610d075761022b8190555b6000610d1285610b23565b9050610d1f848287612478565b61022c546001600160a01b031663b5add45c610d44610194546001600160a01b031690565b6040516001600160e01b031960e084901b1681526001600160a01b039091166004820152306024820152604401602060405180830381865afa158015610d8e573d6000803e3d6000fd5b505050506040513d601f19601f82011682018060405250810190610db29190614377565b610dba6111f2565b1115610e245760405162461bcd60e51b815260206004820152603360248201527f6f7574626f756e645472616e736665725368617265733a2045786365656420756044820152726e6465726c79696e67206d696e74206361702160681b60648201526084016109e3565b604080516001600160a01b0386168152602081018390529081018690527f31f69201fab7912e3ec9850e3ab705964bf46d9d4276bdcbb6d05e965e5f540190606001610a47565b600033610e798582856124c5565b610e8485858561253f565b60019150505b9392505050565b6000610e8a600083611f7d565b600082815260976020526040902060010154610eb981611f73565b610ec383836126f5565b505050565b6000610911612717565b6001600160a01b0381163314610f425760405162461bcd60e51b815260206004820152602f60248201527f416363657373436f6e74726f6c3a2063616e206f6e6c792072656e6f756e636560448201526e103937b632b9903337b91039b2b63360891b60648201526084016109e3565b610f4c8282612721565b5050565b600033610ca2818585610f6383836118f7565b610f6d9190614390565b612328565b610f7a6120e4565b610f82612743565b565b600080610f9060fd5490565b90508061022f541015610fa65750600092915050565b610e8a8161022f5461090a919061434a565b600080600080610fcb61022b5442611f7d565b509050600081905061022a8281548110610fe757610fe7614361565b906000526020600020906004020160000154421061100d5761100a826001614390565b90505b61022a5461101d9060019061434a565b8111156110335750600094859450849350915050565b600061022a828154811061104957611049614361565b906000526020600020906004020160405180608001604052908160008201548152602001600182015481526020016002820154815260200160038201548152505090506110b56301e133806b033b2e3c9fd0803ce800000083604001516127959092919063ffffffff16565b81516020909201519097919650945092505050565b6110d26120e4565b61022a546000906110e59060019061434a565b9050600061022a82815481106110fd576110fd614361565b90600052602060002090600402019050806001015442106111585760405162461bcd60e51b81526020600482015260156024820152744c6173742065706f63682068617320656e6465642160581b60448201526064016109e3565b80548311801561116757504283115b6111b35760405162461bcd60e51b815260206004820152601b60248201527f496e76616c6964206e65772065706f636820656e642074696d6521000000000060448201526064016109e3565b600181018054908490556040518490829085907f2018666ef91690428d470e03d5f27d351ed679c6d5d2d94fdeae4adad960f2da90600090a450505050565b600061022d5461022e5410156112085750600090565b61022d5461022e54610911919061434a565b60008061122a61022b5442611f7d565b50905061022b5481111561123f5761022b8190555b6112498484612852565b949350505050565b6112596120e4565b610f8260006128c5565b6101f85433906001600160a01b031681146112d25760405162461bcd60e51b815260206004820152602960248201527f4f776e61626c6532537465703a2063616c6c6572206973206e6f7420746865206044820152683732bb9037bbb732b960b91b60648201526084016109e3565b6112db816128c5565b50565b6001600160a01b0381166000908152610161602052604081205461093b565b60008051602061451f83398151915261131581611f73565b6112db612933565b60006060806000806000606061012d546000801b14801561133f575061012e54155b6113835760405162461bcd60e51b81526020600482015260156024820152741152540dcc4c8e88155b9a5b9a5d1a585b1a5e9959605a1b60448201526064016109e3565b61138b612970565b611393612980565b60408051600080825260208201909252600f60f81b9b939a50919850469750309650945092509050565b600082815260c960205260408120610e8a9083612990565b60009182526097602090815260408084206001600160a01b0393909316845291905290205460ff1690565b60008061141061022b5442611f7d565b50905061022b548111156114255761022b8190555b611249848461299c565b606060ff8054610aa0906142ff565b60008060008061145161022b5442611f7d565b509050600061022a828154811061146a5761146a614361565b90600052602060002090600402016040518060800160405290816000820154815260200160018201548152602001600282015481526020016003820154815250509050806000015142101580156114c5575080602001514211155b156114f95760408101516114ea906301e133806b033b2e3c9fd0803ce8000000612795565b81516020830151919650945092505b5050909192565b6000338161150e82866118f7565b90508381101561156e5760405162461bcd60e51b815260206004820152602560248201527f45524332303a2064656372656173656420616c6c6f77616e63652062656c6f77604482015264207a65726f60d81b60648201526084016109e3565b61157b8286868403612328565b506001949350505050565b600033610ca281858561253f565b600061093b826001611f12565b6000806115b161022b5442611f7d565b50905061022b548111156115c65761022b8190555b6115d1858585612a0f565b91505b509392505050565b6000806115ec61022b5442611f7d565b50905061022b548111156116015761022b8190555b6115d1858585612a83565b60008061161860fd5490565b90508061022f54101561162e5750600092915050565b8061022f54610e8a919061434a565b600061093b82600061244c565b600081815260c96020526040812061093b90612af7565b600061093b61166e612b01565b61169061090a856001600160a01b0316600090815260fb602052604090205490565b612bc6565b61169d6120e4565b61022f54818114156117025760405162461bcd60e51b815260206004820152602860248201527f4e6577206d696e7420636170206973207468652073616d6520617320746865206044820152676f6c64206f6e652160c01b60648201526084016109e3565b61022f829055604051829082907fd1213bd32c36531d10d742b4e9399fb34761d17ff26a0385a7622764a819415590600090a35050565b834211156117895760405162461bcd60e51b815260206004820152601d60248201527f45524332305065726d69743a206578706972656420646561646c696e6500000060448201526064016109e3565b60007f6e71edae12b1b97f4d1f60370fef10105fa2faae0126114a169c64845d6126c98888886117b88c612bdc565b6040805160208101969096526001600160a01b0394851690860152929091166060840152608083015260a082015260c0810186905260e001604051602081830303815290604052805190602001209050600061181382612c05565b9050600061182382878787612c32565b9050896001600160a01b0316816001600160a01b0316146118865760405162461bcd60e51b815260206004820152601e60248201527f45524332305065726d69743a20696e76616c6964207369676e6174757265000060448201526064016109e3565b6118918a8a8a612328565b50505050505050505050565b6000828152609760205260409020600101546118b881611f73565b610ec38383612721565b600061093b6118d96118d2612b01565b600061244c565b6001600160a01b038416600090815260fb6020526040902054612bc6565b6001600160a01b03918216600090815260fc6020908152604080832093909416825291909152205490565b61192a6120e4565b61022a5460009061193d9060019061434a565b9050600061022a828154811061195557611955614361565b90600052602060002090600402019050806000015442106119b85760405162461bcd60e51b815260206004820152601760248201527f4c6173742065706f63682068617320737461727465642100000000000000000060448201526064016109e3565b61022a8054806119ca576119ca6143a8565b6000828152602081206004600019909301928302018181556001810182905560028101829055600301819055915560405183917fa4075ba7201ef61684f02374dfb02ba558487bac8fefde3e664a18137b8e709791a25050565b611a2c6120e4565b6101f880546001600160a01b0383166001600160a01b03199091168117909155611a5f6101c6546001600160a01b031690565b6001600160a01b03167f38d16b8cac22d99fc7c124b9cd0de2d3fa1faef420bfe791d8c362d765e2270060405160405180910390a350565b600054610100900460ff1615808015611ab75750600054600160ff909116105b80611ad15750303b158015611ad1575060005460ff166001145b611b345760405162461bcd60e51b815260206004820152602e60248201527f496e697469616c697a61626c653a20636f6e747261637420697320616c72656160448201526d191e481a5b9a5d1a585b1a5e995960921b60648201526084016109e3565b6000805460ff191660011790558015611b57576000805461ff0019166101001790555b6001600160a01b038816611ba45760405162461bcd60e51b8152602060048201526014602482015273496e76616c69642055535820616464726573732160601b60448201526064016109e3565b6001600160a01b038716611bfa5760405162461bcd60e51b815260206004820152601f60248201527f496e76616c6964204d534420436f6e74726f6c6c65722061646472657373210060448201526064016109e3565b611c02612c5a565b611c0a612c89565b611c12612cb8565b611c1b89612cdf565b611c2488612d29565b611c2e8a8a612d59565b611c3a85858585612d8a565b61022c80546001600160a01b0319166001600160a01b03891617905561022f86905560405186906000907fd1213bd32c36531d10d742b4e9399fb34761d17ff26a0385a7622764a8194155908290a38015611891576000805461ff0019169055604051600181527f7f26b83ff96e1f2b6a682f133852f6798a09c465da95921460cefb38474024989060200160405180910390a150505050505050505050565b600061093b61022b5442611f7d565b600080611cf961022b5442611f7d565b509050600061022a8281548110611d1257611d12614361565b9060005260206000209060040201604051806080016040529081600082015481526020016001820154815260200160028201548152602001600382015481525050905080600001514210158015611d6d575080602001514211155b15611d7a57806040015192505b505090565b6001600160a01b03163b151590565b6101f880546001600160a01b03191690556112db81611e24565b611db282826113d5565b15610f4c5760008281526097602090815260408083206001600160a01b0385168085529252808320805460ff1916905551339285917ff6391f5c32d9c69d2a47ea670b442974b53935d1edc7fd64eb21e047a839171b9190a45050565b6000610e8a836001600160a01b038416612dc3565b6101c680546001600160a01b038381166001600160a01b0319831681179093556040519116919082907f8be0079c531659141344cd1fd0a4f28419497f9722a3daafe3b4186f6b6457e090600090a35050565b611e8182826113d5565b610f4c5760008281526097602090815260408083206001600160a01b03851684529091529020805460ff19166001179055611eb93390565b6001600160a01b0316816001600160a01b0316837f2f8788117e7eff1d82e926ec794901d17c78024a50270940304540a733656f0d60405160405180910390a45050565b6000610e8a836001600160a01b038416612eb6565b600080611f2261022b5442611f7d565b9150611249905084826b033b2e3c9fd0803ce800000086612f05565b60006001600160e01b03198216637965db0b60e01b148061093b57506301ffc9a760e01b6001600160e01b031983161461093b565b6112db8133612f62565b600080611fab6040518060800160405280600081526020016000815260200160008152602001600081525090565b61022a54600090865b8181101561205f5761022a8181548110611fd057611fd0614361565b9060005260206000209060040201604051806080016040529081600082015481526020016001820154815260200160028201548152602001600382015481525050935080955083602001518711612044578351871061203a578351612035908861434a565b61203d565b60005b925061205f565b83516020850151612055919061434a565b9250600101611fb4565b50604083015161208b9061208090846b033b2e3c9fd0803ce8000000612795565b606085015190612fbb565b93505050509250929050565b6120a18382612fde565b8161022d546120b09190614390565b61022d5560405182907f227a473b70d2f893cc7659219575c030a63b5743024fe1e0c1a680e708b1525a90600090a2505050565b6101c6546001600160a01b03163314610f825760405162461bcd60e51b815260206004820181905260248201527f4f776e61626c653a2063616c6c6572206973206e6f7420746865206f776e657260448201526064016109e3565b83831161218e5760405162461bcd60e51b815260206004820152601960248201527f496e76616c6964206e65772075737220656e642074696d65210000000000000060448201526064016109e3565b6b033b2e3c02dafeee38b7afa482101580156121b657506b033b2e3d523e808a07fcdb1a8211155b6121fb5760405162461bcd60e51b8152602060048201526016602482015275496e76616c6964206e6577207573722076616c75652160501b60448201526064016109e3565b60408051608081018252858152602081018581529181018481526060820184815261022a805460018082018355600083905294517fcca505edcd456b63fd0b198ec7cf976b40cd3558fe48a42b9f83b6a1ba5e0d2e60049092029182015594517fcca505edcd456b63fd0b198ec7cf976b40cd3558fe48a42b9f83b6a1ba5e0d2f86015591517fcca505edcd456b63fd0b198ec7cf976b40cd3558fe48a42b9f83b6a1ba5e0d30850155517fcca505edcd456b63fd0b198ec7cf976b40cd3558fe48a42b9f83b6a1ba5e0d319093019290925590546122da919061434a565b6040805186815260208101869052908101849052606081018390527f46fd83a5199a61044b2e176effbf33c009efba3886afb62f6c19fe18f818ae199060800160405180910390a250505050565b6001600160a01b03831661238a5760405162461bcd60e51b8152602060048201526024808201527f45524332303a20617070726f76652066726f6d20746865207a65726f206164646044820152637265737360e01b60648201526084016109e3565b6001600160a01b0382166123eb5760405162461bcd60e51b815260206004820152602260248201527f45524332303a20617070726f766520746f20746865207a65726f206164647265604482015261737360f01b60648201526084016109e3565b6001600160a01b03838116600081815260fc602090815260408083209487168084529482529182902085905590518481527f8c5be1e5ebec7d5bd14f71427d1e84f3dd0314c0f7b2291e5b200ac8c7c3b925910160405180910390a3505050565b60008061245c61022b5442611f7d565b91506112499050846b033b2e3c9fd0803ce80000008386612f05565b61248283826130ab565b8161022e546124919190614390565b61022e5560405182907ff1f1db1ecefb0a90b3cd6a1903d29374b4a935df69fd25c7fc6ed397d3683c2690600090a2505050565b60006124d184846118f7565b90506000198114612539578181101561252c5760405162461bcd60e51b815260206004820152601d60248201527f45524332303a20696e73756666696369656e7420616c6c6f77616e636500000060448201526064016109e3565b6125398484848403612328565b50505050565b6001600160a01b0383166125a35760405162461bcd60e51b815260206004820152602560248201527f45524332303a207472616e736665722066726f6d20746865207a65726f206164604482015264647265737360d81b60648201526084016109e3565b6001600160a01b0382166126055760405162461bcd60e51b815260206004820152602360248201527f45524332303a207472616e7366657220746f20746865207a65726f206164647260448201526265737360e81b60648201526084016109e3565b6126108383836131eb565b6001600160a01b038316600090815260fb6020526040902054818110156126885760405162461bcd60e51b815260206004820152602660248201527f45524332303a207472616e7366657220616d6f756e7420657863656564732062604482015265616c616e636560d01b60648201526084016109e3565b6001600160a01b03808516600081815260fb602052604080822086860390559286168082529083902080548601905591517fddf252ad1be2c89b69c2b068fc378daa952ba7f163c4a11628f55a4df523b3ef906126e89086815260200190565b60405180910390a3612539565b6126ff8282611e77565b600082815260c960205260409020610ec39082611efd565b60006109116131f3565b61272b8282611da8565b600082815260c960205260409020610ec39082611e0f565b61274b613267565b6033805460ff191690557f5db9ee0a495bf2e6ff9c91a7834c1ba4fdd244a5e8aa4e537bd38aeae4b073aa335b6040516001600160a01b03909116815260200160405180910390a1565b6000838015612835576001841680156127b0578592506127b4565b8392505b50600283046002850494505b841561282f5785860286878204146127d757600080fd5b818101818110156127e757600080fd5b859004965050600185161561282457858302838782041415871515161561280d57600080fd5b8181018181101561281d57600080fd5b8590049350505b6002850494506127c0565b506115d4565b8380156128455760009250612849565b8392505b50509392505050565b600061285d82610f84565b8311156128ac5760405162461bcd60e51b815260206004820152601e60248201527f455243343632363a206465706f736974206d6f7265207468616e206d6178000060448201526064016109e3565b60006128b78461163d565b9050610e8a338486846132b0565b6128e260006128dd6101c6546001600160a01b031690565b612721565b61290760008051602061451f8339815191526128dd6101c6546001600160a01b031690565b61291081611d8e565b61291b6000826126f5565b6112db60008051602061451f833981519152826126f5565b61293b6133f5565b6033805460ff191660011790557f62e78cea01bee320cd4e420270b5ea74000d11b0c9f74754ebdbfc544b05a2586127783390565b606061012f8054610aa0906142ff565b60606101308054610aa0906142ff565b6000610e8a838361343b565b60006129a78261160c565b8311156129f65760405162461bcd60e51b815260206004820152601b60248201527f455243343632363a206d696e74206d6f7265207468616e206d6178000000000060448201526064016109e3565b6000612a0184611594565b9050610e8a338483876132b0565b6000612a1a82611661565b841115612a695760405162461bcd60e51b815260206004820152601f60248201527f455243343632363a207769746864726177206d6f7265207468616e206d61780060448201526064016109e3565b6000612a7485610cac565b90506112493385858885613465565b6000612a8e826118c2565b841115612add5760405162461bcd60e51b815260206004820152601d60248201527f455243343632363a2072656465656d206d6f7265207468616e206d617800000060448201526064016109e3565b6000612ae885610b23565b90506112493385858489613465565b600061093b825490565b61022c5460009081906001600160a01b031663b5add45c612b2b610194546001600160a01b031690565b6040516001600160e01b031960e084901b1681526001600160a01b039091166004820152306024820152604401602060405180830381865afa158015612b75573d6000803e3d6000fd5b505050506040513d601f19601f82011682018060405250810190612b999190614377565b905061022e5461022d5482612bae9190614390565b1115612bc25761022e5461022d5482010391505b5090565b6000818310612bd55781610e8a565b5090919050565b6001600160a01b0381166000908152610161602052604090208054600181018255905b50919050565b600061093b612c12612717565b8360405161190160f01b8152600281019290925260228201526042902090565b6000806000612c43878787876135f5565b91509150612c50816136b9565b5095945050505050565b600054610100900460ff16612c815760405162461bcd60e51b81526004016109e3906143be565b610f82613807565b600054610100900460ff16612cb05760405162461bcd60e51b81526004016109e3906143be565b610f82613837565b600054610100900460ff16610f825760405162461bcd60e51b81526004016109e3906143be565b600054610100900460ff16612d065760405162461bcd60e51b81526004016109e3906143be565b6112db81604051806040016040528060018152602001603160f81b81525061386a565b600054610100900460ff16612d505760405162461bcd60e51b81526004016109e3906143be565b6112db816138cb565b600054610100900460ff16612d805760405162461bcd60e51b81526004016109e3906143be565b610f4c8282613951565b600054610100900460ff16612db15760405162461bcd60e51b81526004016109e3906143be565b600061022b556125398484848461213f565b60008181526001830160205260408120548015612eac576000612de760018361434a565b8554909150600090612dfb9060019061434a565b9050818114612e60576000866000018281548110612e1b57612e1b614361565b9060005260206000200154905080876000018481548110612e3e57612e3e614361565b6000918252602080832090910192909255918252600188019052604090208390555b8554869080612e7157612e716143a8565b60019003818190600052602060002001600090559055856001016000868152602001908152602001600020600090556001935050505061093b565b600091505061093b565b6000818152600183016020526040812054612efd5750815460018181018455600084815260208082209093018490558454848252828601909352604090209190915561093b565b50600061093b565b600080612f1386868661399f565b90506001836002811115612f2957612f29614409565b148015612f46575060008480612f4157612f4161441f565b868809115b15612f5957612f56600182614390565b90505b95945050505050565b612f6c82826113d5565b610f4c57612f7981613a8a565b612f84836020613a9c565b604051602001612f95929190614435565b60408051601f198184030181529082905262461bcd60e51b82526109e391600401613f3d565b60006b033b2e3c9fd0803ce8000000612fd48484613c38565b610e8a91906144aa565b6001600160a01b0382166130345760405162461bcd60e51b815260206004820152601f60248201527f45524332303a206d696e7420746f20746865207a65726f20616464726573730060448201526064016109e3565b613040600083836131eb565b8060fd60008282546130529190614390565b90915550506001600160a01b038216600081815260fb60209081526040808320805486019055518481527fddf252ad1be2c89b69c2b068fc378daa952ba7f163c4a11628f55a4df523b3ef910160405180910390a35050565b6001600160a01b03821661310b5760405162461bcd60e51b815260206004820152602160248201527f45524332303a206275726e2066726f6d20746865207a65726f206164647265736044820152607360f81b60648201526084016109e3565b613117826000836131eb565b6001600160a01b038216600090815260fb60205260409020548181101561318b5760405162461bcd60e51b815260206004820152602260248201527f45524332303a206275726e20616d6f756e7420657863656564732062616c616e604482015261636560f01b60648201526084016109e3565b6001600160a01b038316600081815260fb60209081526040808320868603905560fd80548790039055518581529192917fddf252ad1be2c89b69c2b068fc378daa952ba7f163c4a11628f55a4df523b3ef910160405180910390a3505050565b610ec36133f5565b60007f8b73c3c69bb8fe3d512ecc4cf759cc79239f7b179b0ffacaa9a75d522b39400f61321e613c65565b613226613cbf565b60408051602081019490945283019190915260608201524660808201523060a082015260c00160405160208183030381529060405280519060200120905090565b60335460ff16610f825760405162461bcd60e51b815260206004820152601460248201527314185d5cd8589b194e881b9bdd081c185d5cd95960621b60448201526064016109e3565b6001600160a01b038316158015906132d157506001600160a01b0383163014155b61331d5760405162461bcd60e51b815260206004820152601a60248201527f496e76616c696420726563697069656e7420616464726573732100000000000060448201526064016109e3565b610194546001600160a01b0316604051632770a7eb60e21b81526001600160a01b038681166004830152602482018590529190911690639dc29fac90604401600060405180830381600087803b15801561337657600080fd5b505af115801561338a573d6000803e3d6000fd5b50505050613399838383612097565b826001600160a01b0316846001600160a01b03167fdcbc1c05240f31ff3ad067ef1ee35ce4997762752e3a095284754544f4c709d784846040516133e7929190918252602082015260400190565b60405180910390a350505050565b60335460ff1615610f825760405162461bcd60e51b815260206004820152601060248201526f14185d5cd8589b194e881c185d5cd95960821b60448201526064016109e3565b600082600001828154811061345257613452614361565b9060005260206000200154905092915050565b6001600160a01b0384161580159061348657506001600160a01b0384163014155b6134d25760405162461bcd60e51b815260206004820152601a60248201527f496e76616c696420726563697069656e7420616464726573732100000000000060448201526064016109e3565b826001600160a01b0316856001600160a01b0316146134f6576134f68386836124c5565b613501838383612478565b61022c546001600160a01b0316636e839b0b613526610194546001600160a01b031690565b6040516001600160e01b031960e084901b1681526001600160a01b039182166004820152908716602482015260448101859052606401600060405180830381600087803b15801561357657600080fd5b505af115801561358a573d6000803e3d6000fd5b50505050826001600160a01b0316846001600160a01b0316866001600160a01b03167ffbde797d201c681b91056529119e0b02407c7bb96a4a2c75c01fc9667232c8db85856040516135e6929190918252602082015260400190565b60405180910390a45050505050565b6000807f7fffffffffffffffffffffffffffffff5d576e7357a4501ddfe92f46681b20a083111561362c57506000905060036136b0565b6040805160008082526020820180845289905260ff881692820192909252606081018690526080810185905260019060a0016020604051602081039080840390855afa158015613680573d6000803e3d6000fd5b5050604051601f1901519150506001600160a01b0381166136a9576000600192509250506136b0565b9150600090505b94509492505050565b60008160048111156136cd576136cd614409565b14156136d65750565b60018160048111156136ea576136ea614409565b14156137385760405162461bcd60e51b815260206004820152601860248201527f45434453413a20696e76616c6964207369676e6174757265000000000000000060448201526064016109e3565b600281600481111561374c5761374c614409565b141561379a5760405162461bcd60e51b815260206004820152601f60248201527f45434453413a20696e76616c6964207369676e6174757265206c656e6774680060448201526064016109e3565b60038160048111156137ae576137ae614409565b14156112db5760405162461bcd60e51b815260206004820152602260248201527f45434453413a20696e76616c6964207369676e6174757265202773272076616c604482015261756560f01b60648201526084016109e3565b600054610100900460ff1661382e5760405162461bcd60e51b81526004016109e3906143be565b610f82336128c5565b600054610100900460ff1661385e5760405162461bcd60e51b81526004016109e3906143be565b6033805460ff19169055565b600054610100900460ff166138915760405162461bcd60e51b81526004016109e3906143be565b81516138a59061012f906020850190613dcd565b5080516138ba90610130906020840190613dcd565b5050600061012d81905561012e5550565b600054610100900460ff166138f25760405162461bcd60e51b81526004016109e3906143be565b6000806138fe83613cf1565b915091508161390e576012613910565b805b61019480546001600160a01b039095166001600160a01b031960ff93909316600160a01b02929092166001600160a81b031990951694909417179092555050565b600054610100900460ff166139785760405162461bcd60e51b81526004016109e3906143be565b815161398b9060fe906020850190613dcd565b508051610ec39060ff906020840190613dcd565b6000808060001985870985870292508281108382030391505080600014156139da578382816139d0576139d061441f565b0492505050610e8a565b808411613a215760405162461bcd60e51b81526020600482015260156024820152744d6174683a206d756c446976206f766572666c6f7760581b60448201526064016109e3565b60008486880960026001871981018816978890046003810283188082028403028082028403028082028403028082028403028082028403029081029092039091026000889003889004909101858311909403939093029303949094049190911702949350505050565b606061093b6001600160a01b03831660145b60606000613aab8360026144cc565b613ab6906002614390565b67ffffffffffffffff811115613ace57613ace6141a5565b6040519080825280601f01601f191660200182016040528015613af8576020820181803683370190505b509050600360fc1b81600081518110613b1357613b13614361565b60200101906001600160f81b031916908160001a905350600f60fb1b81600181518110613b4257613b42614361565b60200101906001600160f81b031916908160001a9053506000613b668460026144cc565b613b71906001614390565b90505b6001811115613be9576f181899199a1a9b1b9c1cb0b131b232b360811b85600f1660108110613ba557613ba5614361565b1a60f81b828281518110613bbb57613bbb614361565b60200101906001600160f81b031916908160001a90535060049490941c93613be2816144eb565b9050613b74565b508315610e8a5760405162461bcd60e51b815260206004820181905260248201527f537472696e67733a20686578206c656e67746820696e73756666696369656e7460448201526064016109e3565b6000811580613c5c57508282613c4e81836144cc565b9250613c5a90836144aa565b145b61093b57600080fd5b600080613c70612970565b805190915015613c87578051602090910120919050565b61012d548015613c975792915050565b7fc5d2460186f7233c927e7db2dcc703c0e500b653ca82273b7bfad8045d85a4709250505090565b600080613cca612980565b805190915015613ce1578051602090910120919050565b61012e548015613c975792915050565b60408051600481526024810182526020810180516001600160e01b031663313ce56760e01b17905290516000918291829182916001600160a01b03871691613d3891614502565b600060405180830381855afa9150503d8060008114613d73576040519150601f19603f3d011682016040523d82523d6000602084013e613d78565b606091505b5091509150818015613d8c57506020815110155b15613dc057600081806020019051810190613da79190614377565b905060ff8111613dbe576001969095509350505050565b505b5060009485945092505050565b828054613dd9906142ff565b90600052602060002090601f016020900481019282613dfb5760008555613e41565b82601f10613e1457805160ff1916838001178555613e41565b82800160010185558215613e41579182015b82811115613e41578251825591602001919060010190613e26565b50612bc29291505b80821115612bc25760008155600101613e49565b600060208284031215613e6f57600080fd5b81356001600160e01b031981168114610e8a57600080fd5b6001600160a01b03811681146112db57600080fd5b60008060408385031215613eaf57600080fd5b823591506020830135613ec181613e87565b809150509250929050565b600060208284031215613ede57600080fd5b5035919050565b60005b83811015613f00578181015183820152602001613ee8565b838111156125395750506000910152565b60008151808452613f29816020860160208601613ee5565b601f01601f19169290920160200192915050565b602081526000610e8a6020830184613f11565b600080600060608486031215613f6557600080fd5b505081359360208301359350604090920135919050565b60008060408385031215613f8f57600080fd5b8235613f9a81613e87565b946020939093013593505050565b600080600060608486031215613fbd57600080fd5b8335613fc881613e87565b92506020840135613fd881613e87565b929592945050506040919091013590565b600060208284031215613ffb57600080fd5b8135610e8a81613e87565b60ff60f81b881681526000602060e08184015261402660e084018a613f11565b8381036040850152614038818a613f11565b606085018990526001600160a01b038816608086015260a0850187905284810360c0860152855180825283870192509083019060005b8181101561408a5783518352928401929184019160010161406e565b50909c9b505050505050505050505050565b600080604083850312156140af57600080fd5b50508035926020909101359150565b6000806000606084860312156140d357600080fd5b8335925060208401356140e581613e87565b915060408401356140f581613e87565b809150509250925092565b600080600080600080600060e0888a03121561411b57600080fd5b873561412681613e87565b9650602088013561413681613e87565b95506040880135945060608801359350608088013560ff8116811461415a57600080fd5b9699959850939692959460a0840135945060c09093013592915050565b6000806040838503121561418a57600080fd5b823561419581613e87565b91506020830135613ec181613e87565b634e487b7160e01b600052604160045260246000fd5b600082601f8301126141cc57600080fd5b813567ffffffffffffffff808211156141e7576141e76141a5565b604051601f8301601f19908116603f0116810190828211818310171561420f5761420f6141a5565b8160405283815286602085880101111561422857600080fd5b836020870160208301376000602085830101528094505050505092915050565b60008060008060008060008060006101208a8c03121561426757600080fd5b893567ffffffffffffffff8082111561427f57600080fd5b61428b8d838e016141bb565b9a5060208c01359150808211156142a157600080fd5b506142ae8c828d016141bb565b98505060408a01356142bf81613e87565b965060608a01356142cf81613e87565b989b979a50959860808101359760a0820135975060c0820135965060e08201359550610100909101359350915050565b600181811c9082168061431357607f821691505b60208210811415612bff57634e487b7160e01b600052602260045260246000fd5b634e487b7160e01b600052601160045260246000fd5b60008282101561435c5761435c614334565b500390565b634e487b7160e01b600052603260045260246000fd5b60006020828403121561438957600080fd5b5051919050565b600082198211156143a3576143a3614334565b500190565b634e487b7160e01b600052603160045260246000fd5b6020808252602b908201527f496e697469616c697a61626c653a20636f6e7472616374206973206e6f74206960408201526a6e697469616c697a696e6760a81b606082015260800190565b634e487b7160e01b600052602160045260246000fd5b634e487b7160e01b600052601260045260246000fd5b7f416363657373436f6e74726f6c3a206163636f756e742000000000000000000081526000835161446d816017850160208801613ee5565b7001034b99036b4b9b9b4b733903937b6329607d1b601791840191820152835161449e816028840160208801613ee5565b01602801949350505050565b6000826144c757634e487b7160e01b600052601260045260246000fd5b500490565b60008160001904831182151516156144e6576144e6614334565b500290565b6000816144fa576144fa614334565b506000190190565b60008251614514818460208701613ee5565b919091019291505056fe65d7a28e3265b37a6474929f336521b332c1681b933f6cb9f3376673440d862aa2646970667358221220468148c8a1295bdc447ea8b05689d54b2aed0cc53a11df7c56ae3a8f1285727864736f6c634300080a0033496e697469616c697a61626c653a20636f6e7472616374206973206e6f74206965d7a28e3265b37a6474929f336521b332c1681b933f6cb9f3376673440d862a",
  "devdoc": {
    "details": "User can deposit USX to get sUSX(Savings USX) earn interest.      Each sUSX accrues USX interest at the USR(USX Savings Rate).      USX will be burned when deposit and be minted again when withdraw sUSX.",
    "kind": "dev",
    "methods": {
      "DOMAIN_SEPARATOR()": {
        "details": "See {IERC20Permit-DOMAIN_SEPARATOR}."
      },
      "_addNewUsrConfig(uint256,uint256,uint256)": {
        "details": "Add a new USR config.",
        "params": {
          "_newUsr": "New USR value.",
          "_newUsrEndTime": "The end time of the new USR config.",
          "_newUsrStartTime": "The start time of the new USR config."
        }
      },
      "_deleteLastEpoch()": {
        "details": "Delete the last epoch config."
      },
      "_updateLastEpochEndTime(uint256)": {
        "details": "Update the last epoch end time.",
        "params": {
          "_newEpochEndTime": "New epoch end time to update."
        }
      },
      "acceptOwnership()": {
        "details": "The new owner accepts the ownership transfer."
      },
      "allowance(address,address)": {
        "details": "See {IERC20-allowance}."
      },
      "approve(address,uint256)": {
        "details": "See {IERC20-approve}. NOTE: If `amount` is the maximum `uint256`, the allowance is not updated on `transferFrom`. This is semantically equivalent to an infinite approval. Requirements: - `spender` cannot be the zero address."
      },
      "asset()": {
        "details": "See {IERC4626-asset}. "
      },
      "balanceOf(address)": {
        "details": "See {IERC20-balanceOf}."
      },
      "convertToAssets(uint256)": {
        "details": "See {IERC4626-convertToAssets}. "
      },
      "convertToShares(uint256)": {
        "details": "See {IERC4626-convertToShares}. "
      },
      "currentRate()": {
        "details": "Get the current accumulated USR rate."
      },
      "decreaseAllowance(address,uint256)": {
        "details": "Atomically decreases the allowance granted to `spender` by the caller. This is an alternative to {approve} that can be used as a mitigation for problems described in {IERC20-approve}. Emits an {Approval} event indicating the updated allowance. Requirements: - `spender` cannot be the zero address. - `spender` must have allowance for the caller of at least `subtractedValue`."
      },
      "deposit(uint256,address)": {
        "details": "See {IERC4626-deposit}. "
      },
      "eip712Domain()": {
        "details": "See {EIP-5267}. _Available since v4.9._"
      },
      "getRateByTime(uint256)": {
        "details": "Get the USR rate by the given time.",
        "params": {
          "_time": "The time to get the USR rate."
        },
        "returns": {
          "_rate": "The USR rate."
        }
      },
      "getRoleAdmin(bytes32)": {
        "details": "Returns the admin role that controls `role`. See {grantRole} and {revokeRole}. To change a role's admin, use {_setRoleAdmin}."
      },
      "getRoleMember(bytes32,uint256)": {
        "details": "Returns one of the accounts that have `role`. `index` must be a value between 0 and {getRoleMemberCount}, non-inclusive. Role bearers are not sorted in any particular way, and their ordering may change at any point. WARNING: When using {getRoleMember} and {getRoleMemberCount}, make sure you perform all queries on the same block. See the following https://forum.openzeppelin.com/t/iterating-over-elements-on-enumerableset-in-openzeppelin-contracts/2296[forum post] for more information."
      },
      "getRoleMemberCount(bytes32)": {
        "details": "Returns the number of accounts that have `role`. Can be used together with {getRoleMember} to enumerate all bearers of a role."
      },
      "grantRole(bytes32,address)": {
        "details": "Grants `role` to `account`. If `account` had not been already granted `role`, emits a {RoleGranted} event. Requirements: - the caller must have ``role``'s admin role. May emit a {RoleGranted} event."
      },
      "hasRole(bytes32,address)": {
        "details": "Returns `true` if `account` has been granted `role`."
      },
      "increaseAllowance(address,uint256)": {
        "details": "Atomically increases the allowance granted to `spender` by the caller. This is an alternative to {approve} that can be used as a mitigation for problems described in {IERC20-approve}. Emits an {Approval} event indicating the updated allowance. Requirements: - `spender` cannot be the zero address."
      },
      "maxDeposit(address)": {
        "details": "See {IERC4626-maxDeposit}. "
      },
      "maxMint(address)": {
        "details": "See {IERC4626-maxMint}. "
      },
      "maxRedeem(address)": {
        "details": "See {IERC4626-maxRedeem}. "
      },
      "maxWithdraw(address)": {
        "details": "See {IERC4626-maxWithdraw}. "
      },
      "mint(uint256,address)": {
        "details": "See {IERC4626-mint}. As opposed to {deposit}, minting is allowed even if the vault is in a state where the price of a share is zero. In this case, the shares will be minted without requiring any assets to be deposited."
      },
      "name()": {
        "details": "Returns the name of the token."
      },
      "nonces(address)": {
        "details": "See {IERC20Permit-nonces}."
      },
      "owner()": {
        "details": "Returns the address of the current owner."
      },
      "paused()": {
        "details": "Returns true if the contract is paused, and false otherwise."
      },
      "pendingOwner()": {
        "details": "Returns the address of the pending owner."
      },
      "permit(address,address,uint256,uint256,uint8,bytes32,bytes32)": {
        "details": "See {IERC20Permit-permit}."
      },
      "previewDeposit(uint256)": {
        "details": "See {IERC4626-previewDeposit}. "
      },
      "previewMint(uint256)": {
        "details": "See {IERC4626-previewMint}. "
      },
      "previewRedeem(uint256)": {
        "details": "See {IERC4626-previewRedeem}. "
      },
      "previewWithdraw(uint256)": {
        "details": "See {IERC4626-previewWithdraw}. "
      },
      "redeem(uint256,address,address)": {
        "details": "See {IERC4626-redeem}. "
      },
      "renounceOwnership()": {
        "details": "Leaves the contract without owner. It will not be possible to call `onlyOwner` functions. Can only be called by the current owner. NOTE: Renouncing ownership will leave the contract without an owner, thereby disabling any functionality that is only available to the owner."
      },
      "renounceRole(bytes32,address)": {
        "details": "Revokes `role` from the calling account. Roles are often managed via {grantRole} and {revokeRole}: this function's purpose is to provide a mechanism for accounts to lose their privileges if they are compromised (such as when a trusted device is misplaced). If the calling account had been revoked `role`, emits a {RoleRevoked} event. Requirements: - the caller must be `account`. May emit a {RoleRevoked} event."
      },
      "revokeRole(bytes32,address)": {
        "details": "Revokes `role` from `account`. If `account` had been granted `role`, emits a {RoleRevoked} event. Requirements: - the caller must have ``role``'s admin role. May emit a {RoleRevoked} event."
      },
      "supportsInterface(bytes4)": {
        "details": "See {IERC165-supportsInterface}."
      },
      "symbol()": {
        "details": "Returns the symbol of the token, usually a shorter version of the name."
      },
      "totalAssets()": {
        "details": "See {IERC4626-totalAssets}. "
      },
      "totalMint()": {
        "details": "Get the total amount of USX interest minted by sUSX."
      },
      "totalSupply()": {
        "details": "See {IERC20-totalSupply}."
      },
      "transfer(address,uint256)": {
        "details": "See {IERC20-transfer}. Requirements: - `to` cannot be the zero address. - the caller must have a balance of at least `amount`."
      },
      "transferFrom(address,address,uint256)": {
        "details": "See {IERC20-transferFrom}. Emits an {Approval} event indicating the updated allowance. This is not required by the EIP. See the note at the beginning of {ERC20}. NOTE: Does not update the allowance if the current allowance is the maximum `uint256`. Requirements: - `from` and `to` cannot be the zero address. - `from` must have a balance of at least `amount`. - the caller must have allowance for ``from``'s tokens of at least `amount`."
      },
      "transferOwnership(address)": {
        "details": "Starts the ownership transfer of the contract to a new account. Replaces the pending transfer if there is one. Can only be called by the current owner."
      },
      "usrConfigsLength()": {
        "details": "Get the total length of the USR configs."
      },
      "withdraw(uint256,address,address)": {
        "details": "See {IERC4626-withdraw}. "
      }
    },
    "title": "Savings USX",
    "version": 1
  },
  "userdoc": {
    "kind": "user",
    "methods": {
      "_addNewUsrConfig(uint256,uint256,uint256)": {
        "notice": "New USR config can not be inserted in the middle of the current array,         they can only be added to the end of the array."
      },
      "_deleteLastEpoch()": {
        "notice": "Only for owner, and only delete the last epoch."
      },
      "_updateLastEpochEndTime(uint256)": {
        "notice": "Only for owner, and only update the last epoch end time."
      },
      "totalMint()": {
        "notice": "Only used for the `msdController` contract.         Lazy mint USX interest, that is only minted if `totalUnstaked` > `totalStaked`.         How to use this value can be found in `msdController` contract."
      }
    },
    "notice": "This contract extends ERC4626, and there is no fee for depositing or withdrawing.",
    "version": 1
  },
  "storageLayout": {
    "storage": [
      {
        "astId": 1016,
        "contract": "src/sUSX.sol:sUSX",
        "label": "_initialized",
        "offset": 0,
        "slot": "0",
        "type": "t_uint8"
      },
      {
        "astId": 1019,
        "contract": "src/sUSX.sol:sUSX",
        "label": "_initializing",
        "offset": 1,
        "slot": "0",
        "type": "t_bool"
      },
      {
        "astId": 3644,
        "contract": "src/sUSX.sol:sUSX",
        "label": "__gap",
        "offset": 0,
        "slot": "1",
        "type": "t_array(t_uint256)50_storage"
      },
      {
        "astId": 1199,
        "contract": "src/sUSX.sol:sUSX",
        "label": "_paused",
        "offset": 0,
        "slot": "51",
        "type": "t_bool"
      },
      {
        "astId": 1304,
        "contract": "src/sUSX.sol:sUSX",
        "label": "__gap",
        "offset": 0,
        "slot": "52",
        "type": "t_array(t_uint256)49_storage"
      },
      {
        "astId": 4641,
        "contract": "src/sUSX.sol:sUSX",
        "label": "__gap",
        "offset": 0,
        "slot": "101",
        "type": "t_array(t_uint256)50_storage"
      },
      {
        "astId": 184,
        "contract": "src/sUSX.sol:sUSX",
        "label": "_roles",
        "offset": 0,
        "slot": "151",
        "type": "t_mapping(t_bytes32,t_struct(RoleData)179_storage)"
      },
      {
        "astId": 479,
        "contract": "src/sUSX.sol:sUSX",
        "label": "__gap",
        "offset": 0,
        "slot": "152",
        "type": "t_array(t_uint256)49_storage"
      },
      {
        "astId": 33,
        "contract": "src/sUSX.sol:sUSX",
        "label": "_roleMembers",
        "offset": 0,
        "slot": "201",
        "type": "t_mapping(t_bytes32,t_struct(AddressSet)5951_storage)"
      },
      {
        "astId": 143,
        "contract": "src/sUSX.sol:sUSX",
        "label": "__gap",
        "offset": 0,
        "slot": "202",
        "type": "t_array(t_uint256)49_storage"
      },
      {
        "astId": 1324,
        "contract": "src/sUSX.sol:sUSX",
        "label": "_balances",
        "offset": 0,
        "slot": "251",
        "type": "t_mapping(t_address,t_uint256)"
      },
      {
        "astId": 1330,
        "contract": "src/sUSX.sol:sUSX",
        "label": "_allowances",
        "offset": 0,
        "slot": "252",
        "type": "t_mapping(t_address,t_mapping(t_address,t_uint256))"
      },
      {
        "astId": 1332,
        "contract": "src/sUSX.sol:sUSX",
        "label": "_totalSupply",
        "offset": 0,
        "slot": "253",
        "type": "t_uint256"
      },
      {
        "astId": 1334,
        "contract": "src/sUSX.sol:sUSX",
        "label": "_name",
        "offset": 0,
        "slot": "254",
        "type": "t_string_storage"
      },
      {
        "astId": 1336,
        "contract": "src/sUSX.sol:sUSX",
        "label": "_symbol",
        "offset": 0,
        "slot": "255",
        "type": "t_string_storage"
      },
      {
        "astId": 1916,
        "contract": "src/sUSX.sol:sUSX",
        "label": "__gap",
        "offset": 0,
        "slot": "256",
        "type": "t_array(t_uint256)45_storage"
      },
      {
        "astId": 4332,
        "contract": "src/sUSX.sol:sUSX",
        "label": "_hashedName",
        "offset": 0,
        "slot": "301",
        "type": "t_bytes32"
      },
      {
        "astId": 4335,
        "contract": "src/sUSX.sol:sUSX",
        "label": "_hashedVersion",
        "offset": 0,
        "slot": "302",
        "type": "t_bytes32"
      },
      {
        "astId": 4337,
        "contract": "src/sUSX.sol:sUSX",
        "label": "_name",
        "offset": 0,
        "slot": "303",
        "type": "t_string_storage"
      },
      {
        "astId": 4339,
        "contract": "src/sUSX.sol:sUSX",
        "label": "_version",
        "offset": 0,
        "slot": "304",
        "type": "t_string_storage"
      },
      {
        "astId": 4597,
        "contract": "src/sUSX.sol:sUSX",
        "label": "__gap",
        "offset": 0,
        "slot": "305",
        "type": "t_array(t_uint256)48_storage"
      },
      {
        "astId": 2021,
        "contract": "src/sUSX.sol:sUSX",
        "label": "_nonces",
        "offset": 0,
        "slot": "353",
        "type": "t_mapping(t_address,t_struct(Counter)3651_storage)"
      },
      {
        "astId": 2029,
        "contract": "src/sUSX.sol:sUSX",
        "label": "_PERMIT_TYPEHASH_DEPRECATED_SLOT",
        "offset": 0,
        "slot": "354",
        "type": "t_bytes32"
      },
      {
        "astId": 2185,
        "contract": "src/sUSX.sol:sUSX",
        "label": "__gap",
        "offset": 0,
        "slot": "355",
        "type": "t_array(t_uint256)49_storage"
      },
      {
        "astId": 2206,
        "contract": "src/sUSX.sol:sUSX",
        "label": "_asset",
        "offset": 0,
        "slot": "404",
        "type": "t_contract(IERC20Upgradeable)1995"
      },
      {
        "astId": 2208,
        "contract": "src/sUSX.sol:sUSX",
        "label": "_underlyingDecimals",
        "offset": 20,
        "slot": "404",
        "type": "t_uint8"
      },
      {
        "astId": 2835,
        "contract": "src/sUSX.sol:sUSX",
        "label": "__gap",
        "offset": 0,
        "slot": "405",
        "type": "t_array(t_uint256)49_storage"
      },
      {
        "astId": 695,
        "contract": "src/sUSX.sol:sUSX",
        "label": "_owner",
        "offset": 0,
        "slot": "454",
        "type": "t_address"
      },
      {
        "astId": 815,
        "contract": "src/sUSX.sol:sUSX",
        "label": "__gap",
        "offset": 0,
        "slot": "455",
        "type": "t_array(t_uint256)49_storage"
      },
      {
        "astId": 604,
        "contract": "src/sUSX.sol:sUSX",
        "label": "_pendingOwner",
        "offset": 0,
        "slot": "504",
        "type": "t_address"
      },
      {
        "astId": 683,
        "contract": "src/sUSX.sol:sUSX",
        "label": "__gap",
        "offset": 0,
        "slot": "505",
        "type": "t_array(t_uint256)49_storage"
      },
      {
        "astId": 6277,
        "contract": "src/sUSX.sol:sUSX",
        "label": "usrConfigs",
        "offset": 0,
        "slot": "554",
        "type": "t_array(t_struct(USRConfig)6273_storage)dyn_storage"
      },
      {
        "astId": 6279,
        "contract": "src/sUSX.sol:sUSX",
        "label": "lastEpochId",
        "offset": 0,
        "slot": "555",
        "type": "t_uint256"
      },
      {
        "astId": 7020,
        "contract": "src/sUSX.sol:sUSX",
        "label": "msdController",
        "offset": 0,
        "slot": "556",
        "type": "t_address"
      },
      {
        "astId": 7022,
        "contract": "src/sUSX.sol:sUSX",
        "label": "totalStaked",
        "offset": 0,
        "slot": "557",
        "type": "t_uint256"
      },
      {
        "astId": 7024,
        "contract": "src/sUSX.sol:sUSX",
        "label": "totalUnstaked",
        "offset": 0,
        "slot": "558",
        "type": "t_uint256"
      },
      {
        "astId": 7026,
        "contract": "src/sUSX.sol:sUSX",
        "label": "mintCap",
        "offset": 0,
        "slot": "559",
        "type": "t_uint256"
      }
    ],
    "types": {
      "t_address": {
        "encoding": "inplace",
        "label": "address",
        "numberOfBytes": "20"
      },
      "t_array(t_bytes32)dyn_storage": {
        "base": "t_bytes32",
        "encoding": "dynamic_array",
        "label": "bytes32[]",
        "numberOfBytes": "32"
      },
      "t_array(t_struct(USRConfig)6273_storage)dyn_storage": {
        "base": "t_struct(USRConfig)6273_storage",
        "encoding": "dynamic_array",
        "label": "struct USR.USRConfig[]",
        "numberOfBytes": "32"
      },
      "t_array(t_uint256)45_storage": {
        "base": "t_uint256",
        "encoding": "inplace",
        "label": "uint256[45]",
        "numberOfBytes": "1440"
      },
      "t_array(t_uint256)48_storage": {
        "base": "t_uint256",
        "encoding": "inplace",
        "label": "uint256[48]",
        "numberOfBytes": "1536"
      },
      "t_array(t_uint256)49_storage": {
        "base": "t_uint256",
        "encoding": "inplace",
        "label": "uint256[49]",
        "numberOfBytes": "1568"
      },
      "t_array(t_uint256)50_storage": {
        "base": "t_uint256",
        "encoding": "inplace",
        "label": "uint256[50]",
        "numberOfBytes": "1600"
      },
      "t_bool": {
        "encoding": "inplace",
        "label": "bool",
        "numberOfBytes": "1"
      },
      "t_bytes32": {
        "encoding": "inplace",
        "label": "bytes32",
        "numberOfBytes": "32"
      },
      "t_contract(IERC20Upgradeable)1995": {
        "encoding": "inplace",
        "label": "contract IERC20Upgradeable",
        "numberOfBytes": "20"
      },
      "t_mapping(t_address,t_bool)": {
        "encoding": "mapping",
        "key": "t_address",
        "label": "mapping(address => bool)",
        "numberOfBytes": "32",
        "value": "t_bool"
      },
      "t_mapping(t_address,t_mapping(t_address,t_uint256))": {
        "encoding": "mapping",
        "key": "t_address",
        "label": "mapping(address => mapping(address => uint256))",
        "numberOfBytes": "32",
        "value": "t_mapping(t_address,t_uint256)"
      },
      "t_mapping(t_address,t_struct(Counter)3651_storage)": {
        "encoding": "mapping",
        "key": "t_address",
        "label": "mapping(address => struct CountersUpgradeable.Counter)",
        "numberOfBytes": "32",
        "value": "t_struct(Counter)3651_storage"
      },
      "t_mapping(t_address,t_uint256)": {
        "encoding": "mapping",
        "key": "t_address",
        "label": "mapping(address => uint256)",
        "numberOfBytes": "32",
        "value": "t_uint256"
      },
      "t_mapping(t_bytes32,t_struct(AddressSet)5951_storage)": {
        "encoding": "mapping",
        "key": "t_bytes32",
        "label": "mapping(bytes32 => struct EnumerableSetUpgradeable.AddressSet)",
        "numberOfBytes": "32",
        "value": "t_struct(AddressSet)5951_storage"
      },
      "t_mapping(t_bytes32,t_struct(RoleData)179_storage)": {
        "encoding": "mapping",
        "key": "t_bytes32",
        "label": "mapping(bytes32 => struct AccessControlUpgradeable.RoleData)",
        "numberOfBytes": "32",
        "value": "t_struct(RoleData)179_storage"
      },
      "t_mapping(t_bytes32,t_uint256)": {
        "encoding": "mapping",
        "key": "t_bytes32",
        "label": "mapping(bytes32 => uint256)",
        "numberOfBytes": "32",
        "value": "t_uint256"
      },
      "t_string_storage": {
        "encoding": "bytes",
        "label": "string",
        "numberOfBytes": "32"
      },
      "t_struct(AddressSet)5951_storage": {
        "encoding": "inplace",
        "label": "struct EnumerableSetUpgradeable.AddressSet",
        "members": [
          {
            "astId": 5950,
            "contract": "src/sUSX.sol:sUSX",
            "label": "_inner",
            "offset": 0,
            "slot": "0",
            "type": "t_struct(Set)5636_storage"
          }
        ],
        "numberOfBytes": "64"
      },
      "t_struct(Counter)3651_storage": {
        "encoding": "inplace",
        "label": "struct CountersUpgradeable.Counter",
        "members": [
          {
            "astId": 3650,
            "contract": "src/sUSX.sol:sUSX",
            "label": "_value",
            "offset": 0,
            "slot": "0",
            "type": "t_uint256"
          }
        ],
        "numberOfBytes": "32"
      },
      "t_struct(RoleData)179_storage": {
        "encoding": "inplace",
        "label": "struct AccessControlUpgradeable.RoleData",
        "members": [
          {
            "astId": 176,
            "contract": "src/sUSX.sol:sUSX",
            "label": "members",
            "offset": 0,
            "slot": "0",
            "type": "t_mapping(t_address,t_bool)"
          },
          {
            "astId": 178,
            "contract": "src/sUSX.sol:sUSX",
            "label": "adminRole",
            "offset": 0,
            "slot": "1",
            "type": "t_bytes32"
          }
        ],
        "numberOfBytes": "64"
      },
      "t_struct(Set)5636_storage": {
        "encoding": "inplace",
        "label": "struct EnumerableSetUpgradeable.Set",
        "members": [
          {
            "astId": 5631,
            "contract": "src/sUSX.sol:sUSX",
            "label": "_values",
            "offset": 0,
            "slot": "0",
            "type": "t_array(t_bytes32)dyn_storage"
          },
          {
            "astId": 5635,
            "contract": "src/sUSX.sol:sUSX",
            "label": "_indexes",
            "offset": 0,
            "slot": "1",
            "type": "t_mapping(t_bytes32,t_uint256)"
          }
        ],
        "numberOfBytes": "64"
      },
      "t_struct(USRConfig)6273_storage": {
        "encoding": "inplace",
        "label": "struct USR.USRConfig",
        "members": [
          {
            "astId": 6266,
            "contract": "src/sUSX.sol:sUSX",
            "label": "startTime",
            "offset": 0,
            "slot": "0",
            "type": "t_uint256"
          },
          {
            "astId": 6268,
            "contract": "src/sUSX.sol:sUSX",
            "label": "endTime",
            "offset": 0,
            "slot": "1",
            "type": "t_uint256"
          },
          {
            "astId": 6270,
            "contract": "src/sUSX.sol:sUSX",
            "label": "usr",
            "offset": 0,
            "slot": "2",
            "type": "t_uint256"
          },
          {
            "astId": 6272,
            "contract": "src/sUSX.sol:sUSX",
            "label": "startRate",
            "offset": 0,
            "slot": "3",
            "type": "t_uint256"
          }
        ],
        "numberOfBytes": "128"
      },
      "t_uint256": {
        "encoding": "inplace",
        "label": "uint256",
        "numberOfBytes": "32"
      },
      "t_uint8": {
        "encoding": "inplace",
        "label": "uint8",
        "numberOfBytes": "1"
      }
    }
  }
}