{
  "address": "0x1c3b44C4c49C0D69B92518D52EF716a3B0D5Bc90",
  "abi": [
    {
      "inputs": [
        {
          "internalType": "string",
          "name": "_name",
          "type": "string"
        },
        {
          "internalType": "string",
          "name": "_symbol",
          "type": "string"
        },
        {
          "internalType": "contract IERC20Upgradeable",
          "name": "_usx",
          "type": "address"
        },
        {
          "internalType": "address",
          "name": "_msdController",
          "type": "address"
        },
        {
          "internalType": "uint256",
          "name": "_mintCap",
          "type": "uint256"
        },
        {
          "internalType": "uint256",
          "name": "_initialUsrStartTime",
          "type": "uint256"
        },
        {
          "internalType": "uint256",
          "name": "_initialUsrEndTime",
          "type": "uint256"
        },
        {
          "internalType": "uint256",
          "name": "_initialUsr",
          "type": "uint256"
        },
        {
          "internalType": "uint256",
          "name": "_initialRate",
          "type": "uint256"
        }
      ],
      "stateMutability": "nonpayable",
      "type": "constructor"
    },
    {
      "anonymous": false,
      "inputs": [
        {
          "indexed": true,
          "internalType": "address",
          "name": "owner",
          "type": "address"
        },
        {
          "indexed": true,
          "internalType": "address",
          "name": "spender",
          "type": "address"
        },
        {
          "indexed": false,
          "internalType": "uint256",
          "name": "value",
          "type": "uint256"
        }
      ],
      "name": "Approval",
      "type": "event"
    },
    {
      "anonymous": false,
      "inputs": [
        {
          "indexed": true,
          "internalType": "uint256",
          "name": "deletedEpochId",
          "type": "uint256"
        }
      ],
      "name": "DeleteLastEpoch",
      "type": "event"
    },
    {
      "anonymous": false,
      "inputs": [
        {
          "indexed": true,
          "internalType": "address",
          "name": "sender",
          "type": "address"
        },
        {
          "indexed": true,
          "internalType": "address",
          "name": "owner",
          "type": "address"
        },
        {
          "indexed": false,
          "internalType": "uint256",
          "name": "assets",
          "type": "uint256"
        },
        {
          "indexed": false,
          "internalType": "uint256",
          "name": "shares",
          "type": "uint256"
        }
      ],
      "name": "Deposit",
      "type": "event"
    },
    {
      "anonymous": false,
      "inputs": [
        {
          "indexed": false,
          "internalType": "address",
          "name": "receiver",
          "type": "address"
        },
        {
          "indexed": false,
          "internalType": "uint256",
          "name": "assets",
          "type": "uint256"
        },
        {
          "indexed": false,
          "internalType": "uint256",
          "name": "shares",
          "type": "uint256"
        }
      ],
      "name": "DepositFinalized",
      "type": "event"
    },
    {
      "anonymous": false,
      "inputs": [],
      "name": "EIP712DomainChanged",
      "type": "event"
    },
    {
      "anonymous": false,
      "inputs": [
        {
          "indexed": false,
          "internalType": "uint8",
          "name": "version",
          "type": "uint8"
        }
      ],
      "name": "Initialized",
      "type": "event"
    },
    {
      "anonymous": false,
      "inputs": [
        {
          "indexed": true,
          "internalType": "uint256",
          "name": "oldMintCap",
          "type": "uint256"
        },
        {
          "indexed": true,
          "internalType": "uint256",
          "name": "newMintCap",
          "type": "uint256"
        }
      ],
      "name": "NewMintCap",
      "type": "event"
    },
    {
      "anonymous": false,
      "inputs": [
        {
          "indexed": true,
          "internalType": "uint256",
          "name": "epochId",
          "type": "uint256"
        },
        {
          "indexed": false,
          "internalType": "uint256",
          "name": "startTime",
          "type": "uint256"
        },
        {
          "indexed": false,
          "internalType": "uint256",
          "name": "endTime",
          "type": "uint256"
        },
        {
          "indexed": false,
          "internalType": "uint256",
          "name": "usr",
          "type": "uint256"
        },
        {
          "indexed": false,
          "internalType": "uint256",
          "name": "startRate",
          "type": "uint256"
        }
      ],
      "name": "NewUSRConfig",
      "type": "event"
    },
    {
      "anonymous": false,
      "inputs": [
        {
          "indexed": true,
          "internalType": "address",
          "name": "previousOwner",
          "type": "address"
        },
        {
          "indexed": true,
          "internalType": "address",
          "name": "newOwner",
          "type": "address"
        }
      ],
      "name": "OwnershipTransferStarted",
      "type": "event"
    },
    {
      "anonymous": false,
      "inputs": [
        {
          "indexed": true,
          "internalType": "address",
          "name": "previousOwner",
          "type": "address"
        },
        {
          "indexed": true,
          "internalType": "address",
          "name": "newOwner",
          "type": "address"
        }
      ],
      "name": "OwnershipTransferred",
      "type": "event"
    },
    {
      "anonymous": false,
      "inputs": [
        {
          "indexed": false,
          "internalType": "address",
          "name": "account",
          "type": "address"
        }
      ],
      "name": "Paused",
      "type": "event"
    },
    {
      "anonymous": false,
      "inputs": [
        {
          "indexed": true,
          "internalType": "bytes32",
          "name": "role",
          "type": "bytes32"
        },
        {
          "indexed": true,
          "internalType": "bytes32",
          "name": "previousAdminRole",
          "type": "bytes32"
        },
        {
          "indexed": true,
          "internalType": "bytes32",
          "name": "newAdminRole",
          "type": "bytes32"
        }
      ],
      "name": "RoleAdminChanged",
      "type": "event"
    },
    {
      "anonymous": false,
      "inputs": [
        {
          "indexed": true,
          "internalType": "bytes32",
          "name": "role",
          "type": "bytes32"
        },
        {
          "indexed": true,
          "internalType": "address",
          "name": "account",
          "type": "address"
        },
        {
          "indexed": true,
          "internalType": "address",
          "name": "sender",
          "type": "address"
        }
      ],
      "name": "RoleGranted",
      "type": "event"
    },
    {
      "anonymous": false,
      "inputs": [
        {
          "indexed": true,
          "internalType": "bytes32",
          "name": "role",
          "type": "bytes32"
        },
        {
          "indexed": true,
          "internalType": "address",
          "name": "account",
          "type": "address"
        },
        {
          "indexed": true,
          "internalType": "address",
          "name": "sender",
          "type": "address"
        }
      ],
      "name": "RoleRevoked",
      "type": "event"
    },
    {
      "anonymous": false,
      "inputs": [
        {
          "indexed": true,
          "internalType": "uint256",
          "name": "stakeAmount",
          "type": "uint256"
        }
      ],
      "name": "Stake",
      "type": "event"
    },
    {
      "anonymous": false,
      "inputs": [
        {
          "indexed": true,
          "internalType": "address",
          "name": "from",
          "type": "address"
        },
        {
          "indexed": true,
          "internalType": "address",
          "name": "to",
          "type": "address"
        },
        {
          "indexed": false,
          "internalType": "uint256",
          "name": "value",
          "type": "uint256"
        }
      ],
      "name": "Transfer",
      "type": "event"
    },
    {
      "anonymous": false,
      "inputs": [
        {
          "indexed": false,
          "internalType": "address",
          "name": "account",
          "type": "address"
        }
      ],
      "name": "Unpaused",
      "type": "event"
    },
    {
      "anonymous": false,
      "inputs": [
        {
          "indexed": true,
          "internalType": "uint256",
          "name": "unstakeAmount",
          "type": "uint256"
        }
      ],
      "name": "Unstake",
      "type": "event"
    },
    {
      "anonymous": false,
      "inputs": [
        {
          "indexed": true,
          "internalType": "uint256",
          "name": "epochId",
          "type": "uint256"
        },
        {
          "indexed": true,
          "internalType": "uint256",
          "name": "oldEndTime",
          "type": "uint256"
        },
        {
          "indexed": true,
          "internalType": "uint256",
          "name": "newEndTime",
          "type": "uint256"
        }
      ],
      "name": "UpdateEpochEndTime",
      "type": "event"
    },
    {
      "anonymous": false,
      "inputs": [
        {
          "indexed": true,
          "internalType": "address",
          "name": "sender",
          "type": "address"
        },
        {
          "indexed": true,
          "internalType": "address",
          "name": "receiver",
          "type": "address"
        },
        {
          "indexed": true,
          "internalType": "address",
          "name": "owner",
          "type": "address"
        },
        {
          "indexed": false,
          "internalType": "uint256",
          "name": "assets",
          "type": "uint256"
        },
        {
          "indexed": false,
          "internalType": "uint256",
          "name": "shares",
          "type": "uint256"
        }
      ],
      "name": "Withdraw",
      "type": "event"
    },
    {
      "anonymous": false,
      "inputs": [
        {
          "indexed": false,
          "internalType": "address",
          "name": "owner",
          "type": "address"
        },
        {
          "indexed": false,
          "internalType": "uint256",
          "name": "assets",
          "type": "uint256"
        },
        {
          "indexed": false,
          "internalType": "uint256",
          "name": "shares",
          "type": "uint256"
        }
      ],
      "name": "WithdrawalInitiated",
      "type": "event"
    },
    {
      "inputs": [],
      "name": "BRIDGER_ROLE",
      "outputs": [
        {
          "internalType": "bytes32",
          "name": "",
          "type": "bytes32"
        }
      ],
      "stateMutability": "view",
      "type": "function"
    },
    {
      "inputs": [],
      "name": "DEFAULT_ADMIN_ROLE",
      "outputs": [
        {
          "internalType": "bytes32",
          "name": "",
          "type": "bytes32"
        }
      ],
      "stateMutability": "view",
      "type": "function"
    },
    {
      "inputs": [],
      "name": "DOMAIN_SEPARATOR",
      "outputs": [
        {
          "internalType": "bytes32",
          "name": "",
          "type": "bytes32"
        }
      ],
      "stateMutability": "view",
      "type": "function"
    },
    {
      "inputs": [],
      "name": "PAUSER_ROLE",
      "outputs": [
        {
          "internalType": "bytes32",
          "name": "",
          "type": "bytes32"
        }
      ],
      "stateMutability": "view",
      "type": "function"
    },
    {
      "inputs": [
        {
          "internalType": "uint256",
          "name": "_newUsrStartTime",
          "type": "uint256"
        },
        {
          "internalType": "uint256",
          "name": "_newUsrEndTime",
          "type": "uint256"
        },
        {
          "internalType": "uint256",
          "name": "_newUsr",
          "type": "uint256"
        }
      ],
      "name": "_addNewUsrConfig",
      "outputs": [],
      "stateMutability": "nonpayable",
      "type": "function"
    },
    {
      "inputs": [],
      "name": "_deleteLastEpoch",
      "outputs": [],
      "stateMutability": "nonpayable",
      "type": "function"
    },
    {
      "inputs": [
        {
          "internalType": "uint256",
          "name": "_newMintCap",
          "type": "uint256"
        }
      ],
      "name": "_setMintCap",
      "outputs": [],
      "stateMutability": "nonpayable",
      "type": "function"
    },
    {
      "inputs": [
        {
          "internalType": "uint256",
          "name": "_newEpochEndTime",
          "type": "uint256"
        }
      ],
      "name": "_updateLastEpochEndTime",
      "outputs": [],
      "stateMutability": "nonpayable",
      "type": "function"
    },
    {
      "inputs": [],
      "name": "acceptOwnership",
      "outputs": [],
      "stateMutability": "nonpayable",
      "type": "function"
    },
    {
      "inputs": [
        {
          "internalType": "address",
          "name": "owner",
          "type": "address"
        },
        {
          "internalType": "address",
          "name": "spender",
          "type": "address"
        }
      ],
      "name": "allowance",
      "outputs": [
        {
          "internalType": "uint256",
          "name": "",
          "type": "uint256"
        }
      ],
      "stateMutability": "view",
      "type": "function"
    },
    {
      "inputs": [
        {
          "internalType": "address",
          "name": "spender",
          "type": "address"
        },
        {
          "internalType": "uint256",
          "name": "amount",
          "type": "uint256"
        }
      ],
      "name": "approve",
      "outputs": [
        {
          "internalType": "bool",
          "name": "",
          "type": "bool"
        }
      ],
      "stateMutability": "nonpayable",
      "type": "function"
    },
    {
      "inputs": [],
      "name": "asset",
      "outputs": [
        {
          "internalType": "address",
          "name": "",
          "type": "address"
        }
      ],
      "stateMutability": "view",
      "type": "function"
    },
    {
      "inputs": [
        {
          "internalType": "address",
          "name": "account",
          "type": "address"
        }
      ],
      "name": "balanceOf",
      "outputs": [
        {
          "internalType": "uint256",
          "name": "",
          "type": "uint256"
        }
      ],
      "stateMutability": "view",
      "type": "function"
    },
    {
      "inputs": [
        {
          "internalType": "uint256",
          "name": "shares",
          "type": "uint256"
        }
      ],
      "name": "convertToAssets",
      "outputs": [
        {
          "internalType": "uint256",
          "name": "",
          "type": "uint256"
        }
      ],
      "stateMutability": "view",
      "type": "function"
    },
    {
      "inputs": [
        {
          "internalType": "uint256",
          "name": "assets",
          "type": "uint256"
        }
      ],
      "name": "convertToShares",
      "outputs": [
        {
          "internalType": "uint256",
          "name": "",
          "type": "uint256"
        }
      ],
      "stateMutability": "view",
      "type": "function"
    },
    {
      "inputs": [],
      "name": "currentAPY",
      "outputs": [
        {
          "internalType": "uint256",
          "name": "_apy",
          "type": "uint256"
        },
        {
          "internalType": "uint256",
          "name": "_startTime",
          "type": "uint256"
        },
        {
          "internalType": "uint256",
          "name": "_endTime",
          "type": "uint256"
        }
      ],
      "stateMutability": "view",
      "type": "function"
    },
    {
      "inputs": [],
      "name": "currentRate",
      "outputs": [
        {
          "internalType": "uint256",
          "name": "_rate",
          "type": "uint256"
        }
      ],
      "stateMutability": "view",
      "type": "function"
    },
    {
      "inputs": [],
      "name": "decimals",
      "outputs": [
        {
          "internalType": "uint8",
          "name": "",
          "type": "uint8"
        }
      ],
      "stateMutability": "pure",
      "type": "function"
    },
    {
      "inputs": [
        {
          "internalType": "address",
          "name": "spender",
          "type": "address"
        },
        {
          "internalType": "uint256",
          "name": "subtractedValue",
          "type": "uint256"
        }
      ],
      "name": "decreaseAllowance",
      "outputs": [
        {
          "internalType": "bool",
          "name": "",
          "type": "bool"
        }
      ],
      "stateMutability": "nonpayable",
      "type": "function"
    },
    {
      "inputs": [
        {
          "internalType": "uint256",
          "name": "assets",
          "type": "uint256"
        },
        {
          "internalType": "address",
          "name": "receiver",
          "type": "address"
        }
      ],
      "name": "deposit",
      "outputs": [
        {
          "internalType": "uint256",
          "name": "",
          "type": "uint256"
        }
      ],
      "stateMutability": "nonpayable",
      "type": "function"
    },
    {
      "inputs": [],
      "name": "eip712Domain",
      "outputs": [
        {
          "internalType": "bytes1",
          "name": "fields",
          "type": "bytes1"
        },
        {
          "internalType": "string",
          "name": "name",
          "type": "string"
        },
        {
          "internalType": "string",
          "name": "version",
          "type": "string"
        },
        {
          "internalType": "uint256",
          "name": "chainId",
          "type": "uint256"
        },
        {
          "internalType": "address",
          "name": "verifyingContract",
          "type": "address"
        },
        {
          "internalType": "bytes32",
          "name": "salt",
          "type": "bytes32"
        },
        {
          "internalType": "uint256[]",
          "name": "extensions",
          "type": "uint256[]"
        }
      ],
      "stateMutability": "view",
      "type": "function"
    },
    {
      "inputs": [
        {
          "internalType": "uint256",
          "name": "shares",
          "type": "uint256"
        },
        {
          "internalType": "address",
          "name": "receiver",
          "type": "address"
        }
      ],
      "name": "finalizeInboundTransferShares",
      "outputs": [],
      "stateMutability": "nonpayable",
      "type": "function"
    },
    {
      "inputs": [
        {
          "internalType": "uint256",
          "name": "_time",
          "type": "uint256"
        }
      ],
      "name": "getRateByTime",
      "outputs": [
        {
          "internalType": "uint256",
          "name": "_rate",
          "type": "uint256"
        }
      ],
      "stateMutability": "view",
      "type": "function"
    },
    {
      "inputs": [
        {
          "internalType": "bytes32",
          "name": "role",
          "type": "bytes32"
        }
      ],
      "name": "getRoleAdmin",
      "outputs": [
        {
          "internalType": "bytes32",
          "name": "",
          "type": "bytes32"
        }
      ],
      "stateMutability": "view",
      "type": "function"
    },
    {
      "inputs": [
        {
          "internalType": "bytes32",
          "name": "role",
          "type": "bytes32"
        },
        {
          "internalType": "uint256",
          "name": "index",
          "type": "uint256"
        }
      ],
      "name": "getRoleMember",
      "outputs": [
        {
          "internalType": "address",
          "name": "",
          "type": "address"
        }
      ],
      "stateMutability": "view",
      "type": "function"
    },
    {
      "inputs": [
        {
          "internalType": "bytes32",
          "name": "role",
          "type": "bytes32"
        }
      ],
      "name": "getRoleMemberCount",
      "outputs": [
        {
          "internalType": "uint256",
          "name": "",
          "type": "uint256"
        }
      ],
      "stateMutability": "view",
      "type": "function"
    },
    {
      "inputs": [
        {
          "internalType": "bytes32",
          "name": "role",
          "type": "bytes32"
        },
        {
          "internalType": "address",
          "name": "account",
          "type": "address"
        }
      ],
      "name": "grantRole",
      "outputs": [],
      "stateMutability": "nonpayable",
      "type": "function"
    },
    {
      "inputs": [
        {
          "internalType": "bytes32",
          "name": "role",
          "type": "bytes32"
        },
        {
          "internalType": "address",
          "name": "account",
          "type": "address"
        }
      ],
      "name": "hasRole",
      "outputs": [
        {
          "internalType": "bool",
          "name": "",
          "type": "bool"
        }
      ],
      "stateMutability": "view",
      "type": "function"
    },
    {
      "inputs": [
        {
          "internalType": "address",
          "name": "spender",
          "type": "address"
        },
        {
          "internalType": "uint256",
          "name": "addedValue",
          "type": "uint256"
        }
      ],
      "name": "increaseAllowance",
      "outputs": [
        {
          "internalType": "bool",
          "name": "",
          "type": "bool"
        }
      ],
      "stateMutability": "nonpayable",
      "type": "function"
    },
    {
      "inputs": [
        {
          "internalType": "string",
          "name": "_name",
          "type": "string"
        },
        {
          "internalType": "string",
          "name": "_symbol",
          "type": "string"
        },
        {
          "internalType": "contract IERC20Upgradeable",
          "name": "_usx",
          "type": "address"
        },
        {
          "internalType": "address",
          "name": "_msdController",
          "type": "address"
        },
        {
          "internalType": "uint256",
          "name": "_mintCap",
          "type": "uint256"
        },
        {
          "internalType": "uint256",
          "name": "_initialUsrStartTime",
          "type": "uint256"
        },
        {
          "internalType": "uint256",
          "name": "_initialUsrEndTime",
          "type": "uint256"
        },
        {
          "internalType": "uint256",
          "name": "_initialUsr",
          "type": "uint256"
        },
        {
          "internalType": "uint256",
          "name": "_initialRate",
          "type": "uint256"
        }
      ],
      "name": "initialize",
      "outputs": [],
      "stateMutability": "nonpayable",
      "type": "function"
    },
    {
      "inputs": [],
      "name": "lastEpochId",
      "outputs": [
        {
          "internalType": "uint256",
          "name": "",
          "type": "uint256"
        }
      ],
      "stateMutability": "view",
      "type": "function"
    },
    {
      "inputs": [
        {
          "internalType": "address",
          "name": "",
          "type": "address"
        }
      ],
      "name": "maxDeposit",
      "outputs": [
        {
          "internalType": "uint256",
          "name": "",
          "type": "uint256"
        }
      ],
      "stateMutability": "view",
      "type": "function"
    },
    {
      "inputs": [
        {
          "internalType": "address",
          "name": "",
          "type": "address"
        }
      ],
      "name": "maxMint",
      "outputs": [
        {
          "internalType": "uint256",
          "name": "",
          "type": "uint256"
        }
      ],
      "stateMutability": "view",
      "type": "function"
    },
    {
      "inputs": [
        {
          "internalType": "address",
          "name": "owner",
          "type": "address"
        }
      ],
      "name": "maxRedeem",
      "outputs": [
        {
          "internalType": "uint256",
          "name": "",
          "type": "uint256"
        }
      ],
      "stateMutability": "view",
      "type": "function"
    },
    {
      "inputs": [
        {
          "internalType": "address",
          "name": "owner",
          "type": "address"
        }
      ],
      "name": "maxWithdraw",
      "outputs": [
        {
          "internalType": "uint256",
          "name": "",
          "type": "uint256"
        }
      ],
      "stateMutability": "view",
      "type": "function"
    },
    {
      "inputs": [
        {
          "internalType": "uint256",
          "name": "shares",
          "type": "uint256"
        },
        {
          "internalType": "address",
          "name": "receiver",
          "type": "address"
        }
      ],
      "name": "mint",
      "outputs": [
        {
          "internalType": "uint256",
          "name": "",
          "type": "uint256"
        }
      ],
      "stateMutability": "nonpayable",
      "type": "function"
    },
    {
      "inputs": [],
      "name": "mintCap",
      "outputs": [
        {
          "internalType": "uint256",
          "name": "",
          "type": "uint256"
        }
      ],
      "stateMutability": "view",
      "type": "function"
    },
    {
      "inputs": [],
      "name": "msdController",
      "outputs": [
        {
          "internalType": "address",
          "name": "",
          "type": "address"
        }
      ],
      "stateMutability": "view",
      "type": "function"
    },
    {
      "inputs": [],
      "name": "name",
      "outputs": [
        {
          "internalType": "string",
          "name": "",
          "type": "string"
        }
      ],
      "stateMutability": "view",
      "type": "function"
    },
    {
      "inputs": [],
      "name": "nextAPY",
      "outputs": [
        {
          "internalType": "uint256",
          "name": "_apy",
          "type": "uint256"
        },
        {
          "internalType": "uint256",
          "name": "_startTime",
          "type": "uint256"
        },
        {
          "internalType": "uint256",
          "name": "_endTime",
          "type": "uint256"
        }
      ],
      "stateMutability": "view",
      "type": "function"
    },
    {
      "inputs": [
        {
          "internalType": "address",
          "name": "owner",
          "type": "address"
        }
      ],
      "name": "nonces",
      "outputs": [
        {
          "internalType": "uint256",
          "name": "",
          "type": "uint256"
        }
      ],
      "stateMutability": "view",
      "type": "function"
    },
    {
      "inputs": [
        {
          "internalType": "uint256",
          "name": "shares",
          "type": "uint256"
        },
        {
          "internalType": "address",
          "name": "owner",
          "type": "address"
        }
      ],
      "name": "outboundTransferShares",
      "outputs": [],
      "stateMutability": "nonpayable",
      "type": "function"
    },
    {
      "inputs": [],
      "name": "owner",
      "outputs": [
        {
          "internalType": "address",
          "name": "",
          "type": "address"
        }
      ],
      "stateMutability": "view",
      "type": "function"
    },
    {
      "inputs": [],
      "name": "pause",
      "outputs": [],
      "stateMutability": "nonpayable",
      "type": "function"
    },
    {
      "inputs": [],
      "name": "paused",
      "outputs": [
        {
          "internalType": "bool",
          "name": "",
          "type": "bool"
        }
      ],
      "stateMutability": "view",
      "type": "function"
    },
    {
      "inputs": [],
      "name": "pendingOwner",
      "outputs": [
        {
          "internalType": "address",
          "name": "",
          "type": "address"
        }
      ],
      "stateMutability": "view",
      "type": "function"
    },
    {
      "inputs": [
        {
          "internalType": "address",
          "name": "owner",
          "type": "address"
        },
        {
          "internalType": "address",
          "name": "spender",
          "type": "address"
        },
        {
          "internalType": "uint256",
          "name": "value",
          "type": "uint256"
        },
        {
          "internalType": "uint256",
          "name": "deadline",
          "type": "uint256"
        },
        {
          "internalType": "uint8",
          "name": "v",
          "type": "uint8"
        },
        {
          "internalType": "bytes32",
          "name": "r",
          "type": "bytes32"
        },
        {
          "internalType": "bytes32",
          "name": "s",
          "type": "bytes32"
        }
      ],
      "name": "permit",
      "outputs": [],
      "stateMutability": "nonpayable",
      "type": "function"
    },
    {
      "inputs": [
        {
          "internalType": "uint256",
          "name": "assets",
          "type": "uint256"
        }
      ],
      "name": "previewDeposit",
      "outputs": [
        {
          "internalType": "uint256",
          "name": "",
          "type": "uint256"
        }
      ],
      "stateMutability": "view",
      "type": "function"
    },
    {
      "inputs": [
        {
          "internalType": "uint256",
          "name": "shares",
          "type": "uint256"
        }
      ],
      "name": "previewMint",
      "outputs": [
        {
          "internalType": "uint256",
          "name": "",
          "type": "uint256"
        }
      ],
      "stateMutability": "view",
      "type": "function"
    },
    {
      "inputs": [
        {
          "internalType": "uint256",
          "name": "shares",
          "type": "uint256"
        }
      ],
      "name": "previewRedeem",
      "outputs": [
        {
          "internalType": "uint256",
          "name": "",
          "type": "uint256"
        }
      ],
      "stateMutability": "view",
      "type": "function"
    },
    {
      "inputs": [
        {
          "internalType": "uint256",
          "name": "assets",
          "type": "uint256"
        }
      ],
      "name": "previewWithdraw",
      "outputs": [
        {
          "internalType": "uint256",
          "name": "",
          "type": "uint256"
        }
      ],
      "stateMutability": "view",
      "type": "function"
    },
    {
      "inputs": [
        {
          "internalType": "uint256",
          "name": "shares",
          "type": "uint256"
        },
        {
          "internalType": "address",
          "name": "receiver",
          "type": "address"
        },
        {
          "internalType": "address",
          "name": "owner",
          "type": "address"
        }
      ],
      "name": "redeem",
      "outputs": [
        {
          "internalType": "uint256",
          "name": "",
          "type": "uint256"
        }
      ],
      "stateMutability": "nonpayable",
      "type": "function"
    },
    {
      "inputs": [],
      "name": "renounceOwnership",
      "outputs": [],
      "stateMutability": "nonpayable",
      "type": "function"
    },
    {
      "inputs": [
        {
          "internalType": "bytes32",
          "name": "role",
          "type": "bytes32"
        },
        {
          "internalType": "address",
          "name": "account",
          "type": "address"
        }
      ],
      "name": "renounceRole",
      "outputs": [],
      "stateMutability": "nonpayable",
      "type": "function"
    },
    {
      "inputs": [
        {
          "internalType": "bytes32",
          "name": "role",
          "type": "bytes32"
        },
        {
          "internalType": "address",
          "name": "account",
          "type": "address"
        }
      ],
      "name": "revokeRole",
      "outputs": [],
      "stateMutability": "nonpayable",
      "type": "function"
    },
    {
      "inputs": [
        {
          "internalType": "bytes4",
          "name": "interfaceId",
          "type": "bytes4"
        }
      ],
      "name": "supportsInterface",
      "outputs": [
        {
          "internalType": "bool",
          "name": "",
          "type": "bool"
        }
      ],
      "stateMutability": "view",
      "type": "function"
    },
    {
      "inputs": [],
      "name": "symbol",
      "outputs": [
        {
          "internalType": "string",
          "name": "",
          "type": "string"
        }
      ],
      "stateMutability": "view",
      "type": "function"
    },
    {
      "inputs": [],
      "name": "totalAssets",
      "outputs": [
        {
          "internalType": "uint256",
          "name": "",
          "type": "uint256"
        }
      ],
      "stateMutability": "view",
      "type": "function"
    },
    {
      "inputs": [],
      "name": "totalMint",
      "outputs": [
        {
          "internalType": "uint256",
          "name": "",
          "type": "uint256"
        }
      ],
      "stateMutability": "view",
      "type": "function"
    },
    {
      "inputs": [],
      "name": "totalStaked",
      "outputs": [
        {
          "internalType": "uint256",
          "name": "",
          "type": "uint256"
        }
      ],
      "stateMutability": "view",
      "type": "function"
    },
    {
      "inputs": [],
      "name": "totalSupply",
      "outputs": [
        {
          "internalType": "uint256",
          "name": "",
          "type": "uint256"
        }
      ],
      "stateMutability": "view",
      "type": "function"
    },
    {
      "inputs": [],
      "name": "totalUnstaked",
      "outputs": [
        {
          "internalType": "uint256",
          "name": "",
          "type": "uint256"
        }
      ],
      "stateMutability": "view",
      "type": "function"
    },
    {
      "inputs": [
        {
          "internalType": "address",
          "name": "to",
          "type": "address"
        },
        {
          "internalType": "uint256",
          "name": "amount",
          "type": "uint256"
        }
      ],
      "name": "transfer",
      "outputs": [
        {
          "internalType": "bool",
          "name": "",
          "type": "bool"
        }
      ],
      "stateMutability": "nonpayable",
      "type": "function"
    },
    {
      "inputs": [
        {
          "internalType": "address",
          "name": "from",
          "type": "address"
        },
        {
          "internalType": "address",
          "name": "to",
          "type": "address"
        },
        {
          "internalType": "uint256",
          "name": "amount",
          "type": "uint256"
        }
      ],
      "name": "transferFrom",
      "outputs": [
        {
          "internalType": "bool",
          "name": "",
          "type": "bool"
        }
      ],
      "stateMutability": "nonpayable",
      "type": "function"
    },
    {
      "inputs": [
        {
          "internalType": "address",
          "name": "newOwner",
          "type": "address"
        }
      ],
      "name": "transferOwnership",
      "outputs": [],
      "stateMutability": "nonpayable",
      "type": "function"
    },
    {
      "inputs": [],
      "name": "unpause",
      "outputs": [],
      "stateMutability": "nonpayable",
      "type": "function"
    },
    {
      "inputs": [
        {
          "internalType": "uint256",
          "name": "",
          "type": "uint256"
        }
      ],
      "name": "usrConfigs",
      "outputs": [
        {
          "internalType": "uint256",
          "name": "startTime",
          "type": "uint256"
        },
        {
          "internalType": "uint256",
          "name": "endTime",
          "type": "uint256"
        },
        {
          "internalType": "uint256",
          "name": "usr",
          "type": "uint256"
        },
        {
          "internalType": "uint256",
          "name": "startRate",
          "type": "uint256"
        }
      ],
      "stateMutability": "view",
      "type": "function"
    },
    {
      "inputs": [],
      "name": "usrConfigsLength",
      "outputs": [
        {
          "internalType": "uint256",
          "name": "",
          "type": "uint256"
        }
      ],
      "stateMutability": "view",
      "type": "function"
    },
    {
      "inputs": [
        {
          "internalType": "uint256",
          "name": "assets",
          "type": "uint256"
        },
        {
          "internalType": "address",
          "name": "receiver",
          "type": "address"
        },
        {
          "internalType": "address",
          "name": "owner",
          "type": "address"
        }
      ],
      "name": "withdraw",
      "outputs": [
        {
          "internalType": "uint256",
          "name": "",
          "type": "uint256"
        }
      ],
      "stateMutability": "nonpayable",
      "type": "function"
    }
  ],
  "transactionHash": "0x13b50b40f2b2564df3fe17fe84934c8e09ab9603e8be3eac8c439c882caadd3c",
  "args": [
    "Saving USX",
    "sUSX",
    "0x641441c631e2F909700d2f41FD87F0aA6A6b4EDb",
    "0x38a5585d347E8DFc3965C1914498EAfbDeD7c5Ff",
    "4000000000000000000000000",
    1719489600,
    1726488000,
    "1000000004431822129783702592",
    "1000000000000000000000000000"
  ],
  "numDeployments": 1,
  "solcInputHash": "4d7074d809d6a0033e997c41ecabc111",
  "bytecode": "0x60806040523480156200001157600080fd5b50604051620057dd380380620057dd833981016040819052620000349162001134565b6200004789898989898989898962000056565b505050505050505050620012c2565b600054610100900460ff1615808015620000775750600054600160ff909116105b80620000a757506200009430620002d460201b62001cd61760201c565b158015620000a7575060005460ff166001145b620001105760405162461bcd60e51b815260206004820152602e60248201527f496e697469616c697a61626c653a20636f6e747261637420697320616c72656160448201526d191e481a5b9a5d1a585b1a5e995960921b60648201526084015b60405180910390fd5b6000805460ff19166001179055801562000134576000805461ff0019166101001790555b6001600160a01b0388166200018c5760405162461bcd60e51b815260206004820152601460248201527f496e76616c696420555358206164647265737321000000000000000000000000604482015260640162000107565b6001600160a01b038716620001e45760405162461bcd60e51b815260206004820152601f60248201527f496e76616c6964204d534420436f6e74726f6c6c657220616464726573732100604482015260640162000107565b620001ee620002e3565b620001f86200034b565b62000202620003b1565b6200020d896200040d565b620002188862000497565b620002248a8a620004fe565b62000232858585856200056a565b61022c80546001600160a01b0319166001600160a01b03891617905561022f86905560405186906000907fd1213bd32c36531d10d742b4e9399fb34761d17ff26a0385a7622764a8194155908290a38015620002c8576000805461ff0019169055604051600181527f7f26b83ff96e1f2b6a682f133852f6798a09c465da95921460cefb38474024989060200160405180910390a15b50505050505050505050565b6001600160a01b03163b151590565b600054610100900460ff166200033f5760405162461bcd60e51b815260206004820152602b60248201526000805160206200579d83398151915260448201526a6e697469616c697a696e6760a81b606482015260840162000107565b62000349620005e0565b565b600054610100900460ff16620003a75760405162461bcd60e51b815260206004820152602b60248201526000805160206200579d83398151915260448201526a6e697469616c697a696e6760a81b606482015260840162000107565b6200034962000647565b600054610100900460ff16620003495760405162461bcd60e51b815260206004820152602b60248201526000805160206200579d83398151915260448201526a6e697469616c697a696e6760a81b606482015260840162000107565b600054610100900460ff16620004695760405162461bcd60e51b815260206004820152602b60248201526000805160206200579d83398151915260448201526a6e697469616c697a696e6760a81b606482015260840162000107565b6200049481604051806040016040528060018152602001603160f81b815250620006af60201b60201c565b50565b600054610100900460ff16620004f35760405162461bcd60e51b815260206004820152602b60248201526000805160206200579d83398151915260448201526a6e697469616c697a696e6760a81b606482015260840162000107565b620004948162000749565b600054610100900460ff166200055a5760405162461bcd60e51b815260206004820152602b60248201526000805160206200579d83398151915260448201526a6e697469616c697a696e6760a81b606482015260840162000107565b62000566828262000808565b5050565b600054610100900460ff16620005c65760405162461bcd60e51b815260206004820152602b60248201526000805160206200579d83398151915260448201526a6e697469616c697a696e6760a81b606482015260840162000107565b600061022b55620005da8484848462000894565b50505050565b600054610100900460ff166200063c5760405162461bcd60e51b815260206004820152602b60248201526000805160206200579d83398151915260448201526a6e697469616c697a696e6760a81b606482015260840162000107565b620003493362000a8b565b600054610100900460ff16620006a35760405162461bcd60e51b815260206004820152602b60248201526000805160206200579d83398151915260448201526a6e697469616c697a696e6760a81b606482015260840162000107565b6033805460ff19169055565b600054610100900460ff166200070b5760405162461bcd60e51b815260206004820152602b60248201526000805160206200579d83398151915260448201526a6e697469616c697a696e6760a81b606482015260840162000107565b8151620007219061012f90602085019062000fa2565b508051620007389061013090602084019062000fa2565b5050600061012d81905561012e5550565b600054610100900460ff16620007a55760405162461bcd60e51b815260206004820152602b60248201526000805160206200579d83398151915260448201526a6e697469616c697a696e6760a81b606482015260840162000107565b600080620007b38362000b11565b9150915081620007c5576012620007c7565b805b61019480546001600160a01b039095166001600160a01b031960ff93909316600160a01b02929092166001600160a81b031990951694909417179092555050565b600054610100900460ff16620008645760405162461bcd60e51b815260206004820152602b60248201526000805160206200579d83398151915260448201526a6e697469616c697a696e6760a81b606482015260840162000107565b8151620008799060fe90602085019062000fa2565b5080516200088f9060ff90602084019062000fa2565b505050565b838311620008e55760405162461bcd60e51b815260206004820152601960248201527f496e76616c6964206e65772075737220656e642074696d652100000000000000604482015260640162000107565b6b033b2e3c02dafeee38b7afa482101580156200090e57506b033b2e3d523e808a07fcdb1a8211155b6200095c5760405162461bcd60e51b815260206004820152601660248201527f496e76616c6964206e6577207573722076616c75652100000000000000000000604482015260640162000107565b60408051608081018252858152602081018581529181018481526060820184815261022a805460018082018355600083905294517fcca505edcd456b63fd0b198ec7cf976b40cd3558fe48a42b9f83b6a1ba5e0d2e60049092029182015594517fcca505edcd456b63fd0b198ec7cf976b40cd3558fe48a42b9f83b6a1ba5e0d2f86015591517fcca505edcd456b63fd0b198ec7cf976b40cd3558fe48a42b9f83b6a1ba5e0d30850155517fcca505edcd456b63fd0b198ec7cf976b40cd3558fe48a42b9f83b6a1ba5e0d3190930192909255905462000a3d9190620011fb565b6040805186815260208101869052908101849052606081018390527f46fd83a5199a61044b2e176effbf33c009efba3886afb62f6c19fe18f818ae199060800160405180910390a250505050565b62000aab600062000aa56101c6546001600160a01b031690565b62000bf6565b62000ad3600080516020620057bd83398151915262000aa56101c6546001600160a01b031690565b62000ae98162000c3460201b62001ce51760201c565b62000af660008262000c5c565b62000494600080516020620057bd8339815191528262000c5c565b60408051600481526024810182526020810180516001600160e01b031663313ce56760e01b17905290516000918291829182916001600160a01b0387169162000b5a9162001221565b600060405180830381855afa9150503d806000811462000b97576040519150601f19603f3d011682016040523d82523d6000602084013e62000b9c565b606091505b509150915081801562000bb157506020815110155b1562000be95760008180602001905181019062000bcf91906200123f565b905060ff811162000be7576001969095509350505050565b505b5060009485945092505050565b62000c0d828262000c9a60201b62001cff1760201c565b600082815260c9602090815260409091206200088f91839062001d6662000d1e821b17901c565b6101f880546001600160a01b0319169055620004948162000d3e602090811b62001d7b17901c565b62000c73828262000d9160201b62001dce1760201c565b600082815260c9602090815260409091206200088f91839062001e5462000e35821b17901c565b60008281526097602090815260408083206001600160a01b038516845290915290205460ff1615620005665760008281526097602090815260408083206001600160a01b0385168085529252808320805460ff1916905551339285917ff6391f5c32d9c69d2a47ea670b442974b53935d1edc7fd64eb21e047a839171b9190a45050565b600062000d35836001600160a01b03841662000e4c565b90505b92915050565b6101c680546001600160a01b038381166001600160a01b0319831681179093556040519116919082907f8be0079c531659141344cd1fd0a4f28419497f9722a3daafe3b4186f6b6457e090600090a35050565b60008281526097602090815260408083206001600160a01b038516845290915290205460ff16620005665760008281526097602090815260408083206001600160a01b03851684529091529020805460ff1916600117905562000df13390565b6001600160a01b0316816001600160a01b0316837f2f8788117e7eff1d82e926ec794901d17c78024a50270940304540a733656f0d60405160405180910390a45050565b600062000d35836001600160a01b03841662000f50565b6000818152600183016020526040812054801562000f4557600062000e73600183620011fb565b855490915060009062000e8990600190620011fb565b905081811462000ef557600086600001828154811062000ead5762000ead62001259565b906000526020600020015490508087600001848154811062000ed35762000ed362001259565b6000918252602080832090910192909255918252600188019052604090208390555b855486908062000f095762000f096200126f565b60019003818190600052602060002001600090559055856001016000868152602001908152602001600020600090556001935050505062000d38565b600091505062000d38565b600081815260018301602052604081205462000f995750815460018181018455600084815260208082209093018490558454848252828601909352604090209190915562000d38565b50600062000d38565b82805462000fb09062001285565b90600052602060002090601f01602090048101928262000fd457600085556200101f565b82601f1062000fef57805160ff19168380011785556200101f565b828001600101855582156200101f579182015b828111156200101f57825182559160200191906001019062001002565b506200102d92915062001031565b5090565b5b808211156200102d576000815560010162001032565b634e487b7160e01b600052604160045260246000fd5b60005b838110156200107b57818101518382015260200162001061565b83811115620005da5750506000910152565b600082601f8301126200109f57600080fd5b81516001600160401b0380821115620010bc57620010bc62001048565b604051601f8301601f19908116603f01168101908282118183101715620010e757620010e762001048565b816040528381528660208588010111156200110157600080fd5b620011148460208301602089016200105e565b9695505050505050565b6001600160a01b03811681146200049457600080fd5b60008060008060008060008060006101208a8c0312156200115457600080fd5b89516001600160401b03808211156200116c57600080fd5b6200117a8d838e016200108d565b9a5060208c01519150808211156200119157600080fd5b50620011a08c828d016200108d565b98505060408a0151620011b3816200111e565b60608b0151909750620011c6816200111e565b8096505060808a0151945060a08a0151935060c08a0151925060e08a015191506101008a015190509295985092959850929598565b6000828210156200121c57634e487b7160e01b600052601160045260246000fd5b500390565b60008251620012358184602087016200105e565b9190910192915050565b6000602082840312156200125257600080fd5b5051919050565b634e487b7160e01b600052603260045260246000fd5b634e487b7160e01b600052603160045260246000fd5b600181811c908216806200129a57607f821691505b60208210811415620012bc57634e487b7160e01b600052602260045260246000fd5b50919050565b6144cb80620012d26000396000f3fe608060405234801561001057600080fd5b50600436106104075760003560e01c806376c71ca111610220578063ba08765211610130578063d905777e116100b8578063ec1e727111610087578063ec1e7271146108b3578063ef8b30f7146107f4578063f2fde38b146108bb578063f58978cc146108ce578063f9f8bdb7146108e157600080fd5b8063d905777e14610866578063dd62ed3e14610879578063e30c39781461088c578063e63ab1e91461089e57600080fd5b8063ca15c873116100ff578063ca15c87314610807578063ce96cb771461081a578063d291c5201461082d578063d505accf14610840578063d547741f1461085357600080fd5b8063ba087652146107c4578063c43b540f146107d7578063c63d75b6146107e1578063c6e6f592146107f457600080fd5b806391d14854116101b3578063a217fddf11610182578063a217fddf14610770578063a457c2d714610778578063a9059cbb1461078b578063b3d7f6b91461079e578063b460af94146107b157600080fd5b806391d148541461073a57806394bf804d1461074d57806395d89b41146107605780639a79d32b1461076857600080fd5b80638456cb59116101ef5780638456cb59146106f257806384b0196e146106fa5780638da5cb5b146107155780639010d07c1461072757600080fd5b806376c71ca1146106c357806379ba5097146106cd5780637ecebe00146106d5578063817b1cd2146106e857600080fd5b806336568abe1161031b5780634c38e194116102ae5780635c975abb1161027d5780635c975abb1461066b5780636a2005b9146106765780636e553f651461067f57806370a0823114610692578063715018a6146106bb57600080fd5b80634c38e194146106465780634cdad506146104a75780635235934d1461065957806359a7715a1461066357600080fd5b80633f4ba83a116102ea5780633f4ba83a146105f4578063402d267d146105fc578063432a25911461060f57806349f76bcc1461062357600080fd5b806336568abe1461058157806338d52e0f1461059457806339509351146105ba5780633d75e451146105cd57600080fd5b80630a28a4771161039e578063248a9ca31161036d578063248a9ca3146105215780632a66f9d6146105445780632f2ff15d14610557578063313ce5671461056a5780633644e5151461057957600080fd5b80630a28a477146104e057806318160ddd146104f35780631be877a6146104fb57806323b872dd1461050e57600080fd5b806306fdde03116103da57806306fdde031461049257806307a2d13a146104a7578063088816ea146104ba578063095ea7b3146104cd57600080fd5b806301e1d1141461040c57806301ffc9a71461042757806302e31adb1461044a578063030ca9c41461045f575b600080fd5b6104146108e9565b6040519081526020015b60405180910390f35b61043a610435366004613db4565b610903565b604051901515815260200161041e565b61045d610458366004613df3565b61092e565b005b61047261046d366004613e23565b610a43565b60408051948552602085019390935291830152606082015260800161041e565b61049a610a7e565b60405161041e9190613e94565b6104146104b5366004613e23565b610b10565b61045d6104c8366004613ea7565b610b1d565b61043a6104db366004613ed3565b610c81565b6104146104ee366004613e23565b610c99565b60fd54610414565b61045d610509366004613df3565b610ca6565b61043a61051c366004613eff565b610e58565b61041461052f366004613e23565b60009081526097602052604090206001015490565b610414610552366004613e23565b610e7e565b61045d610565366004613df3565b610e8b565b6040516012815260200161041e565b610414610eb5565b61045d61058f366004613df3565b610ebf565b610194546001600160a01b03165b6040516001600160a01b03909116815260200161041e565b61043a6105c8366004613ed3565b610f3d565b6104147fc809a7fd521f10cdc3c068621a1c61d5fd9bb3f1502a773e53811bc248d919a881565b61045d610f5f565b61041461060a366004613f40565b610f71565b61022c546105a2906001600160a01b031681565b61062b610fa5565b6040805193845260208401929092529082015260600161041e565b61045d610654366004613e23565b6110b7565b61041461022e5481565b6104146111df565b60335460ff1661043a565b61022a54610414565b61041461068d366004613df3565b611207565b6104146106a0366004613f40565b6001600160a01b0316600090815260fb602052604090205490565b61045d61123e565b61041461022f5481565b61045d611250565b6104146106e3366004613f40565b6112cb565b61041461022d5481565b61045d6112ea565b61070261130a565b60405161041e9796959493929190613f5d565b6101c6546001600160a01b03166105a2565b6105a2610735366004613ff3565b6113aa565b61043a610748366004613df3565b6113c2565b61041461075b366004613df3565b6113ed565b61049a61141c565b61062b61142b565b610414600081565b61043a610786366004613ed3565b6114ed565b61043a610799366004613ed3565b611573565b6104146107ac366004613e23565b611581565b6104146107bf366004614015565b61158e565b6104146107d2366004614015565b6115c9565b61041461022b5481565b6104146107ef366004613f40565b6115f9565b610414610802366004613e23565b61162a565b610414610815366004613e23565b611637565b610414610828366004613f40565b61164e565b61045d61083b366004613e23565b611682565b61045d61084e366004614057565b611726565b61045d610861366004613df3565b61188a565b610414610874366004613f40565b6118af565b6104146108873660046140ce565b6118e4565b6101f8546001600160a01b03166105a2565b61041460008051602061447683398151915281565b61045d61190f565b61045d6108c9366004613f40565b611a11565b61045d6108dc36600461419f565b611a84565b610414611cc7565b60006108fe6108f760fd5490565b6000611e69565b905090565b60006001600160e01b03198216635a05180f60e01b1480610928575061092882611e95565b92915050565b7fc809a7fd521f10cdc3c068621a1c61d5fd9bb3f1502a773e53811bc248d919a861095881611eca565b600061096761022b5442611ed4565b50905061022b5481111561097c5761022b8190555b610985836115f9565b8411156109d95760405162461bcd60e51b815260206004820152601b60248201527f455243343632363a206d696e74206d6f7265207468616e206d6178000000000060448201526064015b60405180910390fd5b60006109e485611581565b90506109f1848287611fee565b604080516001600160a01b0386168152602081018390529081018690527fe71b504f2da589f965e35af45fe26f526978ef331fac58260c9465c233e6a37d906060015b60405180910390a15050505050565b61022a8181548110610a5457600080fd5b60009182526020909120600490910201805460018201546002830154600390930154919350919084565b606060fe8054610a8d90614256565b80601f0160208091040260200160405190810160405280929190818152602001828054610ab990614256565b8015610b065780601f10610adb57610100808354040283529160200191610b06565b820191906000526020600020905b815481529060010190602001808311610ae957829003601f168201915b5050505050905090565b6000610928826000611e69565b610b2561203b565b6000610b3461022b5442611ed4565b50905061022b54811115610b495761022b8190555b42841015610ba55760405162461bcd60e51b815260206004820152602360248201527f4e6577207573722073746172742074696d652073686f756c64206265206c617460448201526265722160e81b60648201526084016109d0565b61022a805490600090610bb96001846142a1565b81548110610bc957610bc96142b8565b906000526020600020906004020160010154905080861015610c535760405162461bcd60e51b815260206004820152603860248201527f4e6577207573722073746172742074696d652073686f756c642062652067726560448201527f61746572207468616e206c61737420656e642074696d6521000000000000000060648201526084016109d0565b6000610c69610c636001856142a1565b83611ed4565b915050610c7887878784612096565b50505050505050565b600033610c8f81858561227f565b5060019392505050565b60006109288260016123a3565b7fc809a7fd521f10cdc3c068621a1c61d5fd9bb3f1502a773e53811bc248d919a8610cd081611eca565b6000610cdf61022b5442611ed4565b50905061022b54811115610cf45761022b8190555b6000610cff85610b10565b9050610d0c8482876123cf565b61022c546001600160a01b031663b5add45c610d31610194546001600160a01b031690565b6040516001600160e01b031960e084901b1681526001600160a01b039091166004820152306024820152604401602060405180830381865afa158015610d7b573d6000803e3d6000fd5b505050506040513d601f19601f82011682018060405250810190610d9f91906142ce565b610da76111df565b1115610e115760405162461bcd60e51b815260206004820152603360248201527f6f7574626f756e645472616e736665725368617265733a2045786365656420756044820152726e6465726c79696e67206d696e74206361702160681b60648201526084016109d0565b604080516001600160a01b0386168152602081018390529081018690527f31f69201fab7912e3ec9850e3ab705964bf46d9d4276bdcbb6d05e965e5f540190606001610a34565b600033610e6685828561241c565b610e71858585612496565b60019150505b9392505050565b6000610e77600083611ed4565b600082815260976020526040902060010154610ea681611eca565b610eb0838361264c565b505050565b60006108fe61266e565b6001600160a01b0381163314610f2f5760405162461bcd60e51b815260206004820152602f60248201527f416363657373436f6e74726f6c3a2063616e206f6e6c792072656e6f756e636560448201526e103937b632b9903337b91039b2b63360891b60648201526084016109d0565b610f398282612678565b5050565b600033610c8f818585610f5083836118e4565b610f5a91906142e7565b61227f565b610f6761203b565b610f6f61269a565b565b600080610f7d60fd5490565b90508061022f541015610f935750600092915050565b610e778161022f546108f791906142a1565b600080600080610fb861022b5442611ed4565b509050600081905061022a8281548110610fd457610fd46142b8565b9060005260206000209060040201600001544210610ffa57610ff78260016142e7565b90505b61022a5461100a906001906142a1565b8111156110205750600094859450849350915050565b600061022a8281548110611036576110366142b8565b906000526020600020906004020160405180608001604052908160008201548152602001600182015481526020016002820154815260200160038201548152505090506110a26301e133806b033b2e3c9fd0803ce800000083604001516126ec9092919063ffffffff16565b81516020909201519097919650945092505050565b6110bf61203b565b61022a546000906110d2906001906142a1565b9050600061022a82815481106110ea576110ea6142b8565b90600052602060002090600402019050806001015442106111455760405162461bcd60e51b81526020600482015260156024820152744c6173742065706f63682068617320656e6465642160581b60448201526064016109d0565b80548311801561115457504283115b6111a05760405162461bcd60e51b815260206004820152601b60248201527f496e76616c6964206e65772065706f636820656e642074696d6521000000000060448201526064016109d0565b600181018054908490556040518490829085907f2018666ef91690428d470e03d5f27d351ed679c6d5d2d94fdeae4adad960f2da90600090a450505050565b600061022d5461022e5410156111f55750600090565b61022d5461022e546108fe91906142a1565b60008061121761022b5442611ed4565b50905061022b5481111561122c5761022b8190555b61123684846127a9565b949350505050565b61124661203b565b610f6f600061281c565b6101f85433906001600160a01b031681146112bf5760405162461bcd60e51b815260206004820152602960248201527f4f776e61626c6532537465703a2063616c6c6572206973206e6f7420746865206044820152683732bb9037bbb732b960b91b60648201526084016109d0565b6112c88161281c565b50565b6001600160a01b03811660009081526101616020526040812054610928565b60008051602061447683398151915261130281611eca565b6112c861288a565b60006060806000806000606061012d546000801b14801561132c575061012e54155b6113705760405162461bcd60e51b81526020600482015260156024820152741152540dcc4c8e88155b9a5b9a5d1a585b1a5e9959605a1b60448201526064016109d0565b6113786128c7565b6113806128d7565b60408051600080825260208201909252600f60f81b9b939a50919850469750309650945092509050565b600082815260c960205260408120610e7790836128e7565b60009182526097602090815260408084206001600160a01b0393909316845291905290205460ff1690565b6000806113fd61022b5442611ed4565b50905061022b548111156114125761022b8190555b61123684846128f3565b606060ff8054610a8d90614256565b60008060008061143e61022b5442611ed4565b509050600061022a8281548110611457576114576142b8565b90600052602060002090600402016040518060800160405290816000820154815260200160018201548152602001600282015481526020016003820154815250509050806000015142101580156114b2575080602001514211155b156114e65760408101516114d7906301e133806b033b2e3c9fd0803ce80000006126ec565b81516020830151919650945092505b5050909192565b600033816114fb82866118e4565b90508381101561155b5760405162461bcd60e51b815260206004820152602560248201527f45524332303a2064656372656173656420616c6c6f77616e63652062656c6f77604482015264207a65726f60d81b60648201526084016109d0565b611568828686840361227f565b506001949350505050565b600033610c8f818585612496565b6000610928826001611e69565b60008061159e61022b5442611ed4565b50905061022b548111156115b35761022b8190555b6115be858585612966565b91505b509392505050565b6000806115d961022b5442611ed4565b50905061022b548111156115ee5761022b8190555b6115be8585856129da565b60008061160560fd5490565b90508061022f54101561161b5750600092915050565b8061022f54610e7791906142a1565b60006109288260006123a3565b600081815260c96020526040812061092890612a4e565b600061092861165b612a58565b61167d6108f7856001600160a01b0316600090815260fb602052604090205490565b612b1d565b61168a61203b565b61022f54818114156116ef5760405162461bcd60e51b815260206004820152602860248201527f4e6577206d696e7420636170206973207468652073616d6520617320746865206044820152676f6c64206f6e652160c01b60648201526084016109d0565b61022f829055604051829082907fd1213bd32c36531d10d742b4e9399fb34761d17ff26a0385a7622764a819415590600090a35050565b834211156117765760405162461bcd60e51b815260206004820152601d60248201527f45524332305065726d69743a206578706972656420646561646c696e6500000060448201526064016109d0565b60007f6e71edae12b1b97f4d1f60370fef10105fa2faae0126114a169c64845d6126c98888886117a58c612b33565b6040805160208101969096526001600160a01b0394851690860152929091166060840152608083015260a082015260c0810186905260e001604051602081830303815290604052805190602001209050600061180082612b5c565b9050600061181082878787612b89565b9050896001600160a01b0316816001600160a01b0316146118735760405162461bcd60e51b815260206004820152601e60248201527f45524332305065726d69743a20696e76616c6964207369676e6174757265000060448201526064016109d0565b61187e8a8a8a61227f565b50505050505050505050565b6000828152609760205260409020600101546118a581611eca565b610eb08383612678565b60006109286118c66118bf612a58565b60006123a3565b6001600160a01b038416600090815260fb6020526040902054612b1d565b6001600160a01b03918216600090815260fc6020908152604080832093909416825291909152205490565b61191761203b565b61022a5460009061192a906001906142a1565b9050600061022a8281548110611942576119426142b8565b90600052602060002090600402019050806000015442106119a55760405162461bcd60e51b815260206004820152601760248201527f4c6173742065706f63682068617320737461727465642100000000000000000060448201526064016109d0565b61022a8054806119b7576119b76142ff565b6000828152602081206004600019909301928302018181556001810182905560028101829055600301819055915560405183917fa4075ba7201ef61684f02374dfb02ba558487bac8fefde3e664a18137b8e709791a25050565b611a1961203b565b6101f880546001600160a01b0383166001600160a01b03199091168117909155611a4c6101c6546001600160a01b031690565b6001600160a01b03167f38d16b8cac22d99fc7c124b9cd0de2d3fa1faef420bfe791d8c362d765e2270060405160405180910390a350565b600054610100900460ff1615808015611aa45750600054600160ff909116105b80611abe5750303b158015611abe575060005460ff166001145b611b215760405162461bcd60e51b815260206004820152602e60248201527f496e697469616c697a61626c653a20636f6e747261637420697320616c72656160448201526d191e481a5b9a5d1a585b1a5e995960921b60648201526084016109d0565b6000805460ff191660011790558015611b44576000805461ff0019166101001790555b6001600160a01b038816611b915760405162461bcd60e51b8152602060048201526014602482015273496e76616c69642055535820616464726573732160601b60448201526064016109d0565b6001600160a01b038716611be75760405162461bcd60e51b815260206004820152601f60248201527f496e76616c6964204d534420436f6e74726f6c6c65722061646472657373210060448201526064016109d0565b611bef612bb1565b611bf7612be0565b611bff612c0f565b611c0889612c36565b611c1188612c80565b611c1b8a8a612cb0565b611c2785858585612ce1565b61022c80546001600160a01b0319166001600160a01b03891617905561022f86905560405186906000907fd1213bd32c36531d10d742b4e9399fb34761d17ff26a0385a7622764a8194155908290a3801561187e576000805461ff0019169055604051600181527f7f26b83ff96e1f2b6a682f133852f6798a09c465da95921460cefb38474024989060200160405180910390a150505050505050505050565b600061092861022b5442611ed4565b6001600160a01b03163b151590565b6101f880546001600160a01b03191690556112c881611d7b565b611d0982826113c2565b15610f395760008281526097602090815260408083206001600160a01b0385168085529252808320805460ff1916905551339285917ff6391f5c32d9c69d2a47ea670b442974b53935d1edc7fd64eb21e047a839171b9190a45050565b6000610e77836001600160a01b038416612d1a565b6101c680546001600160a01b038381166001600160a01b0319831681179093556040519116919082907f8be0079c531659141344cd1fd0a4f28419497f9722a3daafe3b4186f6b6457e090600090a35050565b611dd882826113c2565b610f395760008281526097602090815260408083206001600160a01b03851684529091529020805460ff19166001179055611e103390565b6001600160a01b0316816001600160a01b0316837f2f8788117e7eff1d82e926ec794901d17c78024a50270940304540a733656f0d60405160405180910390a45050565b6000610e77836001600160a01b038416612e0d565b600080611e7961022b5442611ed4565b9150611236905084826b033b2e3c9fd0803ce800000086612e5c565b60006001600160e01b03198216637965db0b60e01b148061092857506301ffc9a760e01b6001600160e01b0319831614610928565b6112c88133612eb9565b600080611f026040518060800160405280600081526020016000815260200160008152602001600081525090565b61022a54600090865b81811015611fb65761022a8181548110611f2757611f276142b8565b9060005260206000209060040201604051806080016040529081600082015481526020016001820154815260200160028201548152602001600382015481525050935080955083602001518711611f9b5783518710611f91578351611f8c90886142a1565b611f94565b60005b9250611fb6565b83516020850151611fac91906142a1565b9250600101611f0b565b506040830151611fe290611fd790846b033b2e3c9fd0803ce80000006126ec565b606085015190612f12565b93505050509250929050565b611ff88382612f35565b8161022d5461200791906142e7565b61022d5560405182907f227a473b70d2f893cc7659219575c030a63b5743024fe1e0c1a680e708b1525a90600090a2505050565b6101c6546001600160a01b03163314610f6f5760405162461bcd60e51b815260206004820181905260248201527f4f776e61626c653a2063616c6c6572206973206e6f7420746865206f776e657260448201526064016109d0565b8383116120e55760405162461bcd60e51b815260206004820152601960248201527f496e76616c6964206e65772075737220656e642074696d65210000000000000060448201526064016109d0565b6b033b2e3c02dafeee38b7afa4821015801561210d57506b033b2e3d523e808a07fcdb1a8211155b6121525760405162461bcd60e51b8152602060048201526016602482015275496e76616c6964206e6577207573722076616c75652160501b60448201526064016109d0565b60408051608081018252858152602081018581529181018481526060820184815261022a805460018082018355600083905294517fcca505edcd456b63fd0b198ec7cf976b40cd3558fe48a42b9f83b6a1ba5e0d2e60049092029182015594517fcca505edcd456b63fd0b198ec7cf976b40cd3558fe48a42b9f83b6a1ba5e0d2f86015591517fcca505edcd456b63fd0b198ec7cf976b40cd3558fe48a42b9f83b6a1ba5e0d30850155517fcca505edcd456b63fd0b198ec7cf976b40cd3558fe48a42b9f83b6a1ba5e0d3190930192909255905461223191906142a1565b6040805186815260208101869052908101849052606081018390527f46fd83a5199a61044b2e176effbf33c009efba3886afb62f6c19fe18f818ae199060800160405180910390a250505050565b6001600160a01b0383166122e15760405162461bcd60e51b8152602060048201526024808201527f45524332303a20617070726f76652066726f6d20746865207a65726f206164646044820152637265737360e01b60648201526084016109d0565b6001600160a01b0382166123425760405162461bcd60e51b815260206004820152602260248201527f45524332303a20617070726f766520746f20746865207a65726f206164647265604482015261737360f01b60648201526084016109d0565b6001600160a01b03838116600081815260fc602090815260408083209487168084529482529182902085905590518481527f8c5be1e5ebec7d5bd14f71427d1e84f3dd0314c0f7b2291e5b200ac8c7c3b925910160405180910390a3505050565b6000806123b361022b5442611ed4565b91506112369050846b033b2e3c9fd0803ce80000008386612e5c565b6123d98382613002565b8161022e546123e891906142e7565b61022e5560405182907ff1f1db1ecefb0a90b3cd6a1903d29374b4a935df69fd25c7fc6ed397d3683c2690600090a2505050565b600061242884846118e4565b9050600019811461249057818110156124835760405162461bcd60e51b815260206004820152601d60248201527f45524332303a20696e73756666696369656e7420616c6c6f77616e636500000060448201526064016109d0565b612490848484840361227f565b50505050565b6001600160a01b0383166124fa5760405162461bcd60e51b815260206004820152602560248201527f45524332303a207472616e736665722066726f6d20746865207a65726f206164604482015264647265737360d81b60648201526084016109d0565b6001600160a01b03821661255c5760405162461bcd60e51b815260206004820152602360248201527f45524332303a207472616e7366657220746f20746865207a65726f206164647260448201526265737360e81b60648201526084016109d0565b612567838383613142565b6001600160a01b038316600090815260fb6020526040902054818110156125df5760405162461bcd60e51b815260206004820152602660248201527f45524332303a207472616e7366657220616d6f756e7420657863656564732062604482015265616c616e636560d01b60648201526084016109d0565b6001600160a01b03808516600081815260fb602052604080822086860390559286168082529083902080548601905591517fddf252ad1be2c89b69c2b068fc378daa952ba7f163c4a11628f55a4df523b3ef9061263f9086815260200190565b60405180910390a3612490565b6126568282611dce565b600082815260c960205260409020610eb09082611e54565b60006108fe61314a565b6126828282611cff565b600082815260c960205260409020610eb09082611d66565b6126a26131be565b6033805460ff191690557f5db9ee0a495bf2e6ff9c91a7834c1ba4fdd244a5e8aa4e537bd38aeae4b073aa335b6040516001600160a01b03909116815260200160405180910390a1565b600083801561278c576001841680156127075785925061270b565b8392505b50600283046002850494505b841561278657858602868782041461272e57600080fd5b8181018181101561273e57600080fd5b859004965050600185161561277b57858302838782041415871515161561276457600080fd5b8181018181101561277457600080fd5b8590049350505b600285049450612717565b506115c1565b83801561279c57600092506127a0565b8392505b50509392505050565b60006127b482610f71565b8311156128035760405162461bcd60e51b815260206004820152601e60248201527f455243343632363a206465706f736974206d6f7265207468616e206d6178000060448201526064016109d0565b600061280e8461162a565b9050610e7733848684613207565b61283960006128346101c6546001600160a01b031690565b612678565b61285e6000805160206144768339815191526128346101c6546001600160a01b031690565b61286781611ce5565b61287260008261264c565b6112c86000805160206144768339815191528261264c565b61289261334c565b6033805460ff191660011790557f62e78cea01bee320cd4e420270b5ea74000d11b0c9f74754ebdbfc544b05a2586126cf3390565b606061012f8054610a8d90614256565b60606101308054610a8d90614256565b6000610e778383613392565b60006128fe826115f9565b83111561294d5760405162461bcd60e51b815260206004820152601b60248201527f455243343632363a206d696e74206d6f7265207468616e206d6178000000000060448201526064016109d0565b600061295884611581565b9050610e7733848387613207565b60006129718261164e565b8411156129c05760405162461bcd60e51b815260206004820152601f60248201527f455243343632363a207769746864726177206d6f7265207468616e206d61780060448201526064016109d0565b60006129cb85610c99565b905061123633858588856133bc565b60006129e5826118af565b841115612a345760405162461bcd60e51b815260206004820152601d60248201527f455243343632363a2072656465656d206d6f7265207468616e206d617800000060448201526064016109d0565b6000612a3f85610b10565b905061123633858584896133bc565b6000610928825490565b61022c5460009081906001600160a01b031663b5add45c612a82610194546001600160a01b031690565b6040516001600160e01b031960e084901b1681526001600160a01b039091166004820152306024820152604401602060405180830381865afa158015612acc573d6000803e3d6000fd5b505050506040513d601f19601f82011682018060405250810190612af091906142ce565b905061022e5461022d5482612b0591906142e7565b1115612b195761022e5461022d5482010391505b5090565b6000818310612b2c5781610e77565b5090919050565b6001600160a01b0381166000908152610161602052604090208054600181018255905b50919050565b6000610928612b6961266e565b8360405161190160f01b8152600281019290925260228201526042902090565b6000806000612b9a8787878761354c565b91509150612ba781613610565b5095945050505050565b600054610100900460ff16612bd85760405162461bcd60e51b81526004016109d090614315565b610f6f61375e565b600054610100900460ff16612c075760405162461bcd60e51b81526004016109d090614315565b610f6f61378e565b600054610100900460ff16610f6f5760405162461bcd60e51b81526004016109d090614315565b600054610100900460ff16612c5d5760405162461bcd60e51b81526004016109d090614315565b6112c881604051806040016040528060018152602001603160f81b8152506137c1565b600054610100900460ff16612ca75760405162461bcd60e51b81526004016109d090614315565b6112c881613822565b600054610100900460ff16612cd75760405162461bcd60e51b81526004016109d090614315565b610f3982826138a8565b600054610100900460ff16612d085760405162461bcd60e51b81526004016109d090614315565b600061022b5561249084848484612096565b60008181526001830160205260408120548015612e03576000612d3e6001836142a1565b8554909150600090612d52906001906142a1565b9050818114612db7576000866000018281548110612d7257612d726142b8565b9060005260206000200154905080876000018481548110612d9557612d956142b8565b6000918252602080832090910192909255918252600188019052604090208390555b8554869080612dc857612dc86142ff565b600190038181906000526020600020016000905590558560010160008681526020019081526020016000206000905560019350505050610928565b6000915050610928565b6000818152600183016020526040812054612e5457508154600181810184556000848152602080822090930184905584548482528286019093526040902091909155610928565b506000610928565b600080612e6a8686866138f6565b90506001836002811115612e8057612e80614360565b148015612e9d575060008480612e9857612e98614376565b868809115b15612eb057612ead6001826142e7565b90505b95945050505050565b612ec382826113c2565b610f3957612ed0816139e1565b612edb8360206139f3565b604051602001612eec92919061438c565b60408051601f198184030181529082905262461bcd60e51b82526109d091600401613e94565b60006b033b2e3c9fd0803ce8000000612f2b8484613b8f565b610e779190614401565b6001600160a01b038216612f8b5760405162461bcd60e51b815260206004820152601f60248201527f45524332303a206d696e7420746f20746865207a65726f20616464726573730060448201526064016109d0565b612f9760008383613142565b8060fd6000828254612fa991906142e7565b90915550506001600160a01b038216600081815260fb60209081526040808320805486019055518481527fddf252ad1be2c89b69c2b068fc378daa952ba7f163c4a11628f55a4df523b3ef910160405180910390a35050565b6001600160a01b0382166130625760405162461bcd60e51b815260206004820152602160248201527f45524332303a206275726e2066726f6d20746865207a65726f206164647265736044820152607360f81b60648201526084016109d0565b61306e82600083613142565b6001600160a01b038216600090815260fb6020526040902054818110156130e25760405162461bcd60e51b815260206004820152602260248201527f45524332303a206275726e20616d6f756e7420657863656564732062616c616e604482015261636560f01b60648201526084016109d0565b6001600160a01b038316600081815260fb60209081526040808320868603905560fd80548790039055518581529192917fddf252ad1be2c89b69c2b068fc378daa952ba7f163c4a11628f55a4df523b3ef910160405180910390a3505050565b610eb061334c565b60007f8b73c3c69bb8fe3d512ecc4cf759cc79239f7b179b0ffacaa9a75d522b39400f613175613bbc565b61317d613c16565b60408051602081019490945283019190915260608201524660808201523060a082015260c00160405160208183030381529060405280519060200120905090565b60335460ff16610f6f5760405162461bcd60e51b815260206004820152601460248201527314185d5cd8589b194e881b9bdd081c185d5cd95960621b60448201526064016109d0565b6001600160a01b0383161580159061322857506001600160a01b0383163014155b6132745760405162461bcd60e51b815260206004820152601a60248201527f496e76616c696420726563697069656e7420616464726573732100000000000060448201526064016109d0565b610194546001600160a01b0316604051632770a7eb60e21b81526001600160a01b038681166004830152602482018590529190911690639dc29fac90604401600060405180830381600087803b1580156132cd57600080fd5b505af11580156132e1573d6000803e3d6000fd5b505050506132f0838383611fee565b826001600160a01b0316846001600160a01b03167fdcbc1c05240f31ff3ad067ef1ee35ce4997762752e3a095284754544f4c709d7848460405161333e929190918252602082015260400190565b60405180910390a350505050565b60335460ff1615610f6f5760405162461bcd60e51b815260206004820152601060248201526f14185d5cd8589b194e881c185d5cd95960821b60448201526064016109d0565b60008260000182815481106133a9576133a96142b8565b9060005260206000200154905092915050565b6001600160a01b038416158015906133dd57506001600160a01b0384163014155b6134295760405162461bcd60e51b815260206004820152601a60248201527f496e76616c696420726563697069656e7420616464726573732100000000000060448201526064016109d0565b826001600160a01b0316856001600160a01b03161461344d5761344d83868361241c565b6134588383836123cf565b61022c546001600160a01b0316636e839b0b61347d610194546001600160a01b031690565b6040516001600160e01b031960e084901b1681526001600160a01b039182166004820152908716602482015260448101859052606401600060405180830381600087803b1580156134cd57600080fd5b505af11580156134e1573d6000803e3d6000fd5b50505050826001600160a01b0316846001600160a01b0316866001600160a01b03167ffbde797d201c681b91056529119e0b02407c7bb96a4a2c75c01fc9667232c8db858560405161353d929190918252602082015260400190565b60405180910390a45050505050565b6000807f7fffffffffffffffffffffffffffffff5d576e7357a4501ddfe92f46681b20a08311156135835750600090506003613607565b6040805160008082526020820180845289905260ff881692820192909252606081018690526080810185905260019060a0016020604051602081039080840390855afa1580156135d7573d6000803e3d6000fd5b5050604051601f1901519150506001600160a01b03811661360057600060019250925050613607565b9150600090505b94509492505050565b600081600481111561362457613624614360565b141561362d5750565b600181600481111561364157613641614360565b141561368f5760405162461bcd60e51b815260206004820152601860248201527f45434453413a20696e76616c6964207369676e6174757265000000000000000060448201526064016109d0565b60028160048111156136a3576136a3614360565b14156136f15760405162461bcd60e51b815260206004820152601f60248201527f45434453413a20696e76616c6964207369676e6174757265206c656e6774680060448201526064016109d0565b600381600481111561370557613705614360565b14156112c85760405162461bcd60e51b815260206004820152602260248201527f45434453413a20696e76616c6964207369676e6174757265202773272076616c604482015261756560f01b60648201526084016109d0565b600054610100900460ff166137855760405162461bcd60e51b81526004016109d090614315565b610f6f3361281c565b600054610100900460ff166137b55760405162461bcd60e51b81526004016109d090614315565b6033805460ff19169055565b600054610100900460ff166137e85760405162461bcd60e51b81526004016109d090614315565b81516137fc9061012f906020850190613d24565b50805161381190610130906020840190613d24565b5050600061012d81905561012e5550565b600054610100900460ff166138495760405162461bcd60e51b81526004016109d090614315565b60008061385583613c48565b9150915081613865576012613867565b805b61019480546001600160a01b039095166001600160a01b031960ff93909316600160a01b02929092166001600160a81b031990951694909417179092555050565b600054610100900460ff166138cf5760405162461bcd60e51b81526004016109d090614315565b81516138e29060fe906020850190613d24565b508051610eb09060ff906020840190613d24565b6000808060001985870985870292508281108382030391505080600014156139315783828161392757613927614376565b0492505050610e77565b8084116139785760405162461bcd60e51b81526020600482015260156024820152744d6174683a206d756c446976206f766572666c6f7760581b60448201526064016109d0565b60008486880960026001871981018816978890046003810283188082028403028082028403028082028403028082028403028082028403029081029092039091026000889003889004909101858311909403939093029303949094049190911702949350505050565b60606109286001600160a01b03831660145b60606000613a02836002614423565b613a0d9060026142e7565b67ffffffffffffffff811115613a2557613a256140fc565b6040519080825280601f01601f191660200182016040528015613a4f576020820181803683370190505b509050600360fc1b81600081518110613a6a57613a6a6142b8565b60200101906001600160f81b031916908160001a905350600f60fb1b81600181518110613a9957613a996142b8565b60200101906001600160f81b031916908160001a9053506000613abd846002614423565b613ac89060016142e7565b90505b6001811115613b40576f181899199a1a9b1b9c1cb0b131b232b360811b85600f1660108110613afc57613afc6142b8565b1a60f81b828281518110613b1257613b126142b8565b60200101906001600160f81b031916908160001a90535060049490941c93613b3981614442565b9050613acb565b508315610e775760405162461bcd60e51b815260206004820181905260248201527f537472696e67733a20686578206c656e67746820696e73756666696369656e7460448201526064016109d0565b6000811580613bb357508282613ba58183614423565b9250613bb19083614401565b145b61092857600080fd5b600080613bc76128c7565b805190915015613bde578051602090910120919050565b61012d548015613bee5792915050565b7fc5d2460186f7233c927e7db2dcc703c0e500b653ca82273b7bfad8045d85a4709250505090565b600080613c216128d7565b805190915015613c38578051602090910120919050565b61012e548015613bee5792915050565b60408051600481526024810182526020810180516001600160e01b031663313ce56760e01b17905290516000918291829182916001600160a01b03871691613c8f91614459565b600060405180830381855afa9150503d8060008114613cca576040519150601f19603f3d011682016040523d82523d6000602084013e613ccf565b606091505b5091509150818015613ce357506020815110155b15613d1757600081806020019051810190613cfe91906142ce565b905060ff8111613d15576001969095509350505050565b505b5060009485945092505050565b828054613d3090614256565b90600052602060002090601f016020900481019282613d525760008555613d98565b82601f10613d6b57805160ff1916838001178555613d98565b82800160010185558215613d98579182015b82811115613d98578251825591602001919060010190613d7d565b50612b199291505b80821115612b195760008155600101613da0565b600060208284031215613dc657600080fd5b81356001600160e01b031981168114610e7757600080fd5b6001600160a01b03811681146112c857600080fd5b60008060408385031215613e0657600080fd5b823591506020830135613e1881613dde565b809150509250929050565b600060208284031215613e3557600080fd5b5035919050565b60005b83811015613e57578181015183820152602001613e3f565b838111156124905750506000910152565b60008151808452613e80816020860160208601613e3c565b601f01601f19169290920160200192915050565b602081526000610e776020830184613e68565b600080600060608486031215613ebc57600080fd5b505081359360208301359350604090920135919050565b60008060408385031215613ee657600080fd5b8235613ef181613dde565b946020939093013593505050565b600080600060608486031215613f1457600080fd5b8335613f1f81613dde565b92506020840135613f2f81613dde565b929592945050506040919091013590565b600060208284031215613f5257600080fd5b8135610e7781613dde565b60ff60f81b881681526000602060e081840152613f7d60e084018a613e68565b8381036040850152613f8f818a613e68565b606085018990526001600160a01b038816608086015260a0850187905284810360c0860152855180825283870192509083019060005b81811015613fe157835183529284019291840191600101613fc5565b50909c9b505050505050505050505050565b6000806040838503121561400657600080fd5b50508035926020909101359150565b60008060006060848603121561402a57600080fd5b83359250602084013561403c81613dde565b9150604084013561404c81613dde565b809150509250925092565b600080600080600080600060e0888a03121561407257600080fd5b873561407d81613dde565b9650602088013561408d81613dde565b95506040880135945060608801359350608088013560ff811681146140b157600080fd5b9699959850939692959460a0840135945060c09093013592915050565b600080604083850312156140e157600080fd5b82356140ec81613dde565b91506020830135613e1881613dde565b634e487b7160e01b600052604160045260246000fd5b600082601f83011261412357600080fd5b813567ffffffffffffffff8082111561413e5761413e6140fc565b604051601f8301601f19908116603f01168101908282118183101715614166576141666140fc565b8160405283815286602085880101111561417f57600080fd5b836020870160208301376000602085830101528094505050505092915050565b60008060008060008060008060006101208a8c0312156141be57600080fd5b893567ffffffffffffffff808211156141d657600080fd5b6141e28d838e01614112565b9a5060208c01359150808211156141f857600080fd5b506142058c828d01614112565b98505060408a013561421681613dde565b965060608a013561422681613dde565b989b979a50959860808101359760a0820135975060c0820135965060e08201359550610100909101359350915050565b600181811c9082168061426a57607f821691505b60208210811415612b5657634e487b7160e01b600052602260045260246000fd5b634e487b7160e01b600052601160045260246000fd5b6000828210156142b3576142b361428b565b500390565b634e487b7160e01b600052603260045260246000fd5b6000602082840312156142e057600080fd5b5051919050565b600082198211156142fa576142fa61428b565b500190565b634e487b7160e01b600052603160045260246000fd5b6020808252602b908201527f496e697469616c697a61626c653a20636f6e7472616374206973206e6f74206960408201526a6e697469616c697a696e6760a81b606082015260800190565b634e487b7160e01b600052602160045260246000fd5b634e487b7160e01b600052601260045260246000fd5b7f416363657373436f6e74726f6c3a206163636f756e74200000000000000000008152600083516143c4816017850160208801613e3c565b7001034b99036b4b9b9b4b733903937b6329607d1b60179184019182015283516143f5816028840160208801613e3c565b01602801949350505050565b60008261441e57634e487b7160e01b600052601260045260246000fd5b500490565b600081600019048311821515161561443d5761443d61428b565b500290565b6000816144515761445161428b565b506000190190565b6000825161446b818460208701613e3c565b919091019291505056fe65d7a28e3265b37a6474929f336521b332c1681b933f6cb9f3376673440d862aa2646970667358221220a3ffe95ebaa76a985c02cb2579210a75e4f0c45972358084b7fa5053914f4bb164736f6c634300080a0033496e697469616c697a61626c653a20636f6e7472616374206973206e6f74206965d7a28e3265b37a6474929f336521b332c1681b933f6cb9f3376673440d862a",
  "devdoc": {
    "details": "User can deposit USX to get sUSX(Savings USX) earn interest.      Each sUSX accrues USX interest at the USR(USX Savings Rate).      USX will be burned when deposit and be minted again when withdraw sUSX.",
    "kind": "dev",
    "methods": {
      "DOMAIN_SEPARATOR()": {
        "details": "See {IERC20Permit-DOMAIN_SEPARATOR}."
      },
      "_addNewUsrConfig(uint256,uint256,uint256)": {
        "details": "Add a new USR config.",
        "params": {
          "_newUsr": "New USR value.",
          "_newUsrEndTime": "The end time of the new USR config.",
          "_newUsrStartTime": "The start time of the new USR config."
        }
      },
      "_deleteLastEpoch()": {
        "details": "Delete the last epoch config."
      },
      "_updateLastEpochEndTime(uint256)": {
        "details": "Update the last epoch end time.",
        "params": {
          "_newEpochEndTime": "New epoch end time to update."
        }
      },
      "acceptOwnership()": {
        "details": "The new owner accepts the ownership transfer."
      },
      "allowance(address,address)": {
        "details": "See {IERC20-allowance}."
      },
      "approve(address,uint256)": {
        "details": "See {IERC20-approve}. NOTE: If `amount` is the maximum `uint256`, the allowance is not updated on `transferFrom`. This is semantically equivalent to an infinite approval. Requirements: - `spender` cannot be the zero address."
      },
      "asset()": {
        "details": "See {IERC4626-asset}. "
      },
      "balanceOf(address)": {
        "details": "See {IERC20-balanceOf}."
      },
      "convertToAssets(uint256)": {
        "details": "See {IERC4626-convertToAssets}. "
      },
      "convertToShares(uint256)": {
        "details": "See {IERC4626-convertToShares}. "
      },
      "currentRate()": {
        "details": "Get the current accumulated USR rate."
      },
      "decreaseAllowance(address,uint256)": {
        "details": "Atomically decreases the allowance granted to `spender` by the caller. This is an alternative to {approve} that can be used as a mitigation for problems described in {IERC20-approve}. Emits an {Approval} event indicating the updated allowance. Requirements: - `spender` cannot be the zero address. - `spender` must have allowance for the caller of at least `subtractedValue`."
      },
      "deposit(uint256,address)": {
        "details": "See {IERC4626-deposit}. "
      },
      "eip712Domain()": {
        "details": "See {EIP-5267}. _Available since v4.9._"
      },
      "getRateByTime(uint256)": {
        "details": "Get the USR rate by the given time.",
        "params": {
          "_time": "The time to get the USR rate."
        },
        "returns": {
          "_rate": "The USR rate."
        }
      },
      "getRoleAdmin(bytes32)": {
        "details": "Returns the admin role that controls `role`. See {grantRole} and {revokeRole}. To change a role's admin, use {_setRoleAdmin}."
      },
      "getRoleMember(bytes32,uint256)": {
        "details": "Returns one of the accounts that have `role`. `index` must be a value between 0 and {getRoleMemberCount}, non-inclusive. Role bearers are not sorted in any particular way, and their ordering may change at any point. WARNING: When using {getRoleMember} and {getRoleMemberCount}, make sure you perform all queries on the same block. See the following https://forum.openzeppelin.com/t/iterating-over-elements-on-enumerableset-in-openzeppelin-contracts/2296[forum post] for more information."
      },
      "getRoleMemberCount(bytes32)": {
        "details": "Returns the number of accounts that have `role`. Can be used together with {getRoleMember} to enumerate all bearers of a role."
      },
      "grantRole(bytes32,address)": {
        "details": "Grants `role` to `account`. If `account` had not been already granted `role`, emits a {RoleGranted} event. Requirements: - the caller must have ``role``'s admin role. May emit a {RoleGranted} event."
      },
      "hasRole(bytes32,address)": {
        "details": "Returns `true` if `account` has been granted `role`."
      },
      "increaseAllowance(address,uint256)": {
        "details": "Atomically increases the allowance granted to `spender` by the caller. This is an alternative to {approve} that can be used as a mitigation for problems described in {IERC20-approve}. Emits an {Approval} event indicating the updated allowance. Requirements: - `spender` cannot be the zero address."
      },
      "maxDeposit(address)": {
        "details": "See {IERC4626-maxDeposit}. "
      },
      "maxMint(address)": {
        "details": "See {IERC4626-maxMint}. "
      },
      "maxRedeem(address)": {
        "details": "See {IERC4626-maxRedeem}. "
      },
      "maxWithdraw(address)": {
        "details": "See {IERC4626-maxWithdraw}. "
      },
      "mint(uint256,address)": {
        "details": "See {IERC4626-mint}. As opposed to {deposit}, minting is allowed even if the vault is in a state where the price of a share is zero. In this case, the shares will be minted without requiring any assets to be deposited."
      },
      "name()": {
        "details": "Returns the name of the token."
      },
      "nonces(address)": {
        "details": "See {IERC20Permit-nonces}."
      },
      "owner()": {
        "details": "Returns the address of the current owner."
      },
      "paused()": {
        "details": "Returns true if the contract is paused, and false otherwise."
      },
      "pendingOwner()": {
        "details": "Returns the address of the pending owner."
      },
      "permit(address,address,uint256,uint256,uint8,bytes32,bytes32)": {
        "details": "See {IERC20Permit-permit}."
      },
      "previewDeposit(uint256)": {
        "details": "See {IERC4626-previewDeposit}. "
      },
      "previewMint(uint256)": {
        "details": "See {IERC4626-previewMint}. "
      },
      "previewRedeem(uint256)": {
        "details": "See {IERC4626-previewRedeem}. "
      },
      "previewWithdraw(uint256)": {
        "details": "See {IERC4626-previewWithdraw}. "
      },
      "redeem(uint256,address,address)": {
        "details": "See {IERC4626-redeem}. "
      },
      "renounceOwnership()": {
        "details": "Leaves the contract without owner. It will not be possible to call `onlyOwner` functions. Can only be called by the current owner. NOTE: Renouncing ownership will leave the contract without an owner, thereby disabling any functionality that is only available to the owner."
      },
      "renounceRole(bytes32,address)": {
        "details": "Revokes `role` from the calling account. Roles are often managed via {grantRole} and {revokeRole}: this function's purpose is to provide a mechanism for accounts to lose their privileges if they are compromised (such as when a trusted device is misplaced). If the calling account had been revoked `role`, emits a {RoleRevoked} event. Requirements: - the caller must be `account`. May emit a {RoleRevoked} event."
      },
      "revokeRole(bytes32,address)": {
        "details": "Revokes `role` from `account`. If `account` had been granted `role`, emits a {RoleRevoked} event. Requirements: - the caller must have ``role``'s admin role. May emit a {RoleRevoked} event."
      },
      "supportsInterface(bytes4)": {
        "details": "See {IERC165-supportsInterface}."
      },
      "symbol()": {
        "details": "Returns the symbol of the token, usually a shorter version of the name."
      },
      "totalAssets()": {
        "details": "See {IERC4626-totalAssets}. "
      },
      "totalMint()": {
        "details": "Get the total amount of USX interest minted by sUSX."
      },
      "totalSupply()": {
        "details": "See {IERC20-totalSupply}."
      },
      "transfer(address,uint256)": {
        "details": "See {IERC20-transfer}. Requirements: - `to` cannot be the zero address. - the caller must have a balance of at least `amount`."
      },
      "transferFrom(address,address,uint256)": {
        "details": "See {IERC20-transferFrom}. Emits an {Approval} event indicating the updated allowance. This is not required by the EIP. See the note at the beginning of {ERC20}. NOTE: Does not update the allowance if the current allowance is the maximum `uint256`. Requirements: - `from` and `to` cannot be the zero address. - `from` must have a balance of at least `amount`. - the caller must have allowance for ``from``'s tokens of at least `amount`."
      },
      "transferOwnership(address)": {
        "details": "Starts the ownership transfer of the contract to a new account. Replaces the pending transfer if there is one. Can only be called by the current owner."
      },
      "usrConfigsLength()": {
        "details": "Get the total length of the USR configs."
      },
      "withdraw(uint256,address,address)": {
        "details": "See {IERC4626-withdraw}. "
      }
    },
    "title": "Savings USX",
    "version": 1
  },
  "userdoc": {
    "kind": "user",
    "methods": {
      "_addNewUsrConfig(uint256,uint256,uint256)": {
        "notice": "New USR config can not be inserted in the middle of the current array,         they can only be added to the end of the array."
      },
      "_deleteLastEpoch()": {
        "notice": "Only for owner, and only delete the last epoch."
      },
      "_updateLastEpochEndTime(uint256)": {
        "notice": "Only for owner, and only update the last epoch end time."
      },
      "totalMint()": {
        "notice": "Only used for the `msdController` contract.         Lazy mint USX interest, that is only minted if `totalUnstaked` > `totalStaked`.         How to use this value can be found in `msdController` contract."
      }
    },
    "notice": "This contract extends ERC4626, and there is no fee for depositing or withdrawing.",
    "version": 1
  },
  "storageLayout": {
    "storage": [
      {
        "astId": 1016,
        "contract": "src/sUSX.sol:sUSX",
        "label": "_initialized",
        "offset": 0,
        "slot": "0",
        "type": "t_uint8"
      },
      {
        "astId": 1019,
        "contract": "src/sUSX.sol:sUSX",
        "label": "_initializing",
        "offset": 1,
        "slot": "0",
        "type": "t_bool"
      },
      {
        "astId": 3644,
        "contract": "src/sUSX.sol:sUSX",
        "label": "__gap",
        "offset": 0,
        "slot": "1",
        "type": "t_array(t_uint256)50_storage"
      },
      {
        "astId": 1199,
        "contract": "src/sUSX.sol:sUSX",
        "label": "_paused",
        "offset": 0,
        "slot": "51",
        "type": "t_bool"
      },
      {
        "astId": 1304,
        "contract": "src/sUSX.sol:sUSX",
        "label": "__gap",
        "offset": 0,
        "slot": "52",
        "type": "t_array(t_uint256)49_storage"
      },
      {
        "astId": 4641,
        "contract": "src/sUSX.sol:sUSX",
        "label": "__gap",
        "offset": 0,
        "slot": "101",
        "type": "t_array(t_uint256)50_storage"
      },
      {
        "astId": 184,
        "contract": "src/sUSX.sol:sUSX",
        "label": "_roles",
        "offset": 0,
        "slot": "151",
        "type": "t_mapping(t_bytes32,t_struct(RoleData)179_storage)"
      },
      {
        "astId": 479,
        "contract": "src/sUSX.sol:sUSX",
        "label": "__gap",
        "offset": 0,
        "slot": "152",
        "type": "t_array(t_uint256)49_storage"
      },
      {
        "astId": 33,
        "contract": "src/sUSX.sol:sUSX",
        "label": "_roleMembers",
        "offset": 0,
        "slot": "201",
        "type": "t_mapping(t_bytes32,t_struct(AddressSet)5951_storage)"
      },
      {
        "astId": 143,
        "contract": "src/sUSX.sol:sUSX",
        "label": "__gap",
        "offset": 0,
        "slot": "202",
        "type": "t_array(t_uint256)49_storage"
      },
      {
        "astId": 1324,
        "contract": "src/sUSX.sol:sUSX",
        "label": "_balances",
        "offset": 0,
        "slot": "251",
        "type": "t_mapping(t_address,t_uint256)"
      },
      {
        "astId": 1330,
        "contract": "src/sUSX.sol:sUSX",
        "label": "_allowances",
        "offset": 0,
        "slot": "252",
        "type": "t_mapping(t_address,t_mapping(t_address,t_uint256))"
      },
      {
        "astId": 1332,
        "contract": "src/sUSX.sol:sUSX",
        "label": "_totalSupply",
        "offset": 0,
        "slot": "253",
        "type": "t_uint256"
      },
      {
        "astId": 1334,
        "contract": "src/sUSX.sol:sUSX",
        "label": "_name",
        "offset": 0,
        "slot": "254",
        "type": "t_string_storage"
      },
      {
        "astId": 1336,
        "contract": "src/sUSX.sol:sUSX",
        "label": "_symbol",
        "offset": 0,
        "slot": "255",
        "type": "t_string_storage"
      },
      {
        "astId": 1916,
        "contract": "src/sUSX.sol:sUSX",
        "label": "__gap",
        "offset": 0,
        "slot": "256",
        "type": "t_array(t_uint256)45_storage"
      },
      {
        "astId": 4332,
        "contract": "src/sUSX.sol:sUSX",
        "label": "_hashedName",
        "offset": 0,
        "slot": "301",
        "type": "t_bytes32"
      },
      {
        "astId": 4335,
        "contract": "src/sUSX.sol:sUSX",
        "label": "_hashedVersion",
        "offset": 0,
        "slot": "302",
        "type": "t_bytes32"
      },
      {
        "astId": 4337,
        "contract": "src/sUSX.sol:sUSX",
        "label": "_name",
        "offset": 0,
        "slot": "303",
        "type": "t_string_storage"
      },
      {
        "astId": 4339,
        "contract": "src/sUSX.sol:sUSX",
        "label": "_version",
        "offset": 0,
        "slot": "304",
        "type": "t_string_storage"
      },
      {
        "astId": 4597,
        "contract": "src/sUSX.sol:sUSX",
        "label": "__gap",
        "offset": 0,
        "slot": "305",
        "type": "t_array(t_uint256)48_storage"
      },
      {
        "astId": 2021,
        "contract": "src/sUSX.sol:sUSX",
        "label": "_nonces",
        "offset": 0,
        "slot": "353",
        "type": "t_mapping(t_address,t_struct(Counter)3651_storage)"
      },
      {
        "astId": 2029,
        "contract": "src/sUSX.sol:sUSX",
        "label": "_PERMIT_TYPEHASH_DEPRECATED_SLOT",
        "offset": 0,
        "slot": "354",
        "type": "t_bytes32"
      },
      {
        "astId": 2185,
        "contract": "src/sUSX.sol:sUSX",
        "label": "__gap",
        "offset": 0,
        "slot": "355",
        "type": "t_array(t_uint256)49_storage"
      },
      {
        "astId": 2206,
        "contract": "src/sUSX.sol:sUSX",
        "label": "_asset",
        "offset": 0,
        "slot": "404",
        "type": "t_contract(IERC20Upgradeable)1995"
      },
      {
        "astId": 2208,
        "contract": "src/sUSX.sol:sUSX",
        "label": "_underlyingDecimals",
        "offset": 20,
        "slot": "404",
        "type": "t_uint8"
      },
      {
        "astId": 2835,
        "contract": "src/sUSX.sol:sUSX",
        "label": "__gap",
        "offset": 0,
        "slot": "405",
        "type": "t_array(t_uint256)49_storage"
      },
      {
        "astId": 695,
        "contract": "src/sUSX.sol:sUSX",
        "label": "_owner",
        "offset": 0,
        "slot": "454",
        "type": "t_address"
      },
      {
        "astId": 815,
        "contract": "src/sUSX.sol:sUSX",
        "label": "__gap",
        "offset": 0,
        "slot": "455",
        "type": "t_array(t_uint256)49_storage"
      },
      {
        "astId": 604,
        "contract": "src/sUSX.sol:sUSX",
        "label": "_pendingOwner",
        "offset": 0,
        "slot": "504",
        "type": "t_address"
      },
      {
        "astId": 683,
        "contract": "src/sUSX.sol:sUSX",
        "label": "__gap",
        "offset": 0,
        "slot": "505",
        "type": "t_array(t_uint256)49_storage"
      },
      {
        "astId": 8599,
        "contract": "src/sUSX.sol:sUSX",
        "label": "usrConfigs",
        "offset": 0,
        "slot": "554",
        "type": "t_array(t_struct(USRConfig)8595_storage)dyn_storage"
      },
      {
        "astId": 8601,
        "contract": "src/sUSX.sol:sUSX",
        "label": "lastEpochId",
        "offset": 0,
        "slot": "555",
        "type": "t_uint256"
      },
      {
        "astId": 9628,
        "contract": "src/sUSX.sol:sUSX",
        "label": "msdController",
        "offset": 0,
        "slot": "556",
        "type": "t_address"
      },
      {
        "astId": 9630,
        "contract": "src/sUSX.sol:sUSX",
        "label": "totalStaked",
        "offset": 0,
        "slot": "557",
        "type": "t_uint256"
      },
      {
        "astId": 9632,
        "contract": "src/sUSX.sol:sUSX",
        "label": "totalUnstaked",
        "offset": 0,
        "slot": "558",
        "type": "t_uint256"
      },
      {
        "astId": 9634,
        "contract": "src/sUSX.sol:sUSX",
        "label": "mintCap",
        "offset": 0,
        "slot": "559",
        "type": "t_uint256"
      }
    ],
    "types": {
      "t_address": {
        "encoding": "inplace",
        "label": "address",
        "numberOfBytes": "20"
      },
      "t_array(t_bytes32)dyn_storage": {
        "base": "t_bytes32",
        "encoding": "dynamic_array",
        "label": "bytes32[]",
        "numberOfBytes": "32"
      },
      "t_array(t_struct(USRConfig)8595_storage)dyn_storage": {
        "base": "t_struct(USRConfig)8595_storage",
        "encoding": "dynamic_array",
        "label": "struct USR.USRConfig[]",
        "numberOfBytes": "32"
      },
      "t_array(t_uint256)45_storage": {
        "base": "t_uint256",
        "encoding": "inplace",
        "label": "uint256[45]",
        "numberOfBytes": "1440"
      },
      "t_array(t_uint256)48_storage": {
        "base": "t_uint256",
        "encoding": "inplace",
        "label": "uint256[48]",
        "numberOfBytes": "1536"
      },
      "t_array(t_uint256)49_storage": {
        "base": "t_uint256",
        "encoding": "inplace",
        "label": "uint256[49]",
        "numberOfBytes": "1568"
      },
      "t_array(t_uint256)50_storage": {
        "base": "t_uint256",
        "encoding": "inplace",
        "label": "uint256[50]",
        "numberOfBytes": "1600"
      },
      "t_bool": {
        "encoding": "inplace",
        "label": "bool",
        "numberOfBytes": "1"
      },
      "t_bytes32": {
        "encoding": "inplace",
        "label": "bytes32",
        "numberOfBytes": "32"
      },
      "t_contract(IERC20Upgradeable)1995": {
        "encoding": "inplace",
        "label": "contract IERC20Upgradeable",
        "numberOfBytes": "20"
      },
      "t_mapping(t_address,t_bool)": {
        "encoding": "mapping",
        "key": "t_address",
        "label": "mapping(address => bool)",
        "numberOfBytes": "32",
        "value": "t_bool"
      },
      "t_mapping(t_address,t_mapping(t_address,t_uint256))": {
        "encoding": "mapping",
        "key": "t_address",
        "label": "mapping(address => mapping(address => uint256))",
        "numberOfBytes": "32",
        "value": "t_mapping(t_address,t_uint256)"
      },
      "t_mapping(t_address,t_struct(Counter)3651_storage)": {
        "encoding": "mapping",
        "key": "t_address",
        "label": "mapping(address => struct CountersUpgradeable.Counter)",
        "numberOfBytes": "32",
        "value": "t_struct(Counter)3651_storage"
      },
      "t_mapping(t_address,t_uint256)": {
        "encoding": "mapping",
        "key": "t_address",
        "label": "mapping(address => uint256)",
        "numberOfBytes": "32",
        "value": "t_uint256"
      },
      "t_mapping(t_bytes32,t_struct(AddressSet)5951_storage)": {
        "encoding": "mapping",
        "key": "t_bytes32",
        "label": "mapping(bytes32 => struct EnumerableSetUpgradeable.AddressSet)",
        "numberOfBytes": "32",
        "value": "t_struct(AddressSet)5951_storage"
      },
      "t_mapping(t_bytes32,t_struct(RoleData)179_storage)": {
        "encoding": "mapping",
        "key": "t_bytes32",
        "label": "mapping(bytes32 => struct AccessControlUpgradeable.RoleData)",
        "numberOfBytes": "32",
        "value": "t_struct(RoleData)179_storage"
      },
      "t_mapping(t_bytes32,t_uint256)": {
        "encoding": "mapping",
        "key": "t_bytes32",
        "label": "mapping(bytes32 => uint256)",
        "numberOfBytes": "32",
        "value": "t_uint256"
      },
      "t_string_storage": {
        "encoding": "bytes",
        "label": "string",
        "numberOfBytes": "32"
      },
      "t_struct(AddressSet)5951_storage": {
        "encoding": "inplace",
        "label": "struct EnumerableSetUpgradeable.AddressSet",
        "members": [
          {
            "astId": 5950,
            "contract": "src/sUSX.sol:sUSX",
            "label": "_inner",
            "offset": 0,
            "slot": "0",
            "type": "t_struct(Set)5636_storage"
          }
        ],
        "numberOfBytes": "64"
      },
      "t_struct(Counter)3651_storage": {
        "encoding": "inplace",
        "label": "struct CountersUpgradeable.Counter",
        "members": [
          {
            "astId": 3650,
            "contract": "src/sUSX.sol:sUSX",
            "label": "_value",
            "offset": 0,
            "slot": "0",
            "type": "t_uint256"
          }
        ],
        "numberOfBytes": "32"
      },
      "t_struct(RoleData)179_storage": {
        "encoding": "inplace",
        "label": "struct AccessControlUpgradeable.RoleData",
        "members": [
          {
            "astId": 176,
            "contract": "src/sUSX.sol:sUSX",
            "label": "members",
            "offset": 0,
            "slot": "0",
            "type": "t_mapping(t_address,t_bool)"
          },
          {
            "astId": 178,
            "contract": "src/sUSX.sol:sUSX",
            "label": "adminRole",
            "offset": 0,
            "slot": "1",
            "type": "t_bytes32"
          }
        ],
        "numberOfBytes": "64"
      },
      "t_struct(Set)5636_storage": {
        "encoding": "inplace",
        "label": "struct EnumerableSetUpgradeable.Set",
        "members": [
          {
            "astId": 5631,
            "contract": "src/sUSX.sol:sUSX",
            "label": "_values",
            "offset": 0,
            "slot": "0",
            "type": "t_array(t_bytes32)dyn_storage"
          },
          {
            "astId": 5635,
            "contract": "src/sUSX.sol:sUSX",
            "label": "_indexes",
            "offset": 0,
            "slot": "1",
            "type": "t_mapping(t_bytes32,t_uint256)"
          }
        ],
        "numberOfBytes": "64"
      },
      "t_struct(USRConfig)8595_storage": {
        "encoding": "inplace",
        "label": "struct USR.USRConfig",
        "members": [
          {
            "astId": 8588,
            "contract": "src/sUSX.sol:sUSX",
            "label": "startTime",
            "offset": 0,
            "slot": "0",
            "type": "t_uint256"
          },
          {
            "astId": 8590,
            "contract": "src/sUSX.sol:sUSX",
            "label": "endTime",
            "offset": 0,
            "slot": "1",
            "type": "t_uint256"
          },
          {
            "astId": 8592,
            "contract": "src/sUSX.sol:sUSX",
            "label": "usr",
            "offset": 0,
            "slot": "2",
            "type": "t_uint256"
          },
          {
            "astId": 8594,
            "contract": "src/sUSX.sol:sUSX",
            "label": "startRate",
            "offset": 0,
            "slot": "3",
            "type": "t_uint256"
          }
        ],
        "numberOfBytes": "128"
      },
      "t_uint256": {
        "encoding": "inplace",
        "label": "uint256",
        "numberOfBytes": "32"
      },
      "t_uint8": {
        "encoding": "inplace",
        "label": "uint8",
        "numberOfBytes": "1"
      }
    }
  }
}